:020000040000FA
:1000000078200020150200001D0200001F020000E1
:100010002102000023020000250200000000000071
:1000200000000000000000000000000027020000A7
:1000300029020000000000002B0200002D02000039
:100040002F0200002F0200002F0200002F020000EC
:100050002F0200002F0200005D0200002F020000AE
:10006000B50600002F0200002F0200002F02000042
:100070002F0200002F0200002F0200002F020000BC
:100080002F0200002F0200002F0200002F020000AC
:100090002F0200002F0200002F0200002F0200009C
:1000A0002F0200002F0200002F0200002F0200008C
:1000B0002F0200002F0200000000000000000000DE
:1000C0002F0200002F0200002F0200002F0200006C
:1000D0002F0200002F0200002F020000000000008D
:1000E0000000000000000000000000000000000010
:1000F0000000000000000000000000000000000000
:1001000000000000000000000000000000000000EF
:1001100000000000000000000000000000000000DF
:1001200000000000000000000000000000000000CF
:1001300000000000000000000000000000000000BF
:1001400000000000000000000000000000000000AF
:10015000000000000000000000000000000000009F
:10016000000000000000000000000000000000008F
:10017000000000000000000000000000000000007F
:10018000000000000000000000000000000000006F
:10019000000000000000000000000000000000005F
:1001A000000000000000000000000000000000004F
:1001B000000000000000000000000000000000003F
:1001C000000000000000000000000000000000002F
:1001D000000000000000000000000000000000001F
:1001E000000000000000000000000000000000000F
:1001F00000000000000000000000000000000000FF
:10020000DFF80CD000F018F800480047A5080000FF
:10021000782000200648804706480047FEE7FEE7B2
:10022000FEE7FEE7FEE7FEE7FEE7FEE7FEE7FEE7A6
:100230001D03000001020000064C074D06E0E068C7
:1002400040F0010394E8070098471034AC42F6D31D
:10025000FFF7DAFF400E0000600E00002DE9F843C2
:100260000025DFF8B0804FF4807601242F460095FA
:10027000304600F0A3FB38B1D8F80403204203D085
:10028000304600F091FB2543361D64007F1CB6B25A
:10029000082FEDD34FF4BE77384600F08FFB48B1FE
:1002A000384600F081FB45F000456A4601210020F8
:1002B00000F054FB15F0FF0F16D0012600242E424B
:1002C0000ED008EB8401D1F81005D1F81015C0F359
:1002D0000420114AC1F3014152F8242002B1904791
:1002E0007600641C082CEAD3002D02DA684600F080
:1002F00041FD384600F058FB4FF0A040D0F8100503
:10030000800B10F0010F03D003210E2000F014FB2E
:10031000BDE8F883006000401C000020F0B5D34A1F
:10032000D3494FF080541368D4F830010978D4F8D9
:100330003421451CC1F3031107D08446164601271A
:100340000025BCF1060F04D013E003F0FF0C0E46AD
:10035000F5E7032E05D0042E03D0052E01D0062E7E
:1003600007D1B4F82463DFF80CC3C6F30426CCF835
:100370000060DEB2062E06D1032904D1DFF8FCC2EC
:10038000BD4ECCF87460461C06D084464FEA020687
:10039000BCF1060F04D013E003F0FF0C0E46F7E7A4
:1003A000032E05D0042E03D0052E01D0062E07D132
:1003B000D4F84462DFF8C8C2C6F34236CCF8006015
:1003C000DEB2062E08D1032906D1AE4ED6F800C003
:1003D0002CF0807CC6F800C0461C05D0844616462A
:1003E000BCF1060F04D014E003F0FF0C0E46F7E753
:1003F000032E05D0042E03D0052E01D0062E08D1E1
:100400004FF08046C6F80C51C6F810519C4E361F6E
:100410003560DEB2062E08D1032906D1DFF860C2AE
:1004200003260CF1640CCCF80060DEB2062E11D16C
:1004300003290FD1DFF850C20526CCF80060924E98
:1004400078363760904E083635600CF1040C3F2644
:10045000CCF80060461C05D084461646BCF1060F59
:1004600004D087E003F0FF0C0E46F7E7032E7CD0A4
:10047000042E7FD0052E01D0062E7BD1834E366808
:10048000DFF80CC2CCF80060804E361D36680CF1E7
:10049000040CCCF800607D4E083636680CF1040C74
:1004A000CCF80060794E0C3636680CF1040CCCF8B0
:1004B0000060764E103636680CF1040CCCF8006003
:1004C000724E143636680CF1040CCCF800606F4E96
:1004D00018363668DFF8B8C10CF1200CCCF8006093
:1004E0006A4E1C3636680CF1040CCCF80060674E7E
:1004F000203636680CF1040CCCF80060634E2436CC
:1005000036680CF1040CCCF80060604E2836366872
:100510000CF1040CCCF800605C4E2C3636680CF103
:10052000040CCCF80060594E30363668DFF860C1F4
:100530000CF1400CCCF80060544E343636680CF1A7
:10054000040CCCF80060514E383636680CF1040CBF
:10055000CCF800604D4E3C3636680CF1040CCCF8FB
:1005600000604A4E4036366800E003E00CF1040CAF
:10057000CCF80060461C05D084461646BCF1060F38
:1005800004D011E003F0FF0C0E46F7E7032E05D070
:10059000042E03D0052E01D0062E05D1D4F85842E2
:1005A0003C4E04F04F043460441C04D00346114612
:1005B000062B02D010E0DBB2FAE7032905D00429AC
:1005C00003D0052901D0062906D133490B68DB0782
:1005D00002D06FF001030B6006280CD1032A0AD069
:1005E000042A08D0052A06D0062A04D12B4801681F
:1005F00041F48061016023487438016841F470015E
:100600000160BFF34F8FBFF36F8F4FF01021D1F810
:100610000002002803DBD1F80402002822DA204A75
:10062000176020480368002BFCD01523C1F8003266
:100630000468002CFCD0C1F8043201680029FCD009
:10064000156001680029FCD0BFF34F8F0D48F038CA
:100650000168154A01F4E06111430160BFF34F8F57
:1006600000BFFDE7124911480860F0BDE00F00F03F
:10067000E80F00F0403501400DF0ADBA00C0074072
:100680003C050040FCED00E0105600400404001062
:1006900020C50040E40E0040000400403C1700402C
:1006A00004E5014000E401400400FA050090D00395
:1006B000180000202DE9F047104E042700244FF4C5
:1006C000A0784FF4803900BF08EB840509FA04F0E4
:1006D000715961B1D6F80413014208D02946304659
:1006E00000F074F90648D0E9002128469047641CC0
:1006F000E4B2BC42E8D3BDE8F087000000800040CF
:100700006800002002E008C8121F08C1002AFAD1C0
:1007100070477047002001E001C1121F002AFBD181
:100720007047000072B609480068C00700D000BEDC
:10073000BFF34F8F0548E4380168054A01F4E061D2
:1007400011430160BFF34F8F00BFFDE7F0ED00E004
:100750000400FA050EB500210091CDE901106A46AA
:1007600044F20100FFF7DEFF0EBD00F003B800F019
:1007700009B8000072B602480168491C0160704760
:100780001400002003490868401E086000D162B6CA
:10079000704700001400002005494FF0FF32082880
:1007A00041F8202002D3084480F83C207047000024
:1007B0001C000020F0B54FF0FF3512B100230826D1
:1007C00001E0082309260C4C05E000BF54F8237013
:1007D0007F1C04D05B1CB342F8D32846F0BD26181A
:1007E0005DB286F8245044F82310002AF5D1E118B0
:1007F00081F83C00F1E700001C0000200249084499
:1008000090F92400704700001C0000200121814065
:1008100003484068014201D0012070470020704722
:100820000C00002001218140080300D00120704706
:100830003EB5194802A900680290112000F006F99F
:1008400008B1FFF787FF0020014600900123134AFB
:10085000134800F00BFA01A800F076F908B1FFF791
:1008600079FF0F480468112004F5A07400F04CF9DA
:10087000024621469DF8040000F096F908B1FFF702
:1008800069FF9DF8040000F0B1F908B1FFF762FFBD
:10089000112000F041F93EBD300E0000400D030074
:1008A000000000201CB500F029F808B1FFF752FF46
:1008B00000F092F808B1FFF74DFF0949094AD1E964
:1008C0000101CDE900016946074800F0E5F908B1EA
:1008D000FFF740FFFFF7ACFF034800F0B9F9FEE770
:1008E000300E00002D0E000000000020C20800F0B5
:1008F00007030120895C984008407047044801784C
:1009000009B1852070470121017000207047000067
:100910000800002070B541EA4201DDE904564FF0BD
:10092000A04441EA830141EA052104EB800041EA49
:100930000641C0F8001770BD4FF0A04202EB8000E6
:10094000D0F8002722F44032C0F80027D0F8002762
:1009500042EA0141C0F800177047000038B5094B62
:1009600044181B6800936B4608E000BF53F8201042
:10097000D1F8205520C2C1F82055401C8442F5D83A
:1009800038BD00003C0E000042094FF0000100D1CC
:10099000491E00F01F00012282400A4201D00120BE
:1009A0007047002070470000034908B50844002143
:1009B00001600068009008BD006000400249405896
:1009C000012800D0002070470060004008B50022D8
:1009D00042504058009008BD70B5194D95F8490037
:1009E00008B1082070BD0024661E2046FFF7CCFF2A
:1009F00010B1281980F82460641CE4B2202CF4D3D0
:100A000000242046FFF7C8FE641CE4B2092CF8D38A
:100A100000200D4945F8450F0A4CC02081F800041C
:100A200001264020891FC1F800014FF4BE70FFF776
:100A3000BBFFA004C4F804032E71002070BD0000A9
:100A40001C0000200060004006E000E02DE9FC41B1
:100A500004462A480F462044002590F92410491CDA
:100A600001D0082544E0B978002651B301220021C5
:100A70002046FFF79FFE411C21D0830020483A7892
:100A800018447978D0F81035DFF878C003EA0C0301
:100A9000C0F81035D0F810354FF4F85C0CEA042C8F
:100AA00043EA0C034FF4403C0CEA02424FF4801C32
:100AB0000CEA01510A431343C0F8103504E0042541
:100AC00016E0FE2180F824107A780120A0404FF033
:100AD000A041012A0FD0C1F80C0501222046009642
:100AE000002311460196FFF715FF204600F034F968
:100AF0002846BDE8FC81C1F80805EEE71C0000208F
:100B000000600040FFE0ECFF10B500F017F801496D
:100B1000084410BD006000400649084490F92400D4
:100B2000810005480844D0F8101541F00301C0F8D1
:100B3000101570471C0000200060004010B5FFF742
:100B40005DFE8006000E10BD2DE9F0470427144E0F
:100B5000814600244FF001080020FFF706FE08FA46
:100B600004F5354203D02046FFF750FE58B100206F
:100B7000FFF7FDFD27B104F10104AE43E4B2EBD170
:100B80003846BDE8F087074908FA04F000274A68AC
:100B90001043486089F800403846FFF7E8FDEFE76A
:100BA000FFFF0F000C0000202DE9F04114460D005E
:100BB000074612D08CB10026FFF734FE78B13846D4
:100BC000FFF724FE68B1084800EBC700C0F81055D5
:100BD000C0F814453046BDE8F0810E20FBE707263B
:100BE000F8E70826F6E7000000F0014070B504467B
:100BF00001260025A640FFF715FE18B12046FFF795
:100C000005FE18B102480660284670BD0825FBE7BE
:100C100004F501402DE9F04106460D464FF48034BD
:100C200000681746AC404BB14FF4A07101EB850151
:100C3000FFF7CCFE3068C0F8044301E0C0F8084379
:100C4000306800EB8500C0F84075BDE8F081000019
:100C5000016801220A600079034A00EB400002EBC0
:100C6000800002210172704768000020F0B404681F
:100C7000049E40F20115D4F800728D40AF43C4F8D1
:100C800000720468D4F800521D43C4F80052334681
:100C9000F0BCFFF7BFBF00002DE9F04104460E464F
:100CA00000792C4900EB400001EB8007387A10B145
:100CB0000820BDE8F0813A60706800254FF4A07804
:100CC000786006E008EB85012068FFF77FFE6D1C69
:100CD000EDB26079A842F5D82068F17840F307308A
:100CE00000284FEA411104DB00F1E02080F80014F5
:100CF00005E000F00F0000F1E02080F8141D2068EE
:100D0000012140F30730002809DB00F01F0201FA3F
:100D100002F24009800000F1E020C0F800212068C4
:100D20007278D0F8043562F30103C0F80435206806
:100D3000B278D0F8083562F30103C0F808352068AE
:100D40003278D0F8103562F30303C0F810353972E9
:100D50000020AEE76800002010B50549C20800F089
:100D60000703885C01249C402043885410BD000088
:100D7000610000202DE9F05FDFF89C8006464FF00F
:100D8000A0494FF0010A98F9440000274546401C4D
:100D900037D095F84400314620F0C0042046FFF7D4
:100DA000A5FD08B3384600F039F8834609EB840006
:100DB000D0F80007C0F30147022F16D002212046C9
:100DC000FFF7BAFD0AFA04F1C9F820152046FFF72B
:100DD00015FD55F820203AB15846BBF1030F0DD050
:100DE000022F04D0032F06D00BE00321E7E7BBF16D
:100DF000010F03D005E0BBF1020F02D101462046EE
:100E00009047324601210020FFF7A8FD30680028F6
:100E1000B9D1BDE8F09F00001C0000200249084441
:100E200090F84400800970471C00002070470000C3
:100E30000300010004000306000000000000005051
:100E4000600E0000000000201C00000004070000ED
:100E50007C0E00001C0000205C2000001407000035
:100E600000800040000400000000000000000000BE
:0C0E700000000000000000000090D00313
:0400000500000201F4
:00000001FF
