:020000040000FA
:1000000050270020F9020000010300000303000054
:1000100005030000070300000903000000000000C2
:100020000000000000000000000000000B030000C2
:100030000D030000000000000F030000110300008A
:1000400013030000130300005D08000071040000AA
:100050001303000013030000A103000013030000BA
:100060001303000013030000130300001303000038
:100070001303000013030000130300001303000028
:1000800013030000610400001303000013030000C9
:100090001303000013030000130300001303000008
:1000A00013030000130300001303000013030000F8
:1000B0001303000013030000000000000000000014
:1000C00013030000130300001303000013030000D8
:1000D00013030000130300001303000000000000DE
:1000E0000000000000000000000000000000000010
:1000F0000000000000000000000000000000000000
:1001000000000000000000000000000000000000EF
:1001100000000000000000000000000000000000DF
:1001200000000000000000000000000000000000CF
:1001300000000000000000000000000000000000BF
:1001400000000000000000000000000000000000AF
:10015000000000000000000000000000000000009F
:10016000000000000000000000000000000000008F
:10017000000000000000000000000000000000007F
:10018000000000000000000000000000000000006F
:10019000000000000000000000000000000000005F
:1001A000000000000000000000000000000000004F
:1001B000000000000000000000000000000000003F
:1001C000000000000000000000000000000000002F
:1001D000000000000000000000000000000000001F
:1001E000000000000000000000000000000000000F
:1001F00000000000000000000000000000000000FF
:10020000DFF80CD000F0BAF800480047FD0D000000
:100210005027002030B4044654E8000F0D4644E84F
:100220000053002BF8D1156030BC704730B4044641
:1002300054E8000F40EA010544E80053002BF7D1D1
:10024000156030BC704730B4044654E8000F00EA33
:10025000010544E80053002BF7D1156030BC70470E
:1002600030B4044654E8000F80EA010544E8005326
:10027000002BF7D1156030BC704730B4044654E809
:10028000000F00EB010544E80053002BF7D1156087
:1002900030BC704730B4044654E8000FA0EB0105B1
:1002A00044E80053002BF7D1156030BC704770B4A0
:1002B00004464FF0000054E8006F0D68AE4207BFDF
:1002C00044E80023012044E800630E60002B1CBFBB
:1002D0000020F0E770BC704730B4044654E8000FCB
:1002E00088422CBF451A054644E80053002BF5D13F
:1002F000156030BC7047000006488047064800473C
:10030000FEE7FEE7FEE7FEE7FEE7FEE7FEE7FEE7C5
:10031000FEE7FEE7C5040000010200000048704748
:100320005C2D000040EA01039B0703D009E008C9E7
:10033000121F08C0042AFAD203E011F8013B00F8AA
:10034000013B521EF9D27047D2B201E000F8012BF6
:10035000491EFBD270470022F6E710B513460A4645
:1003600004461946FFF7F0FF204610BD421C10F866
:10037000011B0029FBD1801A70470000064C074D75
:1003800006E0E06840F0010394E807009847103465
:10039000AC42F6D3FFF738FF282E0000482E0000AD
:1003A0002DE9F8430025DFF8B0804FF48076012472
:1003B0002F460095304601F0B5F838B1D8F804035F
:1003C000204203D0304601F0A3F82543361D6400D7
:1003D0007F1CB6B2082FEDD34FF4BE77384601F03C
:1003E000A1F848B1384601F093F845F000456A4657
:1003F0000121002001F05CF815F0FF0F16D0012656
:1004000000242E420ED008EB8401D1F81005D1F85B
:100410001015C0F30420114AC1F3014152F8242001
:1004200002B190477600641C082CEAD3002D02DA52
:10043000684601F0D5FF384601F06AF84FF0A04059
:10044000D0F81005800B10F0010F03D003210E200F
:1004500001F01CF8BDE8F88300600040C4000020F3
:1004600002490248091F0968006808472C0000205B
:10047000F8B51248124E04464FF48C7101F019FC85
:1004800000281AD00025C4F81851D4F8180100909B
:10049000F07F3446FF2806D0A17F11B101F01EF88D
:1004A00001E001F022F865772572D4E9002101B05E
:1004B00004F10800BDE8F0401047F8BD00300040EE
:1004C00020010020F0B5D34AD3494FF0805413687F
:1004D000D4F830010978D4F83421451CC1F3031154
:1004E00007D08446164601270025BCF1060F04D02C
:1004F00013E003F0FF0C0E46F5E7032E05D0042EA3
:1005000003D0052E01D0062E07D1B4F82463DFF8FE
:100510000CC3C6F30426CCF80060DEB2062E06D16A
:10052000032904D1DFF8FCC2BD4ECCF87460461C30
:1005300006D084464FEA0206BCF1060F04D013E051
:1005400003F0FF0C0E46F7E7032E05D0042E03D070
:10055000052E01D0062E07D1D4F84462DFF8C8C2B8
:10056000C6F34236CCF80060DEB2062E08D103296D
:1005700006D1AE4ED6F800C02CF0807CC6F800C084
:10058000461C05D084461646BCF1060F04D014E084
:1005900003F0FF0C0E46F7E7032E05D0042E03D020
:1005A000052E01D0062E08D14FF08046C6F80C511A
:1005B000C6F810519C4E361F3560DEB2062E08D1AB
:1005C000032906D1DFF860C203260CF1640CCCF8D5
:1005D0000060DEB2062E11D103290FD1DFF850C220
:1005E0000526CCF80060924E78363760904E08367B
:1005F00035600CF1040C3F26CCF80060461C05D099
:1006000084461646BCF1060F04D087E003F0FF0CC9
:100610000E46F7E7032E7CD0042E7FD0052E01D0A6
:10062000062E7BD1834E3668DFF80CC2CCF8006012
:10063000804E361D36680CF1040CCCF800607D4EFF
:10064000083636680CF1040CCCF80060794E0C3694
:1006500036680CF1040CCCF80060764E1036366823
:100660000CF1040CCCF80060724E143636680CF1B4
:10067000040CCCF800606F4E18363668DFF8B8C14D
:100680000CF1200CCCF800606A4E1C3636680CF178
:10069000040CCCF80060674E203636680CF1040C70
:1006A000CCF80060634E243636680CF1040CCCF8AC
:1006B0000060604E283636680CF1040CCCF80060FF
:1006C0005C4E2C3636680CF1040CCCF80060594EA8
:1006D00030363668DFF860C10CF1400CCCF80060B1
:1006E000544E343636680CF1040CCCF80060514E90
:1006F000383636680CF1040CCCF800604D4E3C36B0
:1007000036680CF1040CCCF800604A4E403636686E
:1007100000E003E00CF1040CCCF80060461C05D0AE
:1007200084461646BCF1060F04D011E003F0FF0C1E
:100730000E46F7E7032E05D0042E03D0052E01D078
:10074000062E05D1D4F858423C4E04F04F043460D4
:10075000441C04D003461146062B02D010E0DBB245
:10076000FAE7032905D0042903D0052901D0062979
:1007700006D133490B68DB0702D06FF001030B6031
:1007800006280CD1032A0AD0042A08D0052A06D04C
:10079000062A04D12B48016841F480610160234896
:1007A0007438016841F470010160BFF34F8FBFF3EB
:1007B0006F8F4FF01021D1F80002002803DBD1F831
:1007C0000402002822DA204A176020480368002B20
:1007D000FCD01523C1F800320468002CFCD0C1F80D
:1007E000043201680029FCD0156001680029FCD0A2
:1007F000BFF34F8F0D48F0380168154A01F4E061EE
:1008000011430160BFF34F8F00BFFDE7124911484C
:100810000860F0BDE00F00F0E80F00F04035014047
:100820000DF0ADBA00C007403C050040FCED00E013
:10083000105600400404001020C50040E40E0040A3
:10084000000400403C17004004E5014000E4014082
:100850000400FA050090D003A800002001480068B9
:10086000004700001C00002002E008C8121F08C159
:10087000002AFAD170477047002001E001C1121F21
:10088000002AFBD17047000072B601F027F900BFC3
:1008900000F02EFF0028FBD111481249401AC4086D
:1008A000012000EB044010A101F090F8114800680D
:1008B000C00700D000BE022000EB04400EA101F0F2
:1008C00085F8BFF34F8F0B48E43801680E4A01F4F6
:1008D000E06111430160BFF34F8F00BFFDE70000EF
:1008E000982E0000582E0000466174616C206572DD
:1008F000726F7200F0ED00E053797374656D2072D1
:1009000065736574000000000400FA050EB500214F
:100910000091CDE901106A4644F20100FFF7B4FFEF
:100920000EBD00F003B800F009B8000072B602482E
:100930000168491C016070472400002003490868D1
:10094000401E086000D162B67047000024000020FD
:100950002DE9F041064608680C46411C4FF0A047BF
:100960004FF0010506D005FA00F1C7F80815206818
:1009700000F078FD6068411C02D0002100F056FDB7
:100980003168A069C1F82405607D227D316810437B
:10099000C1F86C05D4E900123068C0F81425C0F81D
:1009A0000C15207D012815D1A068411C02D0002122
:1009B00000F03CFDE068411C05D08540C7F80855B3
:1009C000E06800F04FFDD4E902123068C0F8082555
:1009D000C0F81015BDE8F0812DE9F0410646086821
:1009E0000C46411C4FF0A0474FF0010506D005FA18
:1009F00000F1C7F80815206800F03EFD6068411C52
:100A000002D0002100F01BFD3168A069C1F8240567
:100A1000607D217D32680843C2F86C05D4E900127C
:100A20003068C0F80C15C0F81425207D012815D1B8
:100A3000A068411C02D0002100F001FDE068411CCB
:100A400005D08540C7F80855E06800F015FDD4E9E9
:100A500002123068C0F80825C0F81015BDE8F08112
:100A60002DE9FC410646C0074FF000050ED0104F9F
:100A700000240122385D009500231146019500F005
:100A80007BFC641C042CF4D300F02EF8B0070DD5C9
:100A9000074E0024361D0022305D032300951146C9
:100AA000019500F069FC641C042CF4D3BDE8FC81C2
:100AB000682C000007490B5C4FF0A041D1F80425D9
:100AC0000120984020EA0203C1F808351040C1F81F
:100AD0000C057047682C00000249085C012100F0F9
:100AE0000BBD0000682C000010B500242046FFF765
:100AF000F3FF641C042CF9D310BD00002DE9F0476E
:100B00000546861C91460F464FF0010A0020FFF76C
:100B100008FF1B4C04F21C4860683860D4E90101EE
:100B2000184F401A3968081A0EE00121404600F0BB
:100B300041FA00F011F90146404600F03BFAD4E9D1
:100B40000101401A3968081A401C8642EDD8B9F1F3
:100B5000000F03D0052065F3891002E0062065F33D
:100B60009F5061683A68114004EB8101C860606879
:100B7000304460600020FFF7D6FE5046BDE8F087A5
:100B80002C0300205400002070B50D4604460A29AD
:100B900002D10D21FFF7F8FFA0682268411CA16077
:100BA0001554D4E90101814204D32046BDE87040C8
:100BB00000F0E9BA70BD00000448816840688142D5
:100BC00001D1012070470020704700002C03002055
:100BD0000249084490F9300070470000C40000202A
:100BE00010B50021024800F0F0F980F3100010BDAC
:100BF000480700202DE9FC5F0E008346DDE90C4725
:100C0000C6F1000098469246814600D40846012568
:100C100003E000BF90FBFAF06D1C5045FADAA845DE
:100C200000D9454624B1002E01DB780700D5641EAB
:100C3000B80702D5B8F1000F0AD0F80708D13CB1C7
:100C4000A54205D220215846641EFFF79DFFF6E716
:100C5000002E02DA4E462D2102E0780703D52B2123
:100C60005846FFF791FF07F0030002280BD1B8F1B7
:100C7000000F08D13CB1A54205D230215846641E70
:100C8000FFF782FFF6E7CDE900474346524631467B
:100C9000584601F075FFBDE8FC9F000070B50D4699
:100CA000044600684FF4887101F01EF84FF490710B
:100CB000206801F019F84FF49271206801F014F8DF
:100CC0004FF4A271206801F00FF84FF4AC71206866
:100CD00001F00AF820681249C0F804132068690777
:100CE00040F30730090E002804DB00F1E02080F813
:100CF000001405E000F00F0000F1E02080F8141D62
:100D0000206840F30730002809DB00F01F020121B2
:100D100091404009800000F1E020C0F8001170BD52
:100D200010034200024600201268530713D502F058
:100D30000300012802D002280CD105E0C2F3831081
:100D40000B68801C184404E00223086803EB9252ED
:100D500010440860012070472DE9FF410026244817
:100D600000F025F92248001F074600F020F9214C29
:100D70002149A06800900D6800E00098694628406D
:100D800004EB80000C30FFF7CDFF0028F5D101AA5D
:100D9000009901EA050304EB8303491CDB6842F870
:100DA0002030401C00910228F2D3019800F003008B
:100DB00001280BD0022810D10198032101EB90509B
:100DC0000099BDF80A6001EB900005E00198BDF8BC
:100DD0000A60C0F3831008440090384600F0E4F83D
:100DE00008B10098A06004B03046BDE8F081000072
:100DF000440700202C030020540000208EB0012066
:100E0000FFF72EFE4FF48041002000F03BFE08B1BA
:100E1000FFF77CFD00F05EFC2C4B0DF1100C0FCBAE
:100E20008CE80F001F208DF813001E208DF8120093
:100E30001D208DF811001A208DF810002348002382
:100E4000234A04A9103800F025F908B1FFF75EFD28
:100E500020482149401AC008032101EB00401FA18E
:100E600000F0B4FD234C4FF0000800BFC4F8088028
:100E7000A4F80C8084F80E8084F800801D490722B5
:100E8000491CCB1D15468DE82E00104800220C3859
:100E9000694601F017F818B1FFF738FD00E020BFF0
:100EA00020780028FBD000BF00F022FC0028FBD1F6
:100EB000FFF700FE054DC826183D4FF47A47691C20
:100EC00038468847761EFAD1D0E70000582C00003B
:100ED00031260000982E0000582E00005350492063
:100EE0006578616D706C6520737461727465642ED1
:100EF00000000000000000202DE9F047C5881E1DFD
:100F0000B6FBF5F78946B6FBF5F1044605FB176C11
:100F1000407916686843DDF820A0F718001F874263
:100F200000D9C61A166001E02468491E0029FBD1C9
:100F3000A5EB0C078846B74216D818E004EB0C0066
:100F4000001D09EB0803BAF1000F3A4602D0014632
:100F5000184600E01946FFF7E5F92468F61B4FF044
:100F6000000CB844B54201D9374600E02F46002EA8
:100F7000E4D1BDE8F087000030B5024651B100F081
:100F800095FD0021074C08E034F821301568AB428C
:100F900002D11160002030BD491C8142F4D30520EC
:100FA00030BD000000000000002100F009B8012160
:100FB00000F010B808B56A46FFF75FF9009808BD61
:100FC00008B56A46FFF73FF908BD08B56A46FFF75E
:100FD00021F908BD08B56A46FFF728F9009808BD51
:100FE00008B56A46FFF756F9009808BD70B5044683
:100FF00000252846FFF795FC216862680868904242
:101000000ED9401E08600178238AE26801FB03259F
:10101000227A2168101AC0B20A79824200D208717D
:101020000020FFF780FC284670BD70B505460C46D1
:101030000020FFF776FCE868298A201AB0FBF1F15E
:101040002A681068431C13600170BDE870400020DE
:10105000FFF769BC10B530B1017A42680368891A9C
:10106000C9B21A6006E00E2010BD03681A68541C4D
:101070001C601170491EC9B2F7D2006800210171CD
:10108000084610BDC20800F007030120895C9840A3
:10109000084070472DE9FF411C460378164D174E56
:1010A00045F823200C3545F82340F0CE8DE8F000BC
:1010B0000C788DF800404C788DF801408C788DF8D4
:1010C0000240CC788DF803400C798DF805404C79BE
:1010D0008DF806408C6802940C7B8DF80C40497B9F
:1010E0008DF80D1002B1064A6946001D00F034FE6D
:1010F00004B0BDE8F0810000AC000020702C0000BE
:10110000A9260000F0B505460478154889B01646B2
:1011100040F82420124A0869121DA2F1080742F87B
:101120002400487F385520226846FFF7FBF80494D6
:101130002878385C48B10EB10A4A00E000226946BE
:10114000281D01F02FF809B0F0BD0EB1064A00E0ED
:101150000022694605F10C0000F0EEFEF3E7000006
:10116000140000203D2A0000852800000FB408B5B7
:101170000399002904D004AA00926A4600F00FF8EF
:1011800001B05DF814FB10B582680446002A05D052
:10119000D4E90403216898470020A06010BD2DE920
:1011A000FC4791460C00804676D014F8011B39B1FB
:1011B00025290ED04046FFF7E7FC20780028F4D11F
:1011C00098F80C00002867D04046BDE8FC47FFF7C0
:1011D000DABF0020012221782B291BD02D2902D033
:1011E000302908D102E040F0010001E040F00200A7
:1011F000641C002AEFD100252A290ED02178A1F104
:1012000030020A2A11D205EB850201EB4205641C6B
:10121000303DF1E740F00400EAE7D9F800100B1D7B
:10122000C9F800300968641C0D44217800232E2978
:101230000BD114F8011FA1F130020A2A05D203EBE9
:10124000830201EB4203303BF3E76C290DD06829A0
:101250000BD0692921D00BDC252918D0582931D091
:1012600063290ED0642915D117E014F8011FECE7AB
:10127000702969D0732932D075291BD0782909D1FA
:1012800020E0D9F80000011DC9F80010017840469F
:10129000FFF77AFC641C90E76CE0D9F800100A1D97
:1012A000C9F800200968CDE900500A224046FFF73E
:1012B000A1FCEFE7D9F800100A1DC9F80020096861
:1012C0000A2206E0D9F800100A1DC9F800200968B2
:1012D0001022CDE90050404601F052FCDAE7D9F87F
:1012E000001000270A1DC9F800200E68C00705D1AC
:1012F00012E04046761C7F1CFFF746FC317800293F
:10130000F7D104E0202140466D1EFFF73DFCBD42B1
:10131000C0D9002DF6D1BDE74EB13046FFF726F813
:10132000074604E0202140466D1EFFF72DFCBD421C
:1013300006D9002DF6D103E04046761CFFF724FCC9
:1013400031780029F8D1A5E7D9F80000011DC9F8C6
:101350000010056830214046FFF716FC7821404612
:10136000FFF712FC08200021CDE9000103461022FE
:101370002946B0E7BDE8FC8770B541EA4201DDE9E6
:1013800004564FF0A04441EA830141EA052104EBF1
:10139000800041EA0641C0F8001770BD70B541EA0F
:1013A0004201DDE904564FF0A04441EA830141EADD
:1013B000052104EB800041EA0641C0F8001770BD2A
:1013C00070B541EA4201DDE904564FF0A04441EA1C
:1013D000830141EA052104EB800041EA0641C0F89F
:1013E000001770BD70B541EA4201DDE904564FF0C7
:1013F000A04441EA830141EA052104EB800041EA6F
:101400000641C0F8001770BD1CB5002100910B46C5
:1014100001220191FFF7D4FF1CBD1CB500210091F2
:101420000B4601220191FFF7DDFF1CBD1CB5002218
:101430000B46009211460192FFF7C2FF1CBD1CB57E
:1014400000220B46009211460192FFF7CBFF1CBD14
:101450001CB5002100910B46012201911146FFF7B6
:101460009DFF1CBD1CB5002100910B46012201917E
:101470001146FFF7A5FF1CBD1CB5002100910B46CE
:10148000012201911146FFF7ADFF1CBD4FF0A042B4
:1014900002EB8000D0F8002722F44032C0F8002789
:1014A000D0F8002742EA0141C0F800177047000059
:1014B00038B5094B44181B6800936B4608E000BF21
:1014C00053F82010D1F8205520C2C1F82055401CF7
:1014D0008442F5D838BD0000802C00004FF0A042B7
:1014E00001218140C2F80C1570474FF0A042012144
:1014F0008140C2F80815704701224FF0A043824096
:1015000011B1C3F808257047C3F80C2570470000D7
:10151000034908B50844002101600068009008BD37
:101520000060004002494058012800D00020704768
:101530000060004030B5154A01460020D2F8104442
:1015400023460AE0DB681D79854205D1401C0A2844
:10155000F6DB4FF0FF3030BD1B68002BF2D1431C8F
:10156000F9D0CB681871D2F8103443B1DB68CC687D
:101570001B682360D2F81024D268116030BDC2F815
:101580001014C96800220A6030BD00002C0300203E
:10159000F0B595B01C4615460F4608461A9E00F059
:1015A00055FB182109A8FEF7D6FE0E96CDE9095481
:1015B0000023082203A9384600F05DFB0598069039
:1015C000BDF81000ADF81C00BDF81200ADF81E000B
:1015D00000208DF821000398082600F00300012860
:1015E00002D0022818D032E003983346850AC0F3AF
:1015F000C2008DF8200003980FA9C0F38314A20045
:10160000384600F038FB09A8009006AB22460FA927
:10161000284600F077FA1AE00398840DC0F3C20060
:101620008DF82000082C01D2254600E0082533461D
:101630002A460FA9384600F01EFB2E44641B09AB56
:1016400006AA29460FA800F0C5F9002CEAD13846B1
:1016500000F002FB15B0F0BD7047012001F030B979
:10166000084810B50178084A515C19B1001D00F016
:1016700033FE02E00C3000F02DFDBDE810400020EC
:1016800001F01EB9380000201000002008B5034A00
:1016900000924023024AFFF77BFF08BDF1250000BE
:1016A000940100200A4A012902EBC00007D0022958
:1016B00007D0032907D0042907D000207047022053
:1016C00070470420704700797047407970470000E8
:1016D000582E000010B5FFF7C0FF04210348FFF7A4
:1016E00029FF02490120C968487110BD482E000039
:1016F0002DE9F0478CB0FFF75FFA18B100200CB06D
:10170000BDE8F0877D4C0020C4F81804BFF34F8F6C
:101710007B49A06802900D684FF00008284004EB58
:1017200080000BE0D4F8180470B961680298814217
:1017300001D8A160E2E7284004EB80000C3002A948
:10174000FFF7F0FA0028EDD1002003AA029901EA80
:10175000050304EB8303491CDB6842F82030401C7E
:1017600002910228F2D3039800F00300022802D06D
:1017700001284DD0A7E003985022810D8946B2EB95
:10178000905F00D850210E4666F39F5003900831B9
:101790005C4800F012FA070078D000F057FA434690
:1017A000082203A9384600F06EFA029908F1080AE7
:1017B0002940681A8000001D864222D94F4D0C3501
:1017C00030B1C2B204EB8101301A90460C3104E012
:1017D0002946F2B2002590462846C6B253463846FE
:1017E00000F051FA0AEB080325B132462946384683
:1017F00000F049FA029909F1030001EB9000029010
:101800003BE004EB81015346324638460C31EFE7AA
:101810000398C0F38310062800D30620039960F3D1
:101820008911C1F38310801C03918100354800F0B9
:10183000C4F9070047D000F009FA4346082203A97B
:10184000384600F020FA08F1080800260FE0029858
:10185000434600EA0501401C04EB8101029004228A
:1018600038460C3100F00FFA08F10408761C039892
:10187000C0F38310B042EAD847B1D4F81054D4F87A
:10188000180478B1384600F0E7F931E01BE0E86869
:101890004079012804D12A682846394612689047C1
:1018A000E8680568002DF2D1384600F0D5F900202F
:1018B000FFF737F8D4F8180408B90298A0600020A0
:1018C000FFF731F814E0D4F8104405E02168204611
:1018D00089688847E0680468002CF7D10A480B49FA
:1018E000401AC008022101EB004009A100F06EF887
:1018F000FFF762F980F0010001E700002C030020EF
:1019000054000020A02E0000982E0000582E000049
:101910004261636B656E647320666C7573686564A1
:10192000000000002DE9F84F8146264FD01C1546D7
:101930008A468008002269463E68FFF7DFF8DFF834
:101940008880B0B3009CA01C009039683040091A10
:101950008F003F1DBD4208EB800002D82A46514649
:1019600008E03A4651460C30FEF7DCFC1648EA1B0C
:101970000AEB07010C30FEF7D5FC4FEA1947FFF7D9
:101980002FF947EA0042601C304008EB80003440E9
:1019900008EB8401C260C8684FF6C07269F3C500E5
:1019A000904365F39F5020F00300801C20F004005A
:1019B000C86098F8000001E0FFF79AFE0028FBD10C
:1019C000BDE8F88F540000202C03002000231A46A5
:1019D00000F0E4BE2DE9F0470E4680461C469246D4
:1019E000082940D894F80C9000202073194610461E
:1019F00000F076FD0025B54206D218F805201BA19F
:101A00002046FFF7B3FB03E01AA12046FFF7AEFB29
:101A10006D1C082DEFD318A12046FFF7A7FB00256A
:101A2000B54212D218F805707E2F08D8FEF776FC62
:101A30000068C05D10F03E0F01D03A4600E02E2253
:101A40000EA12046FFF792FB03E00DA12046FFF711
:101A50008DFB6D1C082DE3D301222146504600F07A
:101A600021FD84F80C90BDE8F0870000202530327D
:101A700078000000202020007C000000256300008A
:101A800020000000064910B500200870054800F04D
:101A9000E1F8002803D1044800F0FDF8002010BD53
:101AA0002C030020A02E0000CC2C0000024803498B
:101AB000401AC00870470000A02E0000582E0000F9
:101AC00013B56846FFF758FA08B100201CBD02485C
:101AD000009950F831001CBD582E000070B5084820
:101AE0000125D0F81044057007E0E06845712168D1
:101AF000204649688847E0680468002CF5D170BD2D
:101B00002C0300202DE9FF4781460C9D00200C4648
:101B10002F7B2873984616462946184600F0E0FCAD
:101B2000072E42D2DFE806F004090F161F2A3600FE
:101B300049462846FFF71AFB37E0494628462268FF
:101B4000FFF714FB31E0D4E9002349462846FFF7AC
:101B50000DFB2AE0A0680090D4E9002349462846FE
:101B6000FFF704FB21E0D4E90201CDE90001D4E94B
:101B7000002349462846FFF7F9FA16E004F1080069
:101B800007C88DE80700D4E9002349462846FFF737
:101B9000EDFA0AE004F108000FC88DE80F00D4E95F
:101BA000002349462846FFF7E1FA0022294640462D
:101BB00000F078FC2F73BDE8FF872DE9F041058A1E
:101BC00080462D1F4819C01CB0FBF5F0C6B2404638
:101BD000FFF70CFA041E19D000202071012060715B
:101BE000E58000272546761EC4F800800BE04046BD
:101BF000FFF7FCF960B16179491C61712860054605
:101C00007F1CC0F80080B742F1D32046BDE8F081C8
:101C1000204600F002F80020F8E72DE9F041457970
:101C200001466B1E002201E00968521C9A42FBD358
:101C30000F680146002605E038460C68FFF7F5F905
:101C40002146761CAE42F7D3BDE8F0810121001D8C
:101C5000FFF7B0B9FFF7FEB910B504460121001D2A
:101C6000FFF7BEF910F0FF0F04D12046BDE8104089
:101C7000FFF7D3BF10BD1CB501920122009201AA4B
:101C8000FFF73AF91CBD1CB501920022009201AA8F
:101C9000FFF732F91CBD82680021916082681161F2
:101CA000826851618268D160826851608068016099
:101CB00070474058002800D0012070474058002845
:101CC00000D00120704708B50022425040580090D3
:101CD00008BDD0F80403084000D0012070474058E8
:101CE000002800D00120704708B50022425040581B
:101CF000009008BD0121B1EB507F01D10120704758
:101D0000002070470121B1EB507F01D101207047C5
:101D10000020704770B50D4600F02EFC04000FD077
:101D20000020FEF7FEFD207920B10020FEF7FBFD2C
:101D3000112070BD0120256020710020FEF7F3FD09
:101D4000002070BD10B500F017FC002802D0002163
:101D50000160017110BD00002DE9FC470C461546DD
:101D600001798046554A01EBC10002EB8006994695
:101D7000307F10B10820BDE8FC87514AD8F8000038
:101D8000074652F82110FFF7C5FF08B11120F2E70E
:101D9000C6E90059207B0128207802D8FFF79EFB76
:101DA00001E0FFF7A2FB4FF0000ACDF800A0CDF84C
:101DB00004A02078534652460121FFF7EFFA6078DD
:101DC0004FF0FF35FF2806D08146FFF787FB4846D6
:101DD000FFF73EFB00E0A946A078FF2809D00022CB
:101DE00005460123CDF800A01146CDF804A0FFF769
:101DF000D5FAA07886F82000E078F077E078FF2820
:101E00000BD0217911B1FFF769FB01E0FFF76DFB02
:101E1000E078FFF71DFB2079B0772178C7F8081527
:101E2000C7F80C95C7F81055A068C7F82405217BA2
:101E3000607B00B10120012904D0022905D00329CB
:101E400008D105E040F0020004E040F0040001E0A9
:101E500040F00600C7F85405A079C7F8C005072070
:101E6000C7F800053068012218B3D8F8000061797E
:101E700040F3073000284FEA411104DB00F1E02075
:101E800080F8001405E000F00F0000F1E02080F879
:101E9000141DD8F8000040F30730002809DB00F0DB
:101EA0001F0102FA01F14009800000F1E020C0F8B2
:101EB0000011504686F81DA032775CE72001002013
:101EC000842C00002DE9F04105460F4600791549A4
:101ED00000EBC00001EB80041646607F10B11120BA
:101EE000BDE8F081206820B116F0140F01D1012067
:101EF000607797E80F0004F10C0888E80F00E07F96
:101F0000FF2806D0A17F11B1FFF7EFFA01E0FFF73C
:101F1000E5FA33463A4621462868BDE8F04100F02C
:101F2000DFBB0000200100200149024800F0F0BCA6
:101F300044010020002000402DE9F04105460079D1
:101F400016460F4600EB40012D4A01EBC00102EBA3
:101F5000810494F82A1011B10820BDE8F0812949C4
:101F600051F820102868FFF7D5FE08B11120F4E7DA
:101F700039462846FEF7ECFC666038692060300080
:101F80004FF001062FD03F7F4FF48E712868FFF786
:101F90009AFE4FF4A2712868FFF795FE28681A4947
:101FA000C0F8041328684FEA471140F307300028AF
:101FB00004DB00F1E02080F8001405E000F00F00E1
:101FC00000F1E02080F8141D286840F30730002855
:101FD00009DB00F01F0106FA01F14009800000F161
:101FE000E020C0F8001128680421C0F80015002086
:101FF000A061E06184F8290044F8140FA675ACE7ED
:1020000044010020882C0000800002002DE9F05FD0
:10201000054600790B4600EB400101EBC000244966
:1020200001EB8004284600F045F810B11120BDE80E
:10203000F09F62614FF00009C4F82090A36084F81B
:1020400028904FF48E784E4641462868FFF73BFEB5
:1020500028684FF0010AC0F808A02146286800F05F
:10206000E7FB606808BBD5F800B067690FE000BF08
:1020700094F8280008B10F2615E041465846FFF7AE
:102080001DFE0028F4D02146584600F0D1FB206AFE
:10209000B842F2D3574641462868FFF70FFE0028A2
:1020A000F9D02868C760C4F814903046BFE7000034
:1020B00044010020007900EB400101EBC00004491D
:1020C00001EB80004069002800D00120704700002B
:1020D000440100202DE9F047044600794FF0000943
:1020E00000EB400101EBC000284901EB80072068AC
:1020F000C0F800957868B0B120682549C0F8081389
:10210000206840F3073000280DDB00F01F0201219A
:1021100091404009800000F1E020C0F88011BFF339
:102120004F8FBFF36F8F2068D0F80C25D0F814853F
:10213000D0F80865D0F810554FF0FF31C0F81415ED
:10214000C0F80C152068C0F80815C0F81015501C10
:1021500002D01046FFF758F9B8F1FF3F02D04046D1
:10216000FFF752F9681C02D02846FFF74DF9701CA2
:1021700002D03046FFF748F92068FFF7E3FD87F803
:102180002A90C7F80490BDE8F087000044010020C1
:10219000840202000149024800F068BC700100207E
:1021A000002000402DE9F0410546164600790F4613
:1021B000154A00EBC00102EB810494F8201011B124
:1021C0000820BDE8F081114951F820102868FFF778
:1021D000A1FD08B11120F4E739462846FEF7FCFBC3
:1021E0006660386920601EB1397F2846FEF756FDCB
:1021F00028680821C0F800150020A061E061606136
:10220000012184F82010DCE7700100208C2C0000F4
:102210002DE9F04704460E460079274900EBC0003F
:1022200001EB800517463046FFF76CFD30B12046C4
:1022300000F044F820B11120BDE8F0871020FBE742
:102240006F61AE604FF490774FF000083946206818
:10225000FFF74AFD4FF4AC7631462068FFF744FDA6
:102260002068AA686969C0F84425C0F84815206844
:102270004FF00109C0F808906868D0B9BA465146D5
:102280002068FFF72CFD074631462068FFF727FD41
:102290000743F4D010B14FF00F0808E02068C0F8F1
:1022A0000C9031462068FFF71AFD0028F9D0002075
:1022B00068614046C0E700007001002000790549D0
:1022C00000EBC00001EB80004069002800D0012035
:1022D00070470000700100202DE9F04706460079A4
:1022E0003D4900EBC00001EB8005346868680127B8
:1022F000A8B13A49C4F80813306840F30730002801
:102300000DDB00F01F0107FA01F14009800000F128
:10231000E020C0F88011BFF34F8FBFF36F8FD4F868
:10232000000220F02000C4F80002A8694FF4A2784F
:1023300020B141462046FFF7D7FC67604FF4AC79E7
:1023400049462046FFF7D0FCE7604746494620460D
:10235000FFF7C5FC0028F9D0A86928B13946204606
:10236000FFF7BDFC0028F1D04FF0000AC4F800A52B
:102370003068D0F80C25D0F81495D0F80885D0F83E
:1023800010754FF0FF31C0F80C15C0F81415306807
:10239000C0F80815C0F81015501C02D01046FFF701
:1023A0003CF8B9F1FF3F02D04846FFF736F8781CF9
:1023B00002D03846FFF731F8B8F1FF3F02D040466F
:1023C000FFF72BF82046FFF7BDFC85F820A0C5F8E5
:1023D00004A0BDE8F0870000700100201003420057
:1023E0002DE9F05F2A4F06464FF0A04A4FF0010B4F
:1023F0000024381990F95010491C3CD090F8500036
:10240000314620F0C0052846FEF73CFE20B32046AA
:1024100000F040F881460AEB8500D0F80007C0F3D1
:102420000148B8F1020F18D002212846FFF72EF814
:102430000BFA05F1CAF820152846FEF7C9FB57F834
:1024400020204AB14846B9F1030F11D0B8F1020F6C
:1024500005D0B8F1030F07D00DE00321E5E74846AA
:10246000B9F1010F04D006E04846B9F1020F02D1DC
:10247000014628469047641C042CBAD332460121F9
:102480000020FFF715F830680028B1D1BDE8F09FB3
:10249000C40000200249084490F8500080097047A9
:1024A000C400002010B50C46017A052908D0407AF6
:1024B00038B1084808A102682046FEF757FE00E040
:1024C0001AB106A12046FEF751FE2046BDE8104095
:1024D000FEF759BE84000020257300000D0A00009D
:1024E00038B5C3880D46044633B114A0009015A238
:1024F00016A12846FEF73AFE217A05291CD0607AFB
:1025000048B1A088FFF7CEF8164951F8202016A14F
:102510002846FEF72BFEA0880021FFF7D1FA0346DC
:102520001049207A143951F8202001B02846BDE81E
:1025300030400EA1FEF71ABE38BD00001B5B306DA7
:10254000000000001B5B313B33316D0025734C6F85
:1025500067732064726F7070656420282564292574
:10256000730D0A0084000020257300003C25733E93
:102570002025733A200000000349884201D1034816
:102580007047002070470000002000401C00002021
:1025900070B5054688690C4600284FF484712846BA
:1025A0000AD0FFF790FBD5F81805626AE1688854F5
:1025B000606A401C606270BDFFF785FBD5F81805A6
:1025C00070BD1FB501238DF80030CDE90121D0E9A0
:1025D0000012684690471FBD1FB501238DF80030DB
:1025E000CDE90121D0E90012684690471FBD0000E7
:1025F00070B50D4C0020D2B22070201D0B4D037819
:10260000EB5C1BB1001DFFF703FE02E00C30FFF78F
:10261000FDFC08B1FEF77AF96078002802D0217835
:102620000029FAD070BD0000340000201000002006
:10263000124910B50120087011481249401AC1080A
:10264000032000EB014004460FA1FFF7BFF90B4840
:102650000830007800280FD0204610A1FFF7B6F907
:1026600006480830FDF782FE82B220460349BDE8E5
:1026700010400831FFF756B910BD000000000020DF
:10268000982E0000582E00005472616E73666572B9
:1026900020636F6D706C657465642E0020526563F5
:1026A00065697665643A000000B585B00A46017830
:1026B0008DF8001041680191017A8DF80810C16809
:1026C0000391007C8DF81000044850F822100C385B
:1026D00050F822206846904705B000BDB8000020A1
:1026E0002DE9F843044610681E4615460F464FF084
:1026F000000810B1FFF7FEFAF8B1A86810B1FFF7B3
:10270000F9FAD0B1D5E90001C4F84405C4F8481578
:10271000D5E90201C4F83405C4F838154FF48C75B6
:102720004046C4F81881D4F818110091F2074FF010
:10273000010107D0C4F8501506E087F81D8010206D
:10274000BDE8F883C4F85005B20702D5C4F84015B7
:1027500001E0C4F84005300700D42161386848B171
:1027600046F38000401C4FF0400014D0C4F804032E
:102770000020E5E729462046FFF79BFA0028F9D01C
:10278000F87FFF28F4D0B97F11B1FEF7A7FEEFE77D
:10279000FEF7ABFEECE7C4F80803E9E72DE9F84FD4
:1027A000074621489146884605681E46012269462B
:1027B0001846FEF7A3F9DFF874A060B30098002173
:1027C0000446801C0AE000BF00EA050259F821C057
:1027D0000AEB8202401C491CC2F80CC0B142F3D380
:1027E0004FEA1749FEF7FCF9611C29400AEB810109
:1027F00049EA00422C40CA600AEB8401C86867F3CA
:10280000C50066F3891068F39F2020F00300401C88
:1028100020F00400C8609AF8000001E0FEF768FFAD
:102820000028FBD1BDE8F88F540000202C030020C5
:1028300070B50C4605464FF48E71FFF744FA216AD5
:10284000A068415C206A401C2062C5F81C1570BD60
:102850001FB500228DF8002002918168019142612C
:10286000D0E90012684690471FBD1FB500228DF8C1
:1028700000200291816801914261D0E9001268460E
:1028800090471FBD1FB50A4601788DF800104168BA
:102890000191017A8DF80810C0680390044850F83F
:1028A0002210001F50F82220684690471FBD0000EC
:1028B00018000020014901200870704734000020F2
:1028C00010B588B0044620220E496846FDF72AFD5F
:1028D00006200090C01F0190029003904FF0EB7013
:1028E00006900CB1084A00E0002269460748FEF74E
:1028F00009FC08B1FEF70AF80448001F447008B04C
:1029000010BD0000AC2C0000B528000038000020ED
:102910002DE9FF470C4605464FF40071FFF7D9F942
:1029200001274FF40178002618B34FF492794946F5
:102930002846FFF7C3F9E0B149462846FFF7C3F937
:10294000C5F8088394F8290000B96F6002208DF85B
:102950000000D5F88004C5F880040390A0690290B7
:10296000E0680190A661E661D4E9001268469047EC
:1029700028E004212846FFF7ACF918B34FF484711E
:102980002846FFF79BF9E8B121462846FFF700FEED
:10299000616AA069884215D1E06938B1E268616A6C
:1029A000A0612069E6616662E06008E094F82900B1
:1029B00000B96F60C5F80883A661E268616A2046C5
:1029C000FFF7FFFD4FF48E7841462846FFF776F972
:1029D00080B16069216A814202D294F8280028B34C
:1029E00041462846FFF76FF9606918B161692046D2
:1029F000FFF72EFF4FF4A27841462846FFF75EF915
:102A0000002818D041462846FFF75DF994F82900C0
:102A100000B12F60A06900280DD0A661E268616A4C
:102A200004B02046BDE8F047FFF7CBBD214628465D
:102A3000FFF7FEFEDEE7BDE8FF8700001FB50A4690
:102A400001788DF8001041680191017A8DF8081025
:102A5000C0680390044850F82210001F50F822204C
:102A6000684690471FBD0000180000202DE9FF4177
:102A70000C464FF4927705463946FFF730F90026A9
:102A8000B8B139462846FFF72FF902208DF800002B
:102A9000D5F88004C5F880040390D5F83C05029071
:102AA000E0680190A661E661D4E9001268469047AB
:102AB00023E04FF4887739462846FFF710F9E0B154
:102AC00039462846FFF710F9D5F83C15A069884229
:102AD00013D1E06960B1E268D5F8000220F020006F
:102AE000C5F80002E069A0612069E661E06001E0EC
:102AF000A661E2682046FFF76FFD4FF4A2773946E2
:102B00002846FFF7ECF868B139462846FFF7ECF89D
:102B1000A06938B1A661E661D5F83C152046E268A7
:102B2000FFF75AFD4FF4907631462846FFF7D7F865
:102B300060B131462846FFF7D7F80120E8606069A8
:102B400020B1D5F84C152046FFF78FFE4FF4AC7638
:102B500031462846FFF7C3F800280ED031462846F4
:102B6000FFF7C2F86069002807D0D5F84C1504B00B
:102B70002046BDE8F041FFF778BEBDE8FF810000C8
:102B80002DE9F05F8346DDE90A4A994690460D46F5
:102B90000846012703E000BFB0FBF8F07F1C40456A
:102BA000FAD2B94500D94F465FEACA7012D18CB14A
:102BB0005FEA8A7002D5B9F1000F01D0202607E044
:102BC000302605E031465846641EFDF7DDFF0CB1A6
:102BD000A742F7D35FF00106B9F1010F02D9A9F1BD
:102BE000010903E0B5FBF6F0404502D306FB08F609
:102BF000F2E7DFF83C9000BFB5FBF6F000FB16559E
:102C000019F800105846FDF7BFFFB6FBF8F6002E86
:102C1000F2D15FEACA7009D0002C07D0A74205D2D2
:102C200020215846641EFDF7AFFFF5E7BDE8F09F91
:102C3000902C0000000000000000000000000000D8
:102C40000338FDD87047000000000000003000404D
:102C50000000000001000000FFFFFFFF06FF000072
:102C60000000004000000000111213140D0E0F10A0
:102C7000FFFFFFFF0006FF00000000400000000013
:102C80000000005071040000291F00009521000081
:102C90003031323334353637383941424344454692
:102CA0008D1600006116000059160000FFFFFFFF9F
:102CB000FFFFFFFFFFFFFFFFFFFFFFFF0000000020
:102CC000000000000000D601060100009402002070
:102CD0007F0000001403002000404040404040407E
:102CE00040404141414141404040404040404040DF
:102CF0004040404040404040400502020202020283
:102D000002020202020202020220202020202020D1
:102D100020202002020202020202909090909090E5
:102D200010101010101010101010101010101010A3
:102D30001010101002020202020288888888888817
:102D40000808080808080808080808080808080803
:102D5000080808080202020240000000D92C000006
:102D60007761726E696E6700646562756700000066
:102D70001B5B313B33306D001B5B306D000000008E
:102D80001B5B313B33316D001B5B313B33326D00DC
:102D90001B5B313B33336D001B5B313B33346D00C8
:102DA0001B5B313B33356D001B5B313B33366D00B4
:102DB0001B5B313B33376D00696E666F00000000AE
:102DC0006572726F720000004750494F5445000011
:102DD000505253005350494D000000005541525489
:102DE0000000000055415254450000006170705FC2
:102DF000627574746F6E00006170705F74696D65E8
:102E000072000000736F72746C69737400000000CC
:102E1000756172745F6C6F675F6261636B656E642E
:102E20000000000061707000B42E0000000000205F
:102E3000AC00000068080000602F0000AC0000201B
:102E4000A426000078080000A02C0000000000006C
:102E5000102E00004C000020C82D000000000000D3
:102E6000D02D000000000000D42D00000000000064
:102E7000DC2D000000000000E42D00000000000038
:102E8000EC2D000000000000F82D00000000000004
:102E9000042E000000000000242E000000000303A8
:102EA000600000205800002060000020D4010020B5
:102EB00018000000004E6F7264696300000000009B
:102EC0000000000000000000000000000000000002
:102ED00000000000000000000000000000000000F2
:102EE00000000000000000000000000000000000E2
:102EF0000020004000000000002000400000000012
:102F000000000000FF000000FF00000000000000C3
:102F100000000000000000000000000000000000B1
:102F20000000000000000000C02D0000602D000027
:102F3000B82D0000682D0000782D0000702D0000D5
:102F4000802D0000882D0000902D0000982D00009D
:102F5000A02D0000A82D0000B02D00000090D0038F
:0400000500000201F4
:00000001FF
