:020000040000FA
:1000000050200020150200001D0200001F02000009
:100010002102000023020000250200000000000071
:1000200000000000000000000000000027020000A7
:1000300029020000000000002B0200002D02000039
:100040002F0200002F0200002F0200002F020000EC
:100050002F0200002F0200005D0200002F020000AE
:100060002F0200002F0200002F0200002F020000CC
:100070002F0200002F0200002F0200002F020000BC
:100080002F0200002F0200002F0200002F020000AC
:100090002F0200002F0200002F0200002F0200009C
:1000A0002F0200002F0200002F0200002F0200008C
:1000B0002F0200002F0200000000000000000000DE
:1000C0002F0200002F0200002F0200002F0200006C
:1000D0002F0200002F0200002F020000000000008D
:1000E0000000000000000000000000000000000010
:1000F0000000000000000000000000000000000000
:1001000000000000000000000000000000000000EF
:1001100000000000000000000000000000000000DF
:1001200000000000000000000000000000000000CF
:1001300000000000000000000000000000000000BF
:1001400000000000000000000000000000000000AF
:10015000000000000000000000000000000000009F
:10016000000000000000000000000000000000008F
:10017000000000000000000000000000000000007F
:10018000000000000000000000000000000000006F
:10019000000000000000000000000000000000005F
:1001A000000000000000000000000000000000004F
:1001B000000000000000000000000000000000003F
:1001C000000000000000000000000000000000002F
:1001D000000000000000000000000000000000001F
:1001E000000000000000000000000000000000000F
:1001F00000000000000000000000000000000000FF
:10020000DFF80CD000F018F800480047990700000C
:10021000502000200648804706480047FEE7FEE7DA
:10022000FEE7FEE7FEE7FEE7FEE7FEE7FEE7FEE7A6
:100230001D03000001020000064C074D06E0E068C7
:1002400040F0010394E8070098471034AC42F6D31D
:10025000FFF7DAFF740C0000940C00002DE9F8435E
:100260000025DFF8B0804FF4807601242F460095FA
:10027000304600F013FB38B1D8F80403204203D015
:10028000304600F001FB2543361D64007F1CB6B2EA
:10029000082FEDD34FF4BE77384600F0FFFA48B18F
:1002A000384600F0F1FA45F000456A460121002089
:1002B00000F0C4FA15F0FF0F16D0012600242E42DC
:1002C0000ED008EB8401D1F81005D1F81015C0F359
:1002D0000420114AC1F3014152F8242002B1904791
:1002E0007600641C082CEAD3002D02DA684600F080
:1002F0005FFC384600F0C8FA4FF0A040D0F8100577
:10030000800B10F0010F03D003210E2000F084FABF
:10031000BDE8F8830060004004000020F0B5D34A37
:10032000D3494FF080541368D4F830010978D4F8D9
:100330003421451CC1F3031107D08446164601271A
:100340000025BCF1060F04D013E003F0FF0C0E46AD
:10035000F5E7032E05D0042E03D0052E01D0062E7E
:1003600007D1B4F82463DFF80CC3C6F30426CCF835
:100370000060DEB2062E06D1032904D1DFF8FCC2EC
:10038000BD4ECCF87460461C06D084464FEA020687
:10039000BCF1060F04D013E003F0FF0C0E46F7E7A4
:1003A000032E05D0042E03D0052E01D0062E07D132
:1003B000D4F84462DFF8C8C2C6F34236CCF8006015
:1003C000DEB2062E08D1032906D1AE4ED6F800C003
:1003D0002CF0807CC6F800C0461C05D0844616462A
:1003E000BCF1060F04D014E003F0FF0C0E46F7E753
:1003F000032E05D0042E03D0052E01D0062E08D1E1
:100400004FF08046C6F80C51C6F810519C4E361F6E
:100410003560DEB2062E08D1032906D1DFF860C2AE
:1004200003260CF1640CCCF80060DEB2062E11D16C
:1004300003290FD1DFF850C20526CCF80060924E98
:1004400078363760904E083635600CF1040C3F2644
:10045000CCF80060461C05D084461646BCF1060F59
:1004600004D087E003F0FF0C0E46F7E7032E7CD0A4
:10047000042E7FD0052E01D0062E7BD1834E366808
:10048000DFF80CC2CCF80060804E361D36680CF1E7
:10049000040CCCF800607D4E083636680CF1040C74
:1004A000CCF80060794E0C3636680CF1040CCCF8B0
:1004B0000060764E103636680CF1040CCCF8006003
:1004C000724E143636680CF1040CCCF800606F4E96
:1004D00018363668DFF8B8C10CF1200CCCF8006093
:1004E0006A4E1C3636680CF1040CCCF80060674E7E
:1004F000203636680CF1040CCCF80060634E2436CC
:1005000036680CF1040CCCF80060604E2836366872
:100510000CF1040CCCF800605C4E2C3636680CF103
:10052000040CCCF80060594E30363668DFF860C1F4
:100530000CF1400CCCF80060544E343636680CF1A7
:10054000040CCCF80060514E383636680CF1040CBF
:10055000CCF800604D4E3C3636680CF1040CCCF8FB
:1005600000604A4E4036366800E003E00CF1040CAF
:10057000CCF80060461C05D084461646BCF1060F38
:1005800004D011E003F0FF0C0E46F7E7032E05D070
:10059000042E03D0052E01D0062E05D1D4F85842E2
:1005A0003C4E04F04F043460441C04D00346114612
:1005B000062B02D010E0DBB2FAE7032905D00429AC
:1005C00003D0052901D0062906D133490B68DB0782
:1005D00002D06FF001030B6006280CD1032A0AD069
:1005E000042A08D0052A06D0062A04D12B4801681F
:1005F00041F48061016023487438016841F470015E
:100600000160BFF34F8FBFF36F8F4FF01021D1F810
:100610000002002803DBD1F80402002822DA204A75
:10062000176020480368002BFCD01523C1F8003266
:100630000468002CFCD0C1F8043201680029FCD009
:10064000156001680029FCD0BFF34F8F0D48F038CA
:100650000168154A01F4E06111430160BFF34F8F57
:1006600000BFFDE7124911480860F0BDE00F00F03F
:10067000E80F00F0403501400DF0ADBA00C0074072
:100680003C050040FCED00E0105600400404001062
:1006900020C50040E40E0040000400403C1700402C
:1006A00004E5014000E401400400FA050090D00395
:1006B0000000002002E008C8121F08C1002AFAD179
:1006C00070477047002001E001C1121F002AFBD1D2
:1006D0007047000072B609480068C00700D000BE2D
:1006E000BFF34F8F0548E4380168054A01F4E06123
:1006F00011430160BFF34F8F00BFFDE7F0ED00E055
:100700000400FA050EB500210091CDE901106A46FA
:1007100044F20100FFF7DEFF0EBD000005494FF077
:10072000FF32082841F8202002D3084480F83C20FA
:100730007047000004000020F0B54FF0FF3512B103
:100740000023082601E0082309260C4C05E000BF21
:1007500054F823707F1C04D05B1CB342F8D32846A6
:10076000F0BD26185DB286F8245044F82310002A04
:10077000F5D1E11881F83C00F1E700000400002009
:100780000249084490F9240070470000040000204A
:10079000112000F0D9B900001CB500F03DF908B1F6
:1007A000FFF7B0FF0D4C01A920680190112000F067
:1007B0006DF908B1FFF7A6FF6068009003208DF87F
:1007C0000100074A6946102000F0C0F808B1FFF7A1
:1007D00099FF0121102000F069F8FEE7680C000085
:1007E00091070000C20800F007030120895C9840CF
:1007F0000840704770B541EA4201DDE904564FF008
:10080000A04441EA830141EA052104EB800041EA6A
:100810000641C0F8001770BD4FF0A04202EB800007
:10082000D0F8002722F44032C0F80027D0F8002783
:1008300042EA0141C0F800177047000038B5094B83
:1008400044181B6800936B4608E000BF53F8201063
:10085000D1F8205520C2C1F82055401C8442F5D85B
:1008600038BD0000700C000042094FF0000100D1BB
:10087000491E00F01F00012282400A4201D00120DF
:100880007047002070470000034908B50844002164
:1008900001600068009008BD0060004002494058B7
:1008A000012800D000207047006000402DE9F04191
:1008B0000E46054600F064F90028284619D0FFF7D7
:1008C0005FFF083800F0C8F9032802D001280ED0D5
:1008D00007E04FF0A040D0F81005E84010F0010FFD
:1008E00005D003212846BDE8F041FFF795BF02215E
:1008F000F8E700F051F9002822D02846FFF740FF22
:1009000004464FF4807000EB84000E4F81B207EB79
:100910008400D0F8102542F00102C0F810250846E6
:10092000FFF7B2FF002E0BD02846FFF729FF06493C
:1009300051F82000002803D00120A040C7F804038C
:10094000BDE8F08100600040040000202DE9FC417A
:10095000DFF8B880044608EB0400002790F9240073
:100960001346C0170E46401C01D008274AE0B07855
:100970001946C0F340022046FFF7DEFE0546401C44
:100980003FD0B078410717D4C0070AD04FF0A0403D
:1009900000EB8400D0F8001721F00201C0F8001726
:1009A00007E000217378204600910A460191FFF785
:1009B00021FF204600F0D6F8B078800718D51448FB
:1009C000317800EB8500D0F81025124B1A40C0F8A2
:1009D00010254FF4F8524FF4403302EA042203EAA0
:1009E00001410A43D0F810150A43C0F8102509E068
:1009F00008EB0500327810F83C1F41EA82110170C3
:100A000000E004273846BDE8FC8100000400002017
:100A100000600040FFE0FCFF70B5194D95F84900FB
:100A200008B1082070BD0024661E2046FFF71CFF99
:100A300010B1281980F82460641CE4B2202CF4D38F
:100A400000242046FFF76AFE641CE4B2092CF8D3A8
:100A500000200D4945F8450F0A4CC02081F80004DC
:100A600001264020891FC1F800014FF4BE70FFF736
:100A70000BFFA004C4F804032E71002070BD000019
:100A8000040000200060004006E000E02DE9FC4189
:100A900004462A480F462044002590F92410491C9A
:100AA00001D0082544E0B978002651B30122002185
:100AB0002046FFF741FE411C21D0830020483A78B0
:100AC00018447978D0F81035DFF878C003EA0C03C1
:100AD000C0F81035D0F810354FF4F85C0CEA042C4F
:100AE00043EA0C034FF4403C0CEA02424FF4801CF2
:100AF0000CEA01510A431343C0F8103504E0042501
:100B000016E0FE2180F824107A780120A0404FF0F2
:100B1000A041012A0FD0C1F80C0501222046009601
:100B2000002311460196FFF765FE204600F01AF8F3
:100B30002846BDE8FC81C1F80805EEE70400002066
:100B400000600040FFE0ECFF4FF0A042D2F8043517
:100B50000121814021EA0300C2F808051940C2F8CA
:100B60000C15704710B50549C20800F00703885CF2
:100B700001249C402043885410BD000049000020FF
:100B80000449084490F92400082801DB012070473B
:100B900000207047040000200449084490F9240014
:100BA000082801D20120704700207047040000206F
:100BB0002DE9F05FDFF89C8006464FF0A0494FF02A
:100BC000010A98F9440000274546401C37D095F8A3
:100BD0004400314620F0C0042046FFF703FE08B36E
:100BE000384600F039F8834609EB8400D0F8000756
:100BF000C0F30147022F16D002212046FFF70CFE5A
:100C00000AFA04F1C9F820152046FFF7B9FD55F896
:100C100020203AB15846BBF1030F0DD0022F04D06B
:100C2000032F06D00BE00321E7E7BBF1010F03D050
:100C300005E0BBF1020F02D1014620469047324643
:100C400001210020FFF7FAFD30680028B9D1BDE886
:100C5000F09F0000040000200249084490F844007E
:100C6000800970470400002001000000030002001A
:100C700000000050940C0000000000200400000060
:100C8000B4060000980C0000040000204C20000076
:080C9000C40600000090D0032F
:0400000500000201F4
:00000001FF
