:020000040002F8
:1060000010560020C1630200C9630200CB63020086
:10601000CD630200CF630200D163020000000000E4
:10602000000000000000000000000000D363020038
:10603000D563020000000000D7630200D9630200AC
:1060400061660200DB630200616B0200C966020048
:10605000DB630200DB630200A1650200DB63020078
:10606000DB630200DB630200DB630200DB63020030
:10607000DB630200DB630200DB630200DB63020020
:10608000DB630200B9660200DB630200DB6302002F
:10609000DB630200DB630200B1670200DB63020026
:1060A000DB630200DB630200DB630200DB630200F0
:1060B000DB630200DB630200000000000000000060
:1060C000DB630200DB630200DB630200DB630200D0
:1060D000DB630200DB630200DB6302000000000000
:1060E00000000000000000000000000000000000B0
:1060F00000000000000000000000000000000000A0
:10610000000000000000000000000000000000008F
:10611000000000000000000000000000000000007F
:10612000000000000000000000000000000000006F
:10613000000000000000000000000000000000005F
:10614000000000000000000000000000000000004F
:10615000000000000000000000000000000000003F
:10616000000000000000000000000000000000002F
:10617000000000000000000000000000000000001F
:10618000000000000000000000000000000000000F
:1061900000000000000000000000000000000000FF
:1061A00000000000000000000000000000000000EF
:1061B00000000000000000000000000000000000DF
:1061C00000000000000000000000000000000000CF
:1061D00000000000000000000000000000000000BF
:1061E00000000000000000000000000000000000AF
:1061F000000000000000000000000000000000009F
:10620000DFF80CD000F07AF900480047E1A6020060
:106210001056002030B450E8012F93B2C4892344B3
:106220008489A34228BF1B1B0489A34202BFBFF37A
:106230002F8F002007E0C3EA020340E80134002C5E
:10624000E9D14FF001000A6030BC704750E8012FDF
:10625000C2EA024240E801210029F7D1704730B478
:1062600050E8022F1FFAA2F3C488A34202BFBFF373
:106270002F8F00200DE0C48923448489A34228BFC6
:106280001B1BC2EA034340E80234002CE8D14FF064
:1062900001000A6030BC704750E8022FC2EA224277
:1062A00040E802210029F7D17047034653E8022F46
:1062B000D988B2EB324F4FF0000017BF92B241EADB
:1062C000014142EA014104E05A68B2EB324F08BF93
:1062D000012043E80212002AE8D1704730B4044696
:1062E00054E8000F0D4644E80053002BF8D1156028
:1062F00030BC704730B4044654E8000F40EA010552
:1063000044E80053002BF7D1156030BC704730B41F
:10631000044654E8000F00EA010544E80053002B4E
:10632000F7D1156030BC704730B4044654E8000F14
:1063300080EA010544E80053002BF7D1156030BC1A
:10634000704730B4044654E8000F00EB010544E800
:106350000053002BF7D1156030BC704730B40446B1
:1063600054E8000FA0EB010544E80053002BF7D1DF
:10637000156030BC704770B404464FF0000054E81C
:10638000006F0D68AE4207BF44E80023012044E8D7
:1063900000630E60002B1CBF0020F0E770BC70474C
:1063A00030B4044654E8000F88422CBF451A054615
:1063B00044E80053002BF5D1156030BC7047000055
:1063C0000648804706480047FEE7FEE7FEE7FEE78F
:1063D000FEE7FEE7FEE7FEE7FEE7FEE7C96702002D
:1063E000016202002DE9F05F0546002092469B46BF
:1063F00088460646814640241BE0284641464746DB
:10640000224600F06BF853465A46C01A914110D309
:1064100011461846224600F016F82D1A67EB0108BF
:106420004F4622460120002100F00DF817EB00092D
:106430004E41201EA4F10104DFDC484631462A46C5
:106440004346BDE8F09F202A04DB203A00FA02F11F
:10645000002070479140C2F1200320FA03F3194352
:1064600090407047004870472413030040EA01033E
:106470009B0703D009E008C9121F08C0042AFAD2FA
:1064800003E011F8013B00F8013B521EF9D27047BE
:10649000D2B201E000F8012B491EFBD27047002266
:1064A000F6E710B513460A4604461946FFF7F0FF13
:1064B000204610BD421C10F8011B0029FBD1801A98
:1064C000704730B504460020034600E05B1C934251
:1064D00003D2E05CCD5C401BF8D030BD202A04DB49
:1064E000203A21FA02F00021704721FA02F3D0404D
:1064F000C2F120029140084319467047064C074DEF
:1065000006E0E06840F0010394E807009847103483
:10651000AC42F6D3FFF778FED8280300F828030032
:1065200070B58C1810F8015B15F0070301D110F855
:10653000013B2A1106D110F8012B03E010F8016B82
:1065400001F8016B5B1EF9D12B0705D40023521E05
:106550000DD401F8013BFAE710F8013BCB1A921C6D
:1065600003E013F8015B01F8015B521EF9D5A1426B
:10657000D8D3002070BD10B5142005F0C5F9002156
:10658000BDE81040142005F017BA0000024A0121AE
:10659000024800F0F3BC0000450203006C12030047
:1065A0002DE9F8430025DFF8B0804FF48076012410
:1065B0002F460095304605F015FA38B1D8F8040397
:1065C000204203D0304605F003FA2543361D64000F
:1065D0007F1CB6B2082FEDD34FF4BE77384605F0D6
:1065E00001FA48B1384605F0F3F945F000456A462E
:1065F0000121002005F0A2F915F0FF0F16D00126A9
:1066000000242E420ED008EB8401D1F81005D1F8F9
:106610001015C0F30420114AC1F3014152F824209F
:1066200002B190477600641C082CEAD3002D02DAF0
:10663000684608F0E1F9384605F0CAF94FF0A04085
:10664000D0F81005800B10F0010F03D003210E20AD
:1066500005F062F9BDE8F88300600040FC2C0020E2
:1066600070B54FF48076304604F0B4FC114CB5059B
:1066700060B1304604F0B5FC0120C5F8080360792C
:1066800020B9012060712168002088474FF482768C
:10669000304604F09FFC00280AD0304604F0A1FCEC
:1066A0000220C5F808032168BDE8704001200847B2
:1066B00070BD00004423002002490248091F0968F8
:1066C0000068084798230020F8B51248124E044687
:1066D0004FF48C7105F0A5FF00281AD00025C4F8EE
:1066E0001851D4F818010090F07F3446FF2806D0E6
:1066F000A17F11B105F038F901E005F04BF965779C
:106700002572D4E9002101B004F10800BDE8F04091
:106710001047F8BD00300040A82D00201FB5134AD7
:106720000023D2E90401D269CDE9000111208DF8DE
:10673000020012208DF80100142003928DF8000051
:1067400000208DF80C004FF08060029004208DF83E
:106750000400074A6946054804F086FC08B100F0C9
:10676000FBFB04490320C1F800071FBD70120300A2
:10677000F5FE02004C0000501FB50B4C03460020F4
:1067800020700093CDE90121039208480022694658
:1067900006F0CCF918B100F0DFFB00E020BF207854
:1067A0000028FBD01FBD00005824002074120300F5
:1067B00005F0A2BE034800224FF40041006800F03B
:1067C00017BC00006C120300F0B5D34AD3494FF058
:1067D00080541368D4F830010978D4F83421451C6A
:1067E000C1F3031107D08446164601270025BCF1EA
:1067F000060F04D013E003F0FF0C0E46F5E7032E5E
:1068000005D0042E03D0052E01D0062E07D1B4F8F2
:106810002463DFF80CC3C6F30426CCF80060DEB2B4
:10682000062E06D1032904D1DFF8FCC2BD4ECCF8F8
:106830007460461C06D084464FEA0206BCF1060F7F
:1068400004D013E003F0FF0C0E46F7E7032E05D04B
:10685000042E03D0052E01D0062E07D1D4F84462B1
:10686000DFF8C8C2C6F34236CCF80060DEB2062EAE
:1068700008D1032906D1AE4ED6F800C02CF0807C9A
:10688000C6F800C0461C05D084461646BCF1060F6B
:1068900004D014E003F0FF0C0E46F7E7032E05D0FA
:1068A000042E03D0052E01D0062E08D14FF08046CD
:1068B000C6F80C51C6F810519C4E361F3560DEB23A
:1068C000062E08D1032906D1DFF860C203260CF199
:1068D000640CCCF80060DEB2062E11D103290FD172
:1068E000DFF850C20526CCF80060924E783637604B
:1068F000904E083635600CF1040C3F26CCF8006051
:10690000461C05D084461646BCF1060F04D087E02D
:1069100003F0FF0C0E46F7E7032E7CD0042E7FD049
:10692000052E01D0062E7BD1834E3668DFF80CC2CF
:10693000CCF80060804E361D36680CF1040CCCF8A3
:1069400000607D4E083636680CF1040CCCF800600F
:10695000794E0C3636680CF1040CCCF80060764E9B
:10696000103636680CF1040CCCF80060724E143608
:1069700036680CF1040CCCF800606F4E183636689F
:10698000DFF8B8C10CF1200CCCF800606A4E1C3660
:1069900036680CF1040CCCF80060674E203636687F
:1069A0000CF1040CCCF80060634E243636680CF110
:1069B000040CCCF80060604E283636680CF1040CEC
:1069C000CCF800605C4E2C3636680CF1040CCCF828
:1069D0000060594E30363668DFF860C10CF1400C6B
:1069E000CCF80060544E343636680CF1040CCCF808
:1069F0000060514E383636680CF1040CCCF800605B
:106A00004D4E3C3636680CF1040CCCF800604A4E12
:106A10004036366800E003E00CF1040CCCF800606E
:106A2000461C05D084461646BCF1060F04D011E082
:106A300003F0FF0C0E46F7E7032E05D0042E03D01B
:106A4000052E01D0062E05D1D4F858423C4E04F054
:106A50004F043460441C04D003461146062B02D078
:106A600010E0DBB2FAE7032905D0042903D0052999
:106A700001D0062906D133490B68DB0702D06FF03D
:106A800001030B6006280CD1032A0AD0042A08D07F
:106A9000052A06D0062A04D12B48016841F48061FA
:106AA000016023487438016841F470010160BFF34C
:106AB0004F8FBFF36F8F4FF01021D1F800020028E5
:106AC00003DBD1F80402002822DA204A17602048AC
:106AD0000368002BFCD01523C1F800320468002C99
:106AE000FCD0C1F8043201680029FCD015600168AF
:106AF0000029FCD0BFF34F8F0D48F0380168154ACC
:106B000001F4E06111430160BFF34F8F00BFFDE767
:106B1000124911480860F0BDE00F00F0E80F00F0E6
:106B2000403501400DF0ADBA00C007403C050040C3
:106B3000FCED00E0105600400404001020C50040A9
:106B4000E40E0040000400403C17004004E5014012
:106B500000E401400400FA050090D0035C2400200A
:106B600001480068004700004C23002002E008C8EC
:106B7000121F08C1002AFAD170477047002001E0B7
:106B800001C1121F002AFBD17047000001212028FB
:106B900003DA81400548014003E0402802DA20384A
:106BA000814009B10120704700207047FC06FFBDFD
:106BB0002DE9F843804643F2020659B9694607F0C9
:106BC00025F9B04202D008B100F0C6F99DF80000E6
:106BD000800744D40021404607F022F905003ED04A
:106BE000112D3CD01F482049401AC708022000EB55
:106BF00007440D2D0AD00B2D1DD0B5421FD11B49C6
:106C000020464246BDE8F84305F0F2B82046424629
:106C1000174905F0EDF81321404676DF00281ED015
:106C200005F020FD024601B020464346BDE8F04392
:106C300010A105F0E4B8204642461C49E2E7284688
:106C400005F010FD0246012000EB0740434618A165
:106C500005F0D5F82846BDE8F84300F07DB9BDE859
:106C6000F88300004029030008290300A81A030044
:106C7000341A030073645F626C655F6761705F6400
:106C80006973636F6E6E656374282920726574750D
:106C9000726E6564202573206F6E20636F6E6E5F69
:106CA00068616E646C652025642E0000F41A030090
:106CB000417373657274696E672E20706D5F636FC8
:106CC0006E6E5F73656375726528292072657475D1
:106CD000726E6564202573206F6E20636F6E6E5F29
:106CE00068616E646C652025642E000010B560B18B
:106CF00059B102780B785208B2EB530F05D1062236
:106D0000401C491CFFF7DDFB08B1002010BD01202D
:106D100010BD800701D00020704701207047C36874
:106D20008B4206D811440069491E814201D80120D6
:106D300070470020704790F82400012801D01F20E0
:106D40007047EE20704710B501220221002001F0AB
:106D500013FA08B1072810D107220221012001F0FF
:106D60000BFA08B1072808D100210A22084601F0D1
:106D700003FA08B1072800D1002010BD10B560B19A
:106D80000B480C49401AC008032101EB00400AA13E
:106D900005F02AF807F0C0FD03E003210A4800F0DF
:106DA00092FC002803D0BDE8104000F0D5B810BD1B
:106DB000B829030008290300457261736520626FDA
:106DC0006E647321000000009424002070B58CB024
:106DD00015460E4600236C46C3F10F01415CE15499
:106DE0005B1C102BF8D30D2104F11000FFF757FBAB
:106DF0000020C0F10F02315C2244401C11740328B2
:106E0000F7D3684646DF0020C0F10F01214491F816
:106E100020102954401C0328F6D30CB070BD02206A
:106E200001F076B80149C97800F010BE182300209F
:106E300070B50024064D06E06868012110F83400A2
:106E400005F084FC641C28788442F5D3002070BDD2
:106E500058230020F8B516460C4605460A2A01D2EA
:106E60000720F8BD05F06CFD18B905F02FFD0028CE
:106E7000F7D1134F102113487D603C70BE60FFF7BF
:106E80000EFB0020C7E904000F4E0DE005EBC40027
:106E90003168009181788DF8011000780B4A6946BD
:106EA00005F0A4FC0028DCD1641EE4B2EED2BDE8FB
:106EB000F84005480021064A001D00F05FB80000B8
:106EC00058230020082E0020500F0300619A020072
:106ED0008D89020072B605F031F800BF04F068FE3B
:106EE0000028FBD111481249401AC408012000EBC8
:106EF000044010A104F078FF11480068C00700D0DA
:106F000000BE022000EB04400EA104F06DFFBFF3B1
:106F10004F8F0B48E43801680E4A01F4E0611143D9
:106F20000160BFF34F8F00BFFDE70000B8290300E9
:106F300008290300466174616C206572726F7200EB
:106F4000F0ED00E053797374656D207265736574BC
:106F5000000000000400FA050EB500210091CDE903
:106F600001106A4644F20100FFF7B4FF0EBD0000B5
:106F7000014801F072BD0000782300203AB100689A
:106F80000129426100D000210161002070470720E3
:106F90007047000038B51148082358224168009115
:106FA0000F49006803F0C1FD002815D10D4A69465C
:106FB0000D4801F057FD04000ED101210A4801F0EF
:106FC000CCFD0123094A1946074801F01EFD064978
:106FD000012008390870204638BD0000580F030012
:106FE000282E0020D9F0020078230020FFFF7F0028
:106FF00070B50446007F0D4608B1002070BDA26147
:1070000002F014FD401941F10001C4E902012069B8
:1070100000B125612146BDE87040002009F0EAB8C2
:10702000014600200877012009F0E4B830B5EFF3FD
:10703000108172B60D4A9468012324B103700029AF
:1070400000D162B630BD93604FF0E023D3F8805199
:10705000074C25401560C3F88041D3F88441546043
:107060005A17C3F8842100220270E8E7802E00201E
:10707000FC06FFBD0B498A68002A11D000280FD1F9
:10708000EFF3108072B60B684FF0E022C2F80031C7
:107090004B68C2F8043100228A60002800D162B631
:1070A00070470000802E00202DE9F0410646086858
:1070B0000C46411C4FF0A0474FF0010506D005FAE1
:1070C00000F1C7F80815206804F000FC6068411C56
:1070D00002D0002104F0E8FB3168A069C1F8240562
:1070E000607D227D31681043C1F86C05D4E900123F
:1070F0003068C0F81425C0F80C15207D012815D182
:10710000A068411C02D0002104F0CEFBE068411CC5
:1071100005D08540C7F80855E06804F0D7FBD4E9EE
:1071200002123068C0F80825C0F81015BDE8F081DB
:107130002DE9F041064608680C46411C4FF0A04777
:107140004FF0010506D005FA00F1C7F808152068D0
:1071500004F0C6FB6068411C02D0002104F0ADFBC6
:107160003168A069C1F82405607D217D326808433B
:10717000C2F86C05D4E900123068C0F80C15C0F8EC
:107180001425207D012815D1A068411C02D00021C2
:1071900004F093FBE068411C05D08540C7F8085512
:1071A000E06804F09DFBD4E902123068C0F80825BD
:1071B000C0F81015BDE8F08103F05EB92DE9F04785
:1071C000814605884A484FF000088AB00178424657
:1071D000284600F053FC99F80500400701D400212F
:1071E00076E005F58077B8B205AB0122072106F0FD
:1071F00063FA04003F48404A4FF00101A0EB02004F
:107200004FEAD00001EB00460AD0204605F02AFAEA
:10721000024630462B46394904F0F1FD214629E06B
:10722000284602F0BDFE4FF6FF71044688422BD17E
:107230008A46069802F01EFE0446504510D00146CC
:10724000284602F08DFE2846FFF7ECFDE0B92846FF
:1072500008F0F8F92846FFF7E5FD0028BFD013E055
:1072600006F000FC0446504508D1304624A104F045
:10727000BBFD0421284608F013FAB0E70146284672
:1072800002F06EFE4FF00108B8B22246072106F068
:107290008BFA07001BD0862F1ED005F0E3F90246BB
:1072A00030462B462349009404F0B1FD3946284668
:1072B00008F0F6F90021484606F0F6F8B8F1000F9C
:1072C00002D0204602F056FE0AB0BDE8F087012148
:1072D000484606F0E9F8F7E7142217496846FFF731
:1072E000C5F8ADF80250684601F058FEEFE700001F
:1072F000182300204829030008290300F01D03007B
:10730000436F756C64206E6F7420616C6C6F636189
:107310007465206E657720706565725F69642066AC
:107320006F7220696E636F6D696E6720626F6E6445
:107330002E0000000C1F0300DC0E03002DE9FC47AB
:10734000002517880646158090F82D0014468946BA
:1073500030B13A462146484600F0B6FB051E09D139
:10736000B0784FF00C0A18B32088C846001DB84208
:1073700002D95046BDE8FC87684679DF0028F9D17C
:107380002088032108F8001020881921401C80B2B1
:10739000208008F800102088401C80B2208000EB7C
:1073A0000801BDF8000009F018F921880844208080
:1073B000F0780222C8B1218896F9033001F1030C5C
:1073C0004846BC45D5D8425421884FF0010C491C91
:1073D00089B2218000F801C02188491C89B221802E
:1073E00009F801302088401C20807068B8B12188DD
:1073F00090F9003001F1030C4846BC45B9D842541D
:1074000021880A22491C89B2218042542188491CC2
:1074100089B2218009F801302088401C2080308901
:1074200050B1CDE900474B460622022106F1080083
:1074300009F0C2F9051E9DD1308A50B1CDE900474F
:107440004B460722032106F1100009F0B5F9051E8D
:1074500090D1308B50B1CDE900474B461522142115
:1074600006F1180009F0A8F9051E83D1306A30B181
:107470003B462246494601F03CF9051EDBD1706AC5
:1074800030B13B462246494603F02AFA051ED2D1C6
:1074900096F82C0038B13B4622464946304608F063
:1074A0003BFA051EC7D1307838B13B4622464946E3
:1074B000304603F0A3FA051EBDD128465AE718B599
:1074C00004460020ADF8000013466A46204600F04E
:1074D00006F8002802D0BDF80000204418BD70B5A1
:1074E000E0B1DAB1002402E0045D2C44A4B2651CD2
:1074F0008D4206D21688A642F6D8061976789E42A4
:10750000F2D18C420AD2A31C005D9BB200B1401E96
:107510000004000C02D01C188C4201D9002070BD60
:10752000138070BD80F8301070472DE9F0410D00D8
:10753000044606D02CB195F87A000026012803D025
:1075400006E00E20BDE8F08195F89800012829D0CA
:10755000D5F8A000042825D0D5F89C00042821D017
:107560004FF00108A6702C2205F17801201DFEF7CE
:107570007DFF84F83060D5F8A4006063D5F8A800DA
:10758000A0634FF6FF70A4F8240404F58260C4F8E9
:107590002004C4F82664A4F82A6484F82C642078B3
:1075A00010B104E00720CDE7FF2084F8540004F177
:1075B00055072046C4F81074FFF7BDFBA4F8140467
:1075C00004F2144239462846FFF7B8FE0028B9D124
:1075D00004F23120C4F818042046FFF7ACFBA4F8ED
:1075E0001C0404F21C4205F13C00D4F81814FFF707
:1075F000A5FE0028A6D184F85180208BA4F848006D
:1076000084F83C80266484F85060606900216064DE
:10761000454604F13C02781E72DF002892D12570A5
:1076200090E710B50288102A1BD0112A20D0262AF4
:107630001DD1007A0C46012801D0022817D1A0786C
:107640000521401CB0FBF1F201FB1201204600F0C5
:107650003AF800280BD0A16B002908D0BDE81040F3
:107660000847C27B012A02D18088A1F8240410BDFA
:107670000C46002184F82E148088B4F82414884223
:10768000F5D120790028F2D10121DFE710B50446B9
:1076900090F8540074DF012084F82E04002084F850
:1076A000300484F850000621204601F0B0FE002886
:1076B00008D1A178204600F006F810B1A16B01B105
:1076C0008847002010BD2DE9F05F044600780F4682
:1076D00098B1A7700025C4F82654A4F82A5484F859
:1076E0002C54A079012608B1012F09D0E07980B18E
:1076F000012F05D0022F03D00BE00820BDE8F09F3A
:10770000616B21B184F82D640820884701E084F87A
:107710002D5404F2274100200A5C0AB1304603E0F0
:10772000401C0628F8D300204FF002084FF0030B4E
:10773000012F06D0022F0CD0032F0FD0042F15D10C
:1077400010E0A17929B194F8241011B908B130469C
:107750000DE0E17911B108B1404608E0207A08B1A6
:10776000584604E0607A08B1042000E02846A07082
:10777000616B41B1032801D0042804D1607910B1B4
:1077800094F82E0498B184F82F5404F13C00182189
:107790000746FEF784FE84F83C6004F12C0006F0F6
:1077A00093FA58B194F82C0084F8510008E084F85A
:1077B000305484F82F6407208847E6E784F8516046
:1077C00094F8240058B104F1280006F07DFA20B1A5
:1077D00094F8280084F8520001E084F8526084F89C
:1077E0005050A27804F2264104F582694FF0060A4F
:1077F000052A64D2DFE802F07C030F22420084F8FD
:107800003160C4F82054C4E9101584F83C8080200D
:10781000A4F8480055E084F8318094F824203846D4
:1078200012B10722027001E080F800B0228A828142
:10783000C4F820544160E168B96042E06069B86012
:10784000208BB88194F824003D460028204602D0C1
:1078500084F83CA001E084F83C6008F079FF50B166
:1078600085F814800421204601F0D1FD38BB0521A4
:1078700084F8311021E084F831B01EE0E069B8608E
:10788000208CB88194F824003D460028204602D080
:1078900084F83CA001E084F83C6008F059FF48B14E
:1078A00085F814800421204601F0B1FD38B984F830
:1078B00031A002E0042084F83100C4F82094A078BC
:1078C00078B13A4604F15400D4F8201472DF00284D
:1078D0007FF414AF94F8301094F8540073DF00284C
:1078E000F6D1616B11B194F831008847002005E7AB
:1078F00084F83150F5E7000070B5040012D001465D
:107900001C221448FEF7B2FD1248134D0560206892
:1079100050B17ADF002806D12068016829604068EC
:10792000686005E00E2070BD0B487BDF0028FAD1AF
:1079300008484FF6FF711438084A20F8041B05491F
:10794000343901600021FFF719FB0028EBD0032038
:1079500070BD00006C29002070220020E9060300A1
:1079600010B5044600F0A6F8002805D02146BDE871
:107970001040024803F058B910BD000098290020BB
:1079800070B515460E46044608F0EEFE002809D0F4
:10799000054800EB8400C0692A463146BDE87040C6
:1079A00001F062BD70BD00008829002010B50446BA
:1079B00000F080F8002805D02146BDE810400248BC
:1079C00003F032B910BD0000A029002010B5044614
:1079D00000F070F8002805D02146BDE810400248AC
:1079E00003F022B910BD00009C29002070B50546A7
:1079F000002400F05FF838B12946044803F014F978
:107A000008B1022400E00124204670BD9429002022
:107A100070B50546002400F04DF838B129460448F9
:107A200003F002F908B1022400E00124204670BDF1
:107A30009029002010B51821034803F0D0F8182829
:107A400000D0C0B210BD00008829002070B50546E6
:107A50000C46084608F088FE60B1284600F02AF877
:107A600040B10548294600EB8400BDE870401C3059
:107A700003F0DAB8002070BD8829002070B50546F3
:107A800016460C46084608F06FFE00280ED0284621
:107A900000F010F8002809D00548324600EB8400B9
:107AA0002946BDE870401C3001F0ACBC70BD000040
:107AB00088290020142801D300207047014601487E
:107AC00003F0B2B88C2900207CB5054608880C4626
:107AD0000930904201D90C207CBD68466DDF00283A
:107AE000FAD121880820685420881B21401C80B2CC
:107AF000208029542088401C80B220802844DDF852
:107B000001100160BDF8051081802088801D80B2C1
:107B100020809DF80010490800D0012129542088B8
:107B2000401C208000207CBD38B5018804462129F6
:107B300030D012DC1E481F4A1029A0EB02004FEA89
:107B4000D0004FF0030202EB00400ED011292AD1E1
:107B5000BDE8384018A104F047B93B2924D0562984
:107B600021D18088132176DF0EE017A104F03CF9C3
:107B7000072000F01FFB08B1FFF7EEF91548A188B8
:107B80000180154803F0AEF900280CD0BDE838405C
:107B9000FFF7E2B900200090A08869468FDF002837
:107BA00001D0FFF7D9F938BD8088132176DFEBE7E4
:107BB000B829030008290300446973636F6E6E657A
:107BC000637465642E000000436F6E6E65637465B8
:107BD000642E0000502200208824002010B51A4C8A
:107BE0000188606810290ED011292BD1401E6060D9
:107BF00028D1FFF7A8F8002824D02168002921D037
:107C0000BDE810400847D0B900210122084600F025
:107C1000B3FA08B107280FD107220221012000F092
:107C2000ABFA08B1072807D104220221002000F096
:107C3000A3FA20B1072802D0216801B18847606803
:107C4000401C606010BD0000682200202DE9F04754
:107C500001883B4E40F2F3194FF6FF7510291BD0F7
:107C600011293ED0122954D0502946D1C188F28919
:107C7000841D914241D1618902293ED186883046D6
:107C800002F03CFA050038D004F10C0000F0FCF8DA
:107C9000A8B3294630464EE0C17B878804460129B7
:107CA0002BD1A846284602F029FA050017D02F80CC
:107CB00000202872234843464A460168C5F80A1046
:107CC0004068C5F80E0004F1100105F10A0002F049
:107CD000D9FA6872F08900280FD129462AE00420D9
:107CE00013E0808802F00AFA040006D06068FFF70B
:107CF00097F908B107F0B8FC2580BDE8F087FFE7E9
:107D00006868FFF78DF90028F7D0BDE8F04707F065
:107D1000ABBC87880646384602F0F0F90400ECD088
:107D20002B464A4606F1080104F10A0002F0AAFABD
:107D3000607221463846BDE8F04700F021BD0000E2
:107D40006C290020702200202DE9F04F044686881F
:107D50000188424897B0834610290CD0112950D091
:107D6000103019296AD01A2974D1217A0C09042CEF
:107D70004DD301224CE0394D083DA868C0430B901B
:107D800069680BA802F074FF0B990CA800F092FC34
:107D90002C220CA96846FEF769FB0027E946A84695
:107DA00010E000BF09EB47005FF00005B0F804A049
:107DB00008EB85005146001D02F0F6FE6D1C1E2DDD
:107DC000F6D37F1C0098B842ECD8142E05D317B018
:107DD0000420BDE8F04FFFF7BFB83146584602F027
:107DE0002EFF314608F1040002F029FFE07B022853
:107DF00030D117B03146BDE8F04F1848001D02F0F1
:107E00001EBF17B03146BDE8F04F02F0CDBE0022D4
:107E1000314601F0F7FA032C01D3012200E00022E1
:107E20000E4831460C3001F0EDFA022C01D301224C
:107E300000E0002209483146083006E0217A002996
:107E400008D1617AC1F3C002314617B0BDE8F04FE6
:107E500001F0D8BA17B0BDE8F08F000090290020DB
:107E600010B504460748007800280AD0204601F0E3
:107E700073FF204607F0A8FD2046BDE8104001F042
:107E800011BC10BDA8220020007800F0010070474E
:107E90000149085C70470000740D03000649095C45
:107EA0004FF0A040D0F81005C84010F0010000D0FD
:107EB000012080F001007047740D03002DE9FC41A2
:107EC0000646C0074FF000050ED0104F00240122D7
:107ED000385D009500231146019503F079FC641C80
:107EE000042CF4D300F046F8B0070DD5074E00245B
:107EF000361D0022305D032300951146019503F0E5
:107F000067FC641C042CF4D3BDE8FC81700D0300F5
:107F100007490B5C4FF0A041D1F80425012098409F
:107F200020EA0203C1F808351040C1F80C0570477B
:107F3000700D03000249085C012103F032BD00000E
:107F4000700D03000249085C002103F02ABD000007
:107F5000700D03000649095C4FF0A040D0F80405FD
:107F6000C84010F0010000D0012080F001007047EF
:107F7000700D030010B500242046FFF7DBFF641CE2
:107F8000042CF9D310BD10B500242046FFF7DAFF0A
:107F9000641C042CF9D310BD10B50246064B4FF0FB
:107FA000FF3000215C5C944201D1084610BD491CA1
:107FB0000429F7D310BD0000740D030070B50C4EFA
:107FC0000C004FF0000530600BD0012000F06AF883
:107FD00008B1022004E0002000F064F800B10B209A
:107FE0002070706810B9FEF7AEFE0546284670BDD9
:107FF0006822002010B5002000F016FA08B106280B
:1080000006D1012000F010FA08B1062800D10020A6
:1080100010BD00002DE9F0470D468146FFF7BCFF7B
:108020000446042836D2DFF874801B481C4EA8F1A1
:108030000C0725B3012D0ED0022D2BD104EB4400EB
:1080400030444578002D25D0B968002922D0284633
:10805000BDE8F047084704EB4401755C0E447178B5
:1080600049B10E4A4FF48041093A8068FEF7C0FFDB
:1080700008B987F80390B17808F80410E2E780683F
:10808000FEF7CEFF04EB4401314418F804008D786C
:10809000A842D7D0BDE8F087780D03006422002005
:1080A00008290020042801D2FFF7F8BE00207047FD
:1080B00001461B481B4A10B5801AC008032202EB78
:1080C00000400F2915D00BDC17480429008814D074
:1080D00007291BD00A2922D1BDE8104007F060BC57
:1080E000102908D011291AD110A1BDE8104003F0C1
:1080F0007BBE14A1F9E719A1F7E7132176DF0CE0A5
:1081000000280CD0BDE81040FEF726BFA0F57F4147
:10811000FF3904D11748FFF7B9FA0828F0D110BD8C
:10812000B8290300082903005022002054656D700F
:108130006C617465204750494F5F495251335F432A
:10814000502E000054656D706C6174652047504975
:108150004F5F495251315F43502E000054656D709E
:108160006C617465204750494F5F495251325F43FB
:10817000502E00009424002030B5002304280DD296
:10818000012A02D100F10E02D2B2094D00EB4004E7
:10819000601951B1012904D0022904D007231846DF
:1081A00030BD2A55FBE74270F9E78270F7E700001F
:1081B00008290020044A014600201279D20702D083
:1081C000084600F04DB870475822002070B50646AA
:1081D0001E480024C0E90161B00720D50025012216
:1081E00011462846FFF7C8FF6D1C0446042D02D235
:1081F000002CF4D013E094B940F233320421144837
:10820000FEF728FE04000AD1FEF712FE040006D194
:108210000F48104A0021001FFEF7B0FE0446F00789
:1082200012D00120FFF74AFE74B909480A4A00211A
:108230000C38FEF7A3FE040006D10548074A0121C9
:108240000838FEF79BFE0446204670BD58220020E9
:10825000840D03003585020019A302001F6E020081
:108260002DE9F05F6E4C054600266078B34618B1E4
:1082700084F801B002F038F86A4F4FF47A694FF48D
:10828000C87A4FF00108182D69D2DFE805F00C1309
:1082900013384754696E727B727BC58484848484EE
:1082A000B3B6B9BCC5C502F01FF83868FEF7B8FE12
:1082B00006465CE00020FFF74DFE00284FF000006E
:1082C00008D0FFF737FE022D02D14FF4E16008E03D
:1082D000484606E0FFF736FE022D01D1C82000E037
:1082E0005046410CC0034FF47A72801841F10001EE
:1082F000257052000023FEF775F801462AE00020A1
:10830000FFF728FE00284FF0000004D0FFF712FE10
:108310004FF44870E5E7FFF715FEDFE70020FFF7B1
:1083200019FE00284FF0000002D0FFF703FECFE750
:10833000FFF708FED4E70020FFF70CFE00284FF0FF
:10834000000002D0FFF7F6FD01E0FFF7FBFD25700E
:1083500040F6CD4100223868FEF74AFE064646E068
:108360000020FFF7D5FD257008E0002051E02570C2
:108370003DE084F801800120FFF7CAFD002240F2B1
:108380006661E8E784F801800120FFF7C1FD002263
:108390004FF40051DFE77868FEF742FE0646D5F15C
:1083A000110000D02EB10220FFF7C4FD84F802B006
:1083B0001DE0012816D980B2C8214843C117C9035E
:1083C00041EA5041C0034FF47A72801841F1000134
:1083D00052000023FEF706F8014600227868FEF7F7
:1083E00007FE06460220FFF7ADFD84F80280304606
:1083F000BDE8F09F01F078FFB9E701F075FFB4E741
:1084000001F072FF04E001F06FFF0020FFF79AFD1A
:108410000120FFF797FDAAE7FFF7B5FDA7E70000EA
:1084200058220020780D0300012108F02CBA00002A
:108430002DE9F84F0546861C00208DF80000914676
:108440000F464FF0010A6846FEF7F0FD1B4C04F2A0
:108450001C4860683860D4E90101194F401A396836
:10846000081A0EE00121404602F0FCFB02F0E6F89B
:108470000146404602F0F6FBD4E90101401A396892
:10848000081A401C8642EDD8B9F1000F03D0052030
:1084900065F3891002E0062065F39F5061683A6831
:1084A000114004EB8101C8606068304460609DF851
:1084B0000000FEF7DFFD5046BDE8F88FD031002008
:1084C0000024002070B50D4604460A2902D10D2172
:1084D000FFF7F8FFA0682268411CA1601554D4E999
:1084E0000101814204D32046BDE8704002F035BE50
:1084F00070BD0000044881684068814201D10120BC
:108500007047002070470000D0310020034630B58E
:10851000074800210478426806E000BF02EBC10072
:1085200005789D4203D0491CA142F7DB002030BDF5
:108530005823002000780221FFF76CBD1CB50446CB
:1085400001F02EFD00236A46092105F0F7F9052800
:1085500005D10348012241792046FFF78FFA1CBD5F
:10856000782200201CB504460020009042F6A62088
:10857000ADF8000001208DF80200084801AA694604
:10858000006801902046A0DF002805D104480122A0
:1085900081792046FFF772FA1CBD0000A40D03008C
:1085A0007822002005494FF0FF32082841F82020AA
:1085B00002D3084480F8482070470000FC2C0020BB
:1085C000F0B54FF0FF3512B10023082601E0082373
:1085D0000C260C4C05E000BF54F823707F1C04D01F
:1085E0005B1CB342F8D32846F0BD26185DB286F86E
:1085F000305044F82310002AF5D1E11881F84800E2
:10860000F1E70000FC2C00200249084490F93000FA
:1086100070470000FC2C002070B504464FF6FF7533
:108620000A462846AC4209D14FF4807421461046D0
:1086300002F0D5FA80B2A0420BD070BDFF2CFCD85E
:108640002146104602F0BBFA90F0010F01D02046FF
:1086500070BD284670BD000070B5084C050009D0FB
:1086600010342168002907D008682060496828462E
:108670008847F6E70834F4E770BD0000E82C0020D6
:10868000054A012120B1012805D19170FFF7E4BF0F
:1086900051700020FAE77047E82C002010B5D0E9AF
:1086A0000234D1E90220D11AA04101D3012010BD2A
:1086B000002010BD73B58CB00646002000900D98C8
:1086C00080B100246D4621460DA802F0ADFA30B10C
:1086D000009805EB400084800098401C0090641CCA
:1086E000142CF0D32C2269463046FDF7BFFE0EB0A5
:1086F00070BD2DE9F04117880646B81D14460D4699
:10870000984202D90C20BDE8F08131880722062961
:108710000AD34FF4486C4FF6FF73614501D9994273
:1087200002D17088062801D21046ECE7604501D9D5
:108730009842F9D1994203D0984201D08142F3D8AE
:108740000520E85520881221401C80B22080295441
:108750002088401C80B220804119308807F03DFFFE
:108760002188084480B220804119708807F035FFC5
:108770002188084420800020C5E7FEF7EDBB0000FB
:1087800038B54A7A0F4B62B100220A725969002942
:1087900006D001228DF80020ADF802006846884717
:1087A00038BD0A7A62B19B684C6802461946204679
:1087B000FEF71EFC0028F3D0BDE8384006F054BF99
:1087C0005B68F1E76C290020F0B585B016460F46CE
:1087D00004461D4614220B496846FDF747FE0A4829
:1087E0008DF80870ADF80240ADF80A608DF80C50B5
:1087F000017800222046FFF741F9684600F0CEFBE1
:1088000005B0F0BDF00E030018230020FEF7D0B92C
:1088100070B588B00646002005900690ADF814109B
:10882000ADF816100190029001AA05A9304690DF1C
:10883000050021D003F016FF0346114811493246C6
:10884000401AC108012000EB014004460E4903F024
:10885000D6FABDF8042012B9BDF8060028B1BDF85B
:108860000630204609A103F0CAFABDF808201AB163
:108870002046164903F0BCFA08B0284670BD000037
:1088800020290300082903006816030054686520A6
:108890007265717565737465642054582F52582041
:1088A0007061636B6574206C656E677468206973B2
:1088B00020746F6F206C6F6E672062792025752F92
:1088C0002575206F63746574732E0000B416030061
:1088D00070B504460948012102F0DFF9BFF35F8F4C
:1088E0000025002808D1204601F022FE002803D1EF
:1088F000BFF35F8F0148056070BD00008422002037
:108900002DE9FF410C4620B14FF4064004B0BDE80C
:10891000F0812079002748F2096538B141F61D56EB
:1089200001281BD0022826D0681DEFE70220207105
:1089300002970397E0680190694601A806F0E2FA01
:1089400050B102988188E18000882081BDF8001034
:10895000029806F055FBD9E72846D7E70A4B6A4646
:108960000021A01D06F086FA38B1074918398F6139
:10897000CF61A842CAD13046C8E703488188019830
:1089800006F03EFBF5E70000B823002070B5002498
:108990000F4D10E0686800EBC406307803F08CFFE0
:1089A0007178012901D0012100E000214140307897
:1089B00000F048FA641C28788442EBDBD5E9040116
:1089C000084303D0BDE8704007F030BC70BD000024
:1089D0005823002010B50021024802F05EF980F310
:1089E000100010BDEC3500204FF480328A40016841
:1089F000C1F848230068C0F8082370474FF4A072FC
:108A000002EB810189B200F08DBA2DE9F0410546F3
:108A10000E464FF4A07000EB860081B228684FF438
:108A20008034B440984622F07F47C0F80843286855
:108A3000C0F84843286803F0A5FB286800EB8600CF
:108A4000C0F840752868C0F84443B8F1000F02D060
:108A50002868C0F80443BDE8F0810068D0F8040538
:108A60007047000070B54379234C44F823204279C5
:108A7000231D03EBC202224C1579204A121BD40895
:108A80002DB10825022000EB04401EA130E005684E
:108A90000A88C5F8082590F904208978002A4FEA49
:108AA000411104DB02F1E02282F8001405E002F03B
:108AB0000F0202F1E02282F8141D90F90410012245
:108AC000002909DB01F01F0502FA05F549098900B3
:108AD00001F1E021C1F800514179002503EBC1010A
:108AE0000A71417943F83100032000EB04400EA1E4
:108AF00003F07AF9284670BD9423002098290300DA
:108B00000829030052544320696E7374616E6365D3
:108B100020616C726561647920696E697469616C49
:108B2000697A65642E0000005254433A20696E69E8
:108B30007469616C697A65642E00000090F9040024
:108B4000002809DB00F01F0201219140400980004C
:108B500000F1E020C0F8001270470A46022100F040
:108B600067B94FF4827100F0DDB90068012101603E
:108B7000704700680121416070472DE9F05F0746AA
:108B80000C464FF4A07000EB84001FFA80FA38689E
:108B90004FF48036A6409B4622F07F45C0F84863DC
:108BA0003868C0F808633868D0F8048500EB8402A0
:108BB000D2F84095C2F840855146386803F0E2FA91
:108BC000A9EB080020F07F40012806D1102003F017
:108BD000B5FD5146386803F0D5FA3868D0F80485F9
:108BE000C0F84463A5EB080121F07F4138680129F2
:108BF00000EB840010D0C0F840553868D0F8041558
:108C00006FF07F4C6A1A521E22F07F42ACEB0B03CE
:108C1000934217D362B118E06D1CC0F84055102084
:108C200003F08CFD3868D0F8040540450AD10CE00B
:108C300000EB84006D1CC0F840553868D0F804057E
:108C4000884202D00D20BDE8F09F0122314638460F
:108C500000F0EEF80020F6E713460A460021FFF781
:108C6000B3BD00002DE9F843104D0F4680461E4667
:108C700091466946286801F06BFF040014D01C215E
:108C8000FDF70DFC01202071C4F81490380BC4F8D6
:108C90000080C4E902606946286801F07AFF06F0A6
:108CA00053F80020BDE8F8830420FBE70010030020
:108CB00010B503780022072B06D2DFE803F0050485
:108CC0000610202930000A7010BD01230B700389A3
:108CD0008B818388CB81C06888600A7410BD0222B2
:108CE0000A7002898A818288CA81C2688A60807D0E
:108CF000062802D00020087410BD0120FBE70322E3
:108D00000A70C2888A810289CA81C068886010BDE1
:108D100004230B70C0888881CA818A6010BD052039
:108D2000087010BD70B5064D0646002455F8241095
:108D300009B130468847641C042CF7D370BD00008D
:108D4000A82E002030B50446006887B00D46806824
:108D500000281FD018216846FDF7A1FB0195A068E7
:108D60000590207910B1012810D107E001208DF87D
:108D7000000020690290E068039005E002208DF871
:108D80000000E06800030290606904902068816838
:108D90006846884707B030BDF0B585B017460C006F
:108DA00005463AD0112C38D0082C36D01C481D4925
:108DB000401AC6080D2C11D0204603F053FC024681
:108DC000012000EB06402B46174903F018F82A460D
:108DD0000721684601F070FE02941BE0022000EBC0
:108DE00006402A46114903F003F82A460321684643
:108DF00001F062FE27B13878C00701D0012000E001
:108E000002208DF8080000208DF80C0041F20110BE
:108E1000ADF80A00684600F0CFF805B0F0BD0000DC
:108E20005029030008290300D8200300C81F0300AD
:108E30000368C3F84413002A02D00068C0F8041382
:108E4000704700002DE9F84F0E463449804601EB8B
:108E50005001C007097801D00F0901E001F00F07A8
:108E60004FF00009424601204946FDF7ECFADFF8D1
:108E7000B0A004460D46052F4ED2DFE807F00316DA
:108E80001B282C00002E47D00121404607F0B2F8E5
:108E90008DF800906846FEF7C9F85046D0E90412F4
:108EA0000C431543CAE9044532E00EB1022114E037
:108EB000002112E04EB10321404607F09BF84046E6
:108EC000BDE8F84F012107F067BC012105E0002E45
:108ED00022D1042101E02EB103214046BDE8F84F24
:108EE00007F088B80021404607F084F8002140468A
:108EF00007F052FC8DF800906846FEF797F8504650
:108F0000E243D0E904341A4024EA0501CAE9042105
:108F10009DF80000FEF7AEF8BDE8F88F082E00209F
:108F20005823002010B5006842581AB103F02AF9FE
:108F3000012010BD002010BD10B50446408801F08E
:108F40002FF8A080024801682046BDE8104008477D
:108F50008022002010B50446808800F06BFF6080FE
:108F6000024801682046BDE81040084790220020D2
:108F70002DE9F04107460024064E074D05E000BFED
:108F800056F8241038468847641CE8788442F7DB9A
:108F9000BDE8F0819C2C0020A822002010B50446DA
:108FA000408800F0FDFFA080024801682046BDE82F
:108FB00010400847B00E0300014909680847000047
:108FC0002C0F030070B586B0044614216846FDF7E7
:108FD00066FAA0890125A0F54040ADF8040020788C
:108FE0002F4E062833D2DFE800F0320303032C4A69
:108FF000A08900F0EBF930B9E08943F6FE71A0F5E5
:109000004040884223D8A07B8DF8080020780328B0
:109010000FD000208DF80900A0680390606850B15F
:1090200009208DF8000060680490684604F0D8FBC1
:109030000DE00120EEE708208DF800008DF81050BB
:10904000F3E7A08900F0C2F908B1E08930B1707887
:10905000002801D004F018FD06B070BD606830B182
:109060000B208DF80000606802907570DDE70A2023
:109070008DF80000BDF8040004F0AAFDF5E7606873
:1090800048B114208DF80000606802904FF6FF7020
:10909000ADF80400C9E713208DF80000F6E70000E2
:1090A0009422002038B504460F480078B0B1A4F5EA
:1090B0007F40FF380FD0684605F076FD88B1052166
:1090C000017001210171C480684605F07BFD05F047
:1090D0002DFE002038BD48F2036038BD48F2016023
:1090E00038BD48F2076038BDC02300200D4808B5E0
:1090F000007888B1684605F057FD80B106210170FF
:10910000684605F05FFD0848017809B10121017347
:1091100005F00CFE002008BD48F2016008BD48F2D1
:10912000076008BDC02300206C2F0020F0B587B079
:1091300014216846FDF7B3F9304C207818B1684621
:10914000FFF7F0FD57E0201D01F089FD98BB40F6C8
:10915000F8700168481C02D14FF0102041694FF0AF
:109160008050026940694B1C01D100FB02F1244888
:1091700000220161A1F54051C160224902F082F94B
:10918000002823D121481C238C221F49006801F0AC
:10919000CCFC04F0B1F8050016D0022D14D0002745
:1091A0000126062D14D005A805F0FEFC98B1067026
:1091B0000C2D1BD200E01EE0DFE805F0181018109F
:1091C000181718171812141248F20A6007B0F0BDE9
:1091D00026706760B3E748F20760F7E7077105E0BC
:1091E000032100E00221017100E0067105A805F0ED
:1091F000E9FC05F09BFD0020E8E70000C02300200B
:109200006024002010100300B82E0020780F030007
:1092100038B5040014D0694605F074FEB0B1BDF84D
:10922000000000EB80010B4800EB8100C16851B1E8
:10923000A17A41B1C168491EC1600020A07238BD49
:1092400048F2046038BD48F2056038BD48F2096054
:1092500038BD0000442F00201FB501A9684605F065
:1092600009FE04B010BD07B513460A466946002042
:1092700005F000FE0EBD07B513460A4600216846FC
:1092800005F0F8FD0EBD20B119B10068086000209E
:10929000704748F204607047F8B50D46040018D0D6
:1092A000BDB1694605F02EFEB0B1BDF800000C4915
:1092B00000EB800001EB800001210C30666801F0BA
:1092C000D1FC2E6060680C3068600120A072002024
:1092D000F8BD48F20460F8BD48F20960F8BD00002E
:1092E000442F002018B10323002207F00FBC48F2DE
:1092F000046070470223002207F008BC094910B53A
:109300000A69042A0AD0084A096942F82100054876
:109310000121103001F0A6FC002010BD48F20B60C6
:1093200010BD0000A0230020A82E00202DE9F84F3A
:10933000044624480078D8B1F4B112212046FDF744
:10934000AEF80320DFF880902080002504F110089B
:1093500004F10E0A05EB850109EB8106308971895C
:10936000084487B2706803F051FF032807D009E072
:1093700048F20160BDE8F88F48F20460FAE72088FF
:10938000401E20806088F1680844608020897189CF
:1093900008442081608938446081C7F58060A189D4
:1093A00080B2814200D2A0815346A21D211D2846D1
:1093B000CDF8008005F042FE6D1CADB2022DC9D380
:1093C0000020D7E7C0230020442F002043F6FE7181
:1093D000A0F54040884201D8012070470020704726
:1093E00010B504460078182802D1FEF723FB207040
:1093F00010BD10B504460078182802D1FEF71AFBFC
:10940000207010BD0AB101F01ABC01F0CDBB70B5DF
:109410000D460446B0F81414D0F810040122FEF7EB
:109420004EF800B1057004F13C0204F5826104F1CC
:10943000540072DF70BD000070B51346002205466F
:10944000112900D10122074C33B12179FEF716FB17
:1094500000226178284600E06178BDE87040FEF7A0
:109460000DBB000020230020F7B517460E0011D0D9
:109470000098002560B100242146684601F0D4FB25
:1094800018B1A0B23946B0476D1C641C142CF3D33C
:109490002846FEBD0020FEBD406805F0A5BB0000CB
:1094A00070B510B14FF4064070BD1C4C0025207BF8
:1094B00008B1257301E000F0A5F8207808282AD229
:1094C000DFE800F02904080C10291422BDE87040E0
:1094D00000F026B8BDE8704000F082B8BDE87040EA
:1094E00000F064B8BDE8704000F040B8062020707D
:1094F00060880A4900EB8000283901EB8000406851
:10950000BDE8704003F0D8BE072020706560BDE85C
:10951000704003F0DFBE48F20E6070BD6C2F00207B
:109520001149F0B48A1C00200346A1F128050C184B
:10953000A67A4EB1A37200EB800405EB8404E668C2
:1095400016B9247C012C0AD0401C80B20228EED32C
:109550000B704B804B60F0BC41F61D507047108083
:10956000F0BC00F03DB800006C2F00200C48418892
:1095700001EB8102A0F1280101EB8201CA6852B11E
:109580000521017007480221818001680023012222
:10959000054801F0DBBE042202704968F6E70000CE
:1095A0006C2F0020C82300206024002038B50A4911
:1095B000084803240B684268898803EB81015388BB
:1095C0000470DB1C00201B0400909B0B034802F07E
:1095D00011F838BD6C2F0020C82300206024002023
:1095E000074910B54888091D05F0DCFC18B1BDE835
:1095F0001040FFF7DBBFBDE81040FFF7B7BF00002A
:109600006C2F002070B5194C0121207808281AD23F
:10961000DFE800F00419191C252929182089134AAC
:10962000401C2081002060802073283A00EB8003DA
:1096300012F8233043B100232518401C80B2AB72CE
:109640000228F3D3217070BD0123F5E76068084953
:1096500040888A88C01C10448880022004E000F002
:1096600009F8062000E00720207070BD6C2F002054
:10967000C82300200A4909484988026801EB810390
:109680000749283901EB83014B6803604A608288EF
:109690000A8102228280002008747047C8230020BB
:1096A0006C2F00202DE9F043064680883288DFF8D1
:1096B0005C8185B00746502A37D010DC5449554BA1
:1096C00006F10A05A1EB03014FEAD1014FF00203B5
:1096D00003EB0144352A3AD0362A07D168E0522AF2
:1096E00002D0542AF9D102E000F0C6FE82E0142232
:1096F00049496846FCF7BAFEADF80270384600F0FA
:109700004FFCADF8040000F0C9F90022444698F877
:1097100004103846FEF7B2F90022E1783846FEF729
:10972000ADF96846FFF708FC64E0307B012861D1A1
:10973000B07A01285ED13089A0F52451023959D17F
:109740000121384600F0ECFE06F0B6FF52E098F832
:109750000610FEF77BF900284CD0002298F806107E
:109760003846FEF78BF9F288B2F5857F17D012B133
:1097700020462AA10BE02A88012A03D0204636A1E0
:1097800002F036FB6A88012A04D0204641A102F08B
:109790002FFB04E0A98800223846A1DF08B1002190
:1097A00025E0012298F807103846FEF767F921E016
:1097B0004FF0000998F80710FEF748F9D0B10022E1
:1097C00098F807103846FEF759F9F28812B120468A
:1097D00012A104E0AA88012A04D020462DA102F09B
:1097E00007FB03E0A87900B10120814649463846CD
:1097F00006F062FC0022364998F80200FEF7C0F835
:1098000005B0BDE8F04305F07FBF000078220020DE
:109810000829030008290300FC0D0300556E657834
:109820007065637465642047415454207374617497
:109830007573207768696C652067657474696E67F5
:109840002043415220636861722076616C75653AED
:1098500020307825780000004D756C7469706C6557
:109860002028256429204341522063686172616386
:1098700074657269737469637320666F756E642CA6
:10988000207573696E6720746865206669727374E9
:109890002E000000556E6578706563746564204322
:1098A000415220636861726163746572697374699F
:1098B000632076616C7565206C656E67746820281E
:1098C0002564292C2073746F726520302E000000EF
:1098D000B971020070B504460078002814D1608880
:1098E00000F0CAFD6588284600F09AF928B10748BB
:1098F0000122C1782846FEF7C1F86088FEF71EFEF7
:10990000BDE8704006F0D8BE70BD0000782200208F
:1099100070B5204C00252570FEF78CF86070FEF7BE
:1099200089F8A070FEF786F8E070FEF783F82071E2
:10993000FEF780F86071FEF77DF8A071FEF77AF807
:10994000E07162780121182A18D0A278182A15D05F
:10995000E278182A12D02279182A0FD06279182AB0
:109960000CD0A279182A09D0182807D004F10C00CD
:109970000560BFF35F8F2170002070BD0648074A65
:10998000801AC00801EB0040054902F02DFA0320BF
:1099900070BD000078220020082903000829030078
:1099A000281303007CB504460078082837D1607A74
:1099B00058BB207A1C4E4FF6FF75012811D007289E
:1099C00002D008282BD121E0A08800F033FA044609
:1099D000A84224D0012100F0A3FD2046FEF7AEFDF1
:1099E0001DE0A0886A46012103F01CFE68B90198B9
:1099F000007850B1A08800F01DFAA8420FD00122D3
:109A0000F178FEF73BF805F07FFE08E0F0680128EA
:109A100005D1BFF35F8F044900200C310860BDE819
:109A20007C4006F049BE00007822002010B50B48AB
:109A3000FFF713F8094A083AD2E90434C018D2E90A
:109A4000063244F10001C31A71EB020204D24FF056
:109A50008072801841F1000110BD000078230020C1
:109A600010B5C0B2FEF752FD0446007802F024FFA4
:109A700001466078012801D0012000E0002090EA32
:109A8000010F08D00449D1E90401084303D1BDE81E
:109A9000104006F0CBBB10BD582300201CB5054A72
:109AA000D2E90212CDE900120022694603F080FFDC
:109AB0001CBD0000140E030003484FF6FF718180A7
:109AC0000121017000207047882200202DE9FC410F
:109AD000804600F065FA002403250127A0F57F41A8
:109AE0002646FF3908D06A46082103F09BFD18B9C5
:109AF0000198841D8688056832462B4621464046DB
:109B0000B1DF042804D0082804D00B2808D002E0D4
:109B1000112000E00020002F00D10B20BDE8FC81C7
:109B20000027A80701D50125E6E7344303D0002428
:109B300026460325E0E7064806494246401AC00883
:109B4000012101EB0040044902F052F9E5E7000071
:109B50001029030008290300F01503002DE9FC413A
:109B6000804600F01DFAA0F57F410646FF390ED071
:109B700001252A466D1C0027ADB26B4608213046F0
:109B800003F09AFD040006D0072C33D033E043F2F3
:109B90000200BDE8FC81019903230A1D0B604046C9
:109BA000891DB2DF040004D00C2C09D0052C09D08B
:109BB00009E032460821104603F0F6FD04461AE09B
:109BC000012700E000240821304603F0E3FD70B1D6
:109BD00002F048FD0346094809493246401AC008C8
:109BE000012101EB0040074902F009F90324002F8D
:109BF000BFD100E00C242046CBE700001029030071
:109C0000082903007015030004488088A0F57F41EF
:109C1000FF3901D005F082BD704700008822002086
:109C20000EB502A9019100F0BBF96A46012103F0CB
:109C3000F9FC08B100200EBD019800780EBD0000AF
:109C40002DE9F04107464FF6FF761048B3DF78B1B3
:109C500002F008FD02460E480E49401AC0080121D4
:109C600001EB00400C4902F0C3F80320BDE8F0818D
:109C7000064C43F20305A41E324661883846AFDF26
:109C8000A842F3D16088401C6080F5E78A2200205A
:109C9000102903000829030024150300428800EB63
:109CA00082020C328A4201D9022070478188A1F5D4
:109CB0007F42FF3A06D0018821B18068401C01D064
:109CC0000020704701207047884204D20068401C81
:109CD00001D001207047002070473EB50278022372
:109CE0000C46B3EB520F17D1B0F80110ADF80010CD
:109CF000C1788DF802108188ADF8041080798DF854
:109D0000060002AA01A92046FDF760F8032202A975
:109D10006846FCF7D6FB08B100203EBD01203EBDE1
:109D200070B50D460446142810D2FDF7C3FE68B185
:109D3000084904EB840001EB4000D0F802102960D0
:109D4000C188A980007AA871002070BD43F202008A
:109D500070BD0000042A002070B5018890B0102961
:109D600061D1011D2C226846FCF780FB9DF80400A0
:109D70004FF6FF7603213446B1EB500F2BD003F0A2
:109D8000D5FD9DF804006D4640080ED001280CD08A
:109D9000022820D118E00D99281D1131FCF7A6FFEB
:109DA00018B100BFBDF82C4015E00CAA0BA9072084
:109DB00003F090FD0028EED10DE00D99281D491CFF
:109DC000FFF78BFF0028EDD10CAA0BA9072003F0A9
:109DD00081FD0028F1D1BDF80000B44200EB800104
:109DE000124820F8114000EB41000199C0F8021020
:109DF000BDF80810C1809DF80A10017213D0BDF89B
:109E00000000ADF82E000020ADF83040084E8DF86F
:109E10002C000BAD044600BF56F824102846884796
:109E2000641C022CF8D310B070BD0000042A00207E
:109E3000280E03002DE9F0414FF6FF760546B042AB
:109E400013D00B4F002400BF04EB840037F8100040
:109E5000A84206D12046FDF72DFE10B12046BDE8F0
:109E6000F081641CA4B2142CEED33046F7E7000056
:109E7000042A00203EB50C46054603F057FD0BE0D2
:109E8000BDF80000A04207D02846029900F00EF865
:109E900010B1BDF800003EBD01AA6946072003F0DD
:109EA00019FD0028ECD14FF6FF703EBD2DE9F041C1
:109EB0000C46054600F1110701F111061022491C5C
:109EC000401CFCF7FEFA48B9681C00F0FDF928B107
:109ED000601C00F0F9F908B1012400E000243146CB
:109EE0003846FCF703FF3B780222B2EB530F0CD04D
:109EF0000321B1EB530F08D03378B2EB530F04D0EA
:109F0000B1EB530F01D0012100E00021084201D143
:109F10008C4302D00120BDE8F0810020FBE70188DE
:109F200011B9421892780AB101207047491C0829DA
:109F3000F7D30020704710B50C460346FFF7EFFF3C
:109F400000280AD018882188884205D10822A11C3F
:109F5000981CFCF7B6FA08B1002010BD012010BD16
:109F6000142804D2024A00EB800022F81010704737
:109F7000042A002070B50546FFF75CFF044628461A
:109F800003F054FB002808D1142C06D2034B04EB39
:109F900084024FF6FF7123F8121070BD042A0020CE
:109FA00010B50446142808D2FDF784FD28B10449F1
:109FB00004EB840031F8100010BD4FF6FF7010BDA7
:109FC000042A00203EB5044603F0B0FC0EE00199DF
:109FD00020464631FFF7AFFF28B9019920462A31C4
:109FE000FFF7A9FF10B1BDF808003EBD6A4602A9FF
:109FF000072003F06FFC0028E9D14FF6FF703EBD4B
:10A0000010B50A4941600A4800F029FE58B902F02B
:10A0100085FA07491C238C22087404488C39001FD8
:10A02000006800F082FD002010BD00000410030055
:10A03000183000202DE9F0412D4F002520B17D6022
:10A040004FF40640BDE8F0810879012258B1294E4D
:10A0500001280CD0264C4FF002080834022820D0EA
:10A06000032841D127E00A7103F034F93AE00020D7
:10A0700000EB800116F82110022908D0401C80B2A4
:10A080000228F5D33A707D6041F61D50DAE700EB07
:10A09000800006F8205006EB8000406803F00CF9C1
:10A0A00020E00D71A4F804800023012212482168E9
:10A0B00001F04CF916E00D71206803F0FDF80D4930
:10A0C00023682831498801EB810206EB8201D1F82F
:10A0D00004C0C4F800C04B60A3880B81A4F80480BE
:10A0E00006F822500028ADD07D6048F20D60A9E747
:10A0F000C0230020442F0020602400200146034894
:10A1000002888A4200D000207047000058290020B1
:10A110002DE9FC5F0E008346DDE90C47C6F1000027
:10A1200098469246814600D40846012503E000BFC8
:10A1300090FBFAF06D1C5045FADAA84500D9454667
:10A1400024B1002E01DB780700D5641EB80702D5C4
:10A15000B8F1000F0AD0F80708D13CB1A54205D2EA
:10A1600020215846641EFEF7ADF9F6E7002E02DA0C
:10A170004E462D2102E0780703D52B215846FEF7E5
:10A18000A1F907F0030002280BD1B8F1000F08D1A4
:10A190003CB1A54205D230215846641EFEF792F923
:10A1A000F6E7CDE90047434652463146584606F0A9
:10A1B00029FABDE8FC9F000070B50D460446006812
:10A1C0004FF4887102F06EFA4FF49071206802F03B
:10A1D00069FA4FF49271206802F064FA4FF4A271A8
:10A1E000206802F05FFA4FF4AC71206802F05AFA6E
:10A1F00020681249C0F804132068690740F307304B
:10A20000090E002804DB00F1E02080F8001405E0CE
:10A2100000F00F0000F1E02080F8141D206840F3EA
:10A220000730002809DB00F01F020121914040099E
:10A23000800000F1E020C0F8001170BD1003420062
:10A24000024600201268530713D502F003000128CC
:10A2500002D002280CD105E0C2F383100B68801CE9
:10A26000184404E00223086803EB9252104408608B
:10A27000012070470248007A002800D00120704772
:10A2800018300020F0B58488A518944200D82246E2
:10A29000A41AC288D6189A4200D81346D21A4B88FC
:10A2A0000788BB420CD34088834209D88888A042E3
:10A2B00006D3A84204D8C888904201D3B04201D93D
:10A2C0000020F0BD0120F0BD0021425C0AB1012058
:10A2D0007047491C1029F8D300207047800701D02F
:10A2E00000207047012070470A4810B5807860B19F
:10A2F000002401E0022C06D02046FDF71BFE641C62
:10A30000042CF7D310BD0324F6E7BDE81040FDF799
:10A3100031BE00005822002003480179C90702D04D
:10A320000078FDF79DBF704758220020172101805B
:10A3300041800021017141711B218171C171704700
:10A340002DE9FE4F2E4F984692460D00814601D0D2
:10A3500000260DE0684600F0A5FB6A46002148464D
:10A3600003F0BCF83878009E10B99DF8090098B148
:10A3700052463146484605F0D5FC044601460022C7
:10A380004846FFF759F80D2C37D008DCA4B3082C49
:10A3900033D00B2C09D130E00520BDE8FE8F112C05
:10A3A0001ED0A4F54050023827D0204602F05AF9BA
:10A3B0000246144814494B46401AC008012101EBDB
:10A3C0000040124901F01BFD5FF00305B8F1000FDA
:10A3D00004D0324621464846FEF7DEFC2846DCE73C
:10A3E0002A46F9784846FDF749FB5246B97848466F
:10A3F000FDF744FB0025E9E7FFE72546E6E7000017
:10A400002023002050290300082903008020030096
:10A4100070B50E460C49154604460978FDF716FB43
:10A4200000280FD0204602F0FFFF00282A463146C0
:10A43000204603D0BDE8704002F0FCBFBDE870408C
:10A44000FEF70ABC70BD00001823002070B5094D4E
:10A450000646A978FDF7FAFA0446E9783046FDF792
:10A46000F5FA014622463046BDE870400123FFF769
:10A4700067BF000020230020F0B585B00546002707
:10A4800014216846FCF70BF8A5F57F40ADF80250A3
:10A49000FF3825D02846FFF719FB040022D01B48BF
:10A4A0001B49401AC6080B2C22D0112C1ED0A4F533
:10A4B000405002380ED0204602F0D4F80246012067
:10A4C00000EB06402B46134901F099FC2146284633
:10A4D00005F0D2F810483A4681782846FDF7CEFAC2
:10A4E00005B0F0BD0E208DF800000BE00127F1E76C
:10A4F0000F208DF80000022000EB06402A46074995
:10A5000001F076FC6846FEF717FDE3E70829030033
:10A5100008290300F8130300782200204C140300DC
:10A520000A4602494978FDF7A9BA000078220020BE
:10A530002DE9F041002786B080463E46FFF70EFB2E
:10A54000040022D0112C22D01B481C49401AC508F7
:10A55000862C1ED0A4F5405002380ED0204602F0C2
:10A5600081F80246012000EB0540434614A101F0AA
:10A5700046FC2146404605F07FF839464046FFF745
:10A58000CFFF06B03046BDE8F0810126F5E7012790
:10A59000F3E714221A496846FBF768FF0220ADF87A
:10A5A000028000EB0540424616A101F021FC6846FE
:10A5B000FEF7C2FCE1E700000829030008290300B8
:10A5C0006773636D5F6C6F63616C5F64625F63612F
:10A5D0006368655F757064617465282920726574AD
:10A5E00075726E656420257320666F7220636F6ECE
:10A5F0006E5F68616E646C653A202564000000003F
:10A60000D40D0300466C6173682066756C6C2E2057
:10A61000436F756C64206E6F742073746F72652065
:10A620006461746120666F7220636F6E6E5F686133
:10A630006E646C653A202564000000002DE9FF413E
:10A640000026244800F008FB2248001F074600F0BF
:10A6500003FB214C2149A06800900D6800E00098A0
:10A660006946284004EB80000C30FFF7E9FD002824
:10A67000F5D101AA009901EA050304EB8303491C03
:10A68000DB6842F82030401C00910228F2D3019888
:10A6900000F0030001280BD0022810D101980321FB
:10A6A00001EB90500099BDF80A6001EB900005E0C5
:10A6B0000198BDF80A60C0F3831008440090384642
:10A6C00000F0C7FA08B10098A06004B03046BDE8B9
:10A6D000F0810000E8350020D03100200024002067
:10A6E000ACB04FF48041002001F0FCFB08B1FCF756
:10A6F00033FC01F04FFAFCF74DFC08B1FCF72CFCE1
:10A70000FBF744FF62490320FDF760FD08B1FCF749
:10A7100023FC69460020FDF751FC08B1FCF71CFC46
:10A720009DF8000002287DD05FF00005FBF723FFB5
:10A73000FBF7F4FF01F0E0FC08B1FCF70DFC01F0C1
:10A74000A1FE08B1FCF708FC002469460120009432
:10A7500001F028FD08B1FCF7FFFB684601F0A2FDFF
:10A7600008B1FCF7F9FB9DF808004AA120F00F00A2
:10A77000401C20F0F00010308DF808000F2202A8D5
:10A780007CDF08B1FCF7E8FB00945020ADF8000036
:10A79000A0200194ADF80200ADF804404FF4C87059
:10A7A000ADF8060068467ADF08B1FCF7D5FB00215A
:10A7B0003C4800F0DDFA08B1FCF7CEFBAC2168465E
:10A7C000FBF76DFE02208DF8000001208DF80200DD
:10A7D0000621ADF810008DF87C008DF803104FF4C1
:10A7E000967031492290059144F2506023902F4891
:10A7F00029902C4869462030FCF797FE08B1FCF7F9
:10A80000ABFB284801212030FCF78CFE2848009043
:10A8100024486946143000F070FB08B1FCF79CFB3B
:10A820001C2100E031E06846FBF739FE4FF4A03010
:10A83000CDE900404FF4F02002901E480590032619
:10A840001D488DF80C600690ADF80E408DF8104054
:10A850006846FDF751F808B1FCF77EFB03F0FEF9FE
:10A8600016481749401AC00806EB004015A101F030
:10A87000BBFAFBF79FFF2846FCF780FA01F098F936
:10A880000028FBD101F04CFCF8E701254EE7000061
:10A89000B18002004E6F726469635F54656D706CC5
:10A8A00061746500742400205222002049D0020007
:10A8B00065C102009DD002007B870200B829030019
:10A8C0000829030054656D706C61746520657861BA
:10A8D0006D706C6520737461727465642E00000085
:10A8E00070B5144682880E4605462088111D014425
:10A8F000921C994201D8FE2A01D90C2070BD521C2D
:10A9000032542088FF21401C80B22080315420889E
:10A91000401C80B220808119288805F05EFE2188C5
:10A92000084480B22080AA8842B1A96841B130446D
:10A93000FBF79CFD2088A98808442080002070BD7A
:10A94000072070BD2DE9F047C5881E1DB6FBF5F741
:10A950008946B6FBF5F1044605FB176C407916688D
:10A960006843DDF820A0F718001F874200D9C61AF7
:10A97000166001E02468491E0029FBD1A5EB0C07F5
:10A980008846B74216D818E004EB0C00001D09EB0E
:10A990000803BAF1000F3A4602D00146184600E01B
:10A9A0001946FBF763FD2468F61B4FF0000CB84412
:10A9B000B54201D9374600E02F46002EE4D1BDE86C
:10A9C000F087000030B5024651B101F09FFA002136
:10A9D000074C08E034F821301568AB4202D1116011
:10A9E000002030BD491C8142F4D3052030BD000059
:10A9F00000000000BFF35F8F00F016B9F8B50F46F6
:10AA0000017814460546012901D1687830B12088C3
:10AA1000821C9A4232D8012902D006E00720F8BDF4
:10AA200069780144891C994228D8181A801E86B278
:10AA3000ADF800602188B81C084469467DDF002815
:10AA4000EDD12978022904D06878BDF80020904221
:10AA500005D3BDF80000B04201D809200AE0082063
:10AA6000012905D16978B14202D8ADF8001001E0A2
:10AA7000ADF80060BDF80010FE2901D90C20F8BD2A
:10AA80002288491CB9542188491C89B221807854F4
:10AA90002088401C2080BDF8001008442080002041
:10AAA000F8BD0000034A00219268C0E900218160DE
:10AAB000704700002023002070B586B00D46064682
:10AAC000144614216846FBF7EAFC8DF80050ADF8F7
:10AAD00002402046FFF764FAADF8040014226946EC
:10AAE0003046FBF7C3FC06B070BD70B54FF6FF757E
:10AAF0000E46A84201D1002000E0401C84B208E0CC
:10AB00002146304600F090F808B1204670BD641C24
:10AB1000A4B2FF2CF4D9284670BD10B5FBF7C5FBD5
:10AB200008B1002010BD112010BD10B531B1B2FB2D
:10AB3000F3F403FB14241CB1092010BD0E2010BD3A
:10AB400001600021416081608281C381084610BD9F
:10AB500070B50C460546FBF75DFB002802D0218846
:10AB60002868084470BD10B50A8849888A4203D114
:10AB7000FBF792FB012010BD002010BD70B50C4604
:10AB80000546FBF76CFB002802D061882868084462
:10AB900070BD10B50A8849888A4203D1FBF756FB7D
:10ABA000012010BD002010BD01F01F0301229A40BA
:10ABB000D243490900EB8100114600F059B80A461A
:10ABC00001F01F030121994010B552090C4600EB1A
:10ABD000820000F05DF8204000D0012010BD2DE97A
:10ABE000F04180460D460024481E012101EB50171C
:10ABF00016E058F82400C04390FAA0F0B0FA80F0B4
:10AC000020280CD200EB4416AE4208D23146404612
:10AC1000FFF7D5FF0028ECD13046BDE8F081641C79
:10AC2000A742E6D82846F8E74A0950F8220001F082
:10AC30001F0201219140084000D00120704701F01F
:10AC40001F0301229A40490900EB8100114600F0E0
:10AC500029B8002100F017B8012100F023B8012124
:10AC600000F016B808B56A46FBF76BFB009808BD04
:10AC700008B56A46FBF74BFB009808BD08B56A4665
:10AC8000FBF75FFB08BD08B56A46FBF740FB08BD54
:10AC900008B56A46FBF72EFB08BD08B56A46FBF708
:10ACA0001DFB08BD08B56A46FBF724FB009808BDEC
:10ACB00008B56A46FBF752FB009808BD38B5044654
:10ACC00000258DF800506846FCF7B0F921686268ED
:10ACD000086890420ED9401E08600178238AE26815
:10ACE00001FB0325227A2168101AC0B20A79824238
:10ACF00000D208719DF80000FCF7BCF9284638BD69
:10AD000038B5054600208DF800000C466846FCF773
:10AD10008DF9E868298A201AB0FBF1F12A681068D9
:10AD2000431C136001709DF80000FCF7A3F938BDC7
:10AD300010B530B1017A42680368891AC9B21A6045
:10AD400006E00E2010BD03681A68541C1C601170C8
:10AD5000491EC9B2F7D2006800210171084610BD32
:10AD6000C20800F007030120895C98400840704742
:10AD700010B560B10161172120F8021B20F8021BF9
:10AD80001B2100F8021BFFF7D1FA002010BD0E2096
:10AD900010BD0000F0B5858893B00C46002D39D168
:10ADA000018800263F4F24293BD006DC102909D01A
:10ADB00011290CD0232958D14FE03A290BD055291D
:10ADC00053D129E00146204602F076F94DE0A01D5E
:10ADD000FFF7ACFA49E02246408934F8061F814269
:10ADE00000D808466080172800D2172060801069BC
:10ADF00070B1607960B1D7E90001CDE90301ADF828
:10AE00000E506088ADF81000136903A910469847EA
:10AE10006671267113B0F0BD0146204602F0A0F91C
:10AE200023E0011D2C2206A8FBF720FBBDF818002B
:10AE3000BDF81C2004EBC0014A732269AAB1D7E90E
:10AE40000423CDE90423ADF81200487B8DF81400EB
:10AE50002269204604A9904707E0017A207B8842B6
:10AE600000D201462846FDF7D3FCA07A0028D1D0B5
:10AE7000E1882846A5DF012580B11128CAD001F05C
:10AE8000F1FB02460848094913B0401AC00805EB17
:10AE90000040BDE8F04006A100F0AABFA672E5722E
:10AEA000B8E70000300E0300202903000829030042
:10AEB00073645F626C655F67617474635F65786318
:10AEC00068616E67655F6D74755F726571756573D6
:10AED0007428292072657475726E65642025732E3E
:10AEE0000000000020B10278DE2A03D0082070475D
:10AEF0000E20704741800020704760B159B1027840
:10AF0000DE2A0AD009684160DE2101704FF6FF7128
:10AF10004180002070470E207047082070477FB5A1
:10AF2000054600294DD0002D4BD008780C46DE2870
:10AF300047D1A8886188884202D1204605F01AFCD2
:10AF40002888012825D002283BD011283AD0512842
:10AF500037D135F8040F6188884232D1A978A81C0E
:10AF600002292ED1017A042903D0062901D005290E
:10AF700027D10021009102228DF8002001914FF489
:10AF8000C07202910391ADF80420007A05280FD019
:10AF900010E0297A2046012913D1A98842889142DC
:10AFA0000FD10121017204B0BDE8704005F0E2BB91
:10AFB000ADF8041028886946B0DF002801D0616828
:10AFC00088477FBDA88861888842FAD14FF6FF7014
:10AFD00060807FBD00F180400068002800D0012023
:10AFE000704708B500F180400021016000680090C2
:10AFF00008BD000070B50D4C0125207808B18526EC
:10B000000EE00020A06060602061E060084801F070
:10B010006DFB064601F082FA08B901F051FB25707C
:10B0200001F046FB00B1A570304670BDE82C002051
:10B030008186020038B500258DF800506846FBF780
:10B04000F5FF084CE068401EE060E06828B901F0B8
:10B050002FFB10B901F05AFBA5709DF80000FCF71A
:10B0600009F838BDE82C00202DE9FF411C46037883
:10B07000164D174E45F823200C3545F82340F0CEE9
:10B080008DE8F0000C788DF800404C788DF8014088
:10B090008C788DF80240CC788DF803400C798DF8CF
:10B0A00005404C798DF806408C6802940C7B8DF835
:10B0B0000C40497B8DF80D1002B1064A6946001D0F
:10B0C00001F07EFC04B0BDE8F0810000CC2D002032
:10B0D000400F030001FF0200F0B505460478154853
:10B0E00089B0164640F82420124A0869121DA2F1C0
:10B0F000080742F82400487F385520226846FBF7AD
:10B10000B5F904942878385C48B10EB10A4A00E0D9
:10B1100000226946281D01F079FE09B0F0BD0EB18C
:10B12000064A00E00022694605F10C0001F038FDF6
:10B13000F3E700003C23002099040300E102030030
:10B140000FB408B50399002904D004AA00926A46F6
:10B1500000F00FF801B05DF814FB10B582680446EA
:10B16000002A05D0D4E90403216898470020A06094
:10B1700010BD2DE9FC4791460C00804676D014F8AE
:10B18000011B39B125290ED04046FDF79BF92078E7
:10B190000028F4D198F80C00002867D04046BDE89C
:10B1A000FC47FFF7DABF0020012221782B291BD0B2
:10B1B0002D2902D0302908D102E040F0010001E041
:10B1C00040F00200641C002AEFD100252A290ED08D
:10B1D0002178A1F130020A2A11D205EB850201EB98
:10B1E0004205641C303DF1E740F00400EAE7D9F87D
:10B1F00000100B1DC9F800300968641C0D4421784B
:10B2000000232E290BD114F8011FA1F130020A2AC4
:10B2100005D203EB830201EB4203303BF3E76C29D9
:10B220000DD068290BD0692921D00BDC252918D035
:10B23000582931D063290ED0642915D117E014F8AC
:10B24000011FECE7702969D0732932D075291BD012
:10B25000782909D120E0D9F80000011DC9F80010B3
:10B2600001784046FDF72EF9641C90E76CE0D9F8B0
:10B2700000100A1DC9F800200968CDE900500A2213
:10B280004046FEF745FFEFE7D9F800100A1DC9F860
:10B29000002009680A2206E0D9F800100A1DC9F842
:10B2A000002009681022CDE90050404605F0AAF9B7
:10B2B000DAE7D9F8001000270A1DC9F800200E6847
:10B2C000C00705D112E04046761C7F1CFDF7FAF856
:10B2D00031780029F7D104E0202140466D1EFDF7AA
:10B2E000F1F8BD42C0D9002DF6D1BDE74EB13046D0
:10B2F000FBF7E0F8074604E0202140466D1EFDF70D
:10B30000E1F8BD4206D9002DF6D103E04046761C97
:10B31000FDF7D8F831780029F8D1A5E7D9F8000071
:10B32000011DC9F80010056830214046FDF7CAF834
:10B3300078214046FDF7C6F808200021CDE900013C
:10B34000034610222946B0E7BDE8FC872DE9F84303
:10B35000884605002C482D499946A0EB01004FEA8C
:10B36000D0004FF00101164601EB004424D02868BC
:10B3700000282CD0002E34D0696840464FF01007CA
:10B380000A68511E11EA080F11D10146724328467E
:10B39000FBF7C5FC00282ED028684B4632460469CE
:10B3A00001B041462846A446BDE8F0436047204628
:10B3B000174B18A2009722E00E2000902046144B55
:10B3C0001EA220A100F023FD0E20BDE8F883082076
:10B3D000009020460E4B26A21AA100F018FD08206E
:10B3E000F3E7092000902046094B24A215A100F0A4
:10B3F0000EFD0920E9E7064B214A2046009711A1DE
:10B4000000F005FD1020E0E7A02903000829030053
:10B41000EB0F0300616464725F69735F706167655D
:10B420005F616C69676E656428705F66732C20705D
:10B430006167655F6164647229000000705F667314
:10B4400000000000257320636865636B20666169F6
:10B450006C656420696E20257328292077697468DB
:10B460002076616C756520307825782E000000000C
:10B47000705F66732D3E705F617069006C656E0071
:10B480004421030038B503001148124D4FF00E045B
:10B49000A0EB05004FEAD0004FF0010505EB00409E
:10B4A00009D061B119600C6801B0A446BDE8304014
:10B4B000114618466047084B08A2009402E0064B6C
:10B4C00008A2009409A100F0A2FC0E2038BD0000E3
:10B4D000A029030008290300A00F0300705F667312
:10B4E00000000000705F6170690000002573206338
:10B4F0006865636B206661696C656420696E2025F0
:10B5000073282920776974682076616C756520300E
:10B510007825782E00000000044801214174007A4B
:10B5200008B100207047012070470000183000204B
:10B53000012801D0032808D10449002201284A74B7
:10B5400000D00020087403F0A1BB70471830002021
:10B5500070B50246022801D0032A45D1234C207A37
:10B56000002841D0012833D0022831D120480023BF
:10B57000022A006802D0032A2AD11BE0E360017985
:10B5800011B1012924D10DE0D0E90565711B4FF4FB
:10B590008056B14200D33146294481614569A942B0
:10B5A0000ED015E00169491C0161426991420FD139
:10B5B000237213E0E168491CE160082908D9E360BF
:10B5C0002372022A0AD00D21FDF7BCFB03F002FB17
:10B5D000607C28B1BDE8704000F0A6BF0021F3E711
:10B5E000BDE8704003F052BB70BD00001830002071
:10B5F000D02300202DE9F84F90468A463A493B4A2D
:10B600000500A1EB02014FEAD1014FF00102DDF884
:10B6100028901E464FF00E0002EB01441AD0B8F1FC
:10B62000000F1CD02868002822D00920002E29D025
:10B6300069684968B6FBF1F201FB1261002926D066
:10B6400000902B4B20462BA235A100F0E0FB0920F7
:10B65000BDE8F88F00902046254B3CA203E0009007
:10B66000234B20463BA22EA100F0D1FB0E20EFE79A
:10B670000820009020461E4B38A229A100F0C7FBED
:10B680000820E5E700902046194B37A2DCE750463A
:10B69000FBF73FFB102798B14046FBF73AFBA0B100
:10B6A000324651462846FBF73AFB98B1CDF8009058
:10B6B000286833464246C46851462846A047C7E733
:10B6C00020460B4B29A2009708E02046084B2DA2EC
:10B6D000009703E0064B204633A2009710A100F02C
:10B6E00096FB1020B4E70000A029030008290300FE
:10B6F000D80F030021286C656E202520705F6673CB
:10B700002D3E705F666C6173685F696E666F2D3E7B
:10B7100070726F6772616D5F756E697429000000E9
:10B72000257320636865636B206661696C656420BE
:10B73000696E202573282920776974682076616CEA
:10B74000756520307825782E00000000705F6673E4
:10B7500000000000705F737263000000705F66732A
:10B760002D3E705F617069006C656E00616464728B
:10B770005F69735F616C69676E6564333228646505
:10B7800073742900616464725F69735F616C6967D7
:10B790006E65643332282875696E7433325F74299C
:10B7A000705F737263290000616464725F69735F24
:10B7B00077697468696E5F626F756E647328705F15
:10B7C00066732C20646573742C206C656E290000F0
:10B7D00070B541EA4201DDE904564FF0A04441EA68
:10B7E000830141EA052104EB800041EA0641C0F8EB
:10B7F000001770BD70B541EA4201DDE904564FF013
:10B80000A04441EA830141EA052104EB800041EABA
:10B810000641C0F8001770BD70B541EA4201DDE98C
:10B8200004564FF0A04441EA830141EA052104EBAC
:10B83000800041EA0641C0F8001770BD70B541EACA
:10B840004201DDE904564FF0A04441EA830141EA98
:10B85000052104EB800041EA0641C0F8001770BDE5
:10B8600070B541EA4201DDE904564FF0A04441EAD7
:10B87000830141EA052104EB800041EA0641C0F85A
:10B88000001770BD1CB5002100910B4601220191EB
:10B89000FFF7C2FF1CBD1CB5002100910B46012221
:10B8A0000191FFF7CBFF1CBD1CB500220B46009297
:10B8B00011460192FFF7B0FF1CBD1CB500220B46DC
:10B8C000009211460192FFF7B9FF1CBD1CB5002183
:10B8D00000910B46012201911146FFF79DFF1CBD0F
:10B8E0001CB5002100910B46012201911146FFF782
:10B8F000A5FF1CBD1CB5002100910B460122019142
:10B900001146FFF7ADFF1CBD4FF0A04202EB8000D7
:10B910000321C0F8001770474FF0A04202EB8000EF
:10B92000D0F8002722F44032C0F80027D0F80027D2
:10B9300042EA0141C0F800177047000038B5094BD2
:10B9400044181B6800936B4608E000BF53F82010B2
:10B95000D1F8205520C2C1F82055401C8442F5D8AA
:10B9600038BD0000300F03004FF0A042012181409C
:10B97000C2F80C15704742094FF0000100D1491E72
:10B9800000F01F00012282400A4201D001207047CE
:10B99000002070474FF0A04201218140C2F80815F5
:10B9A000704701224FF0A043824011B1C3F808252F
:10B9B0007047C3F80C25704701224FF0A043824026
:10B9C00011B1C3F808257047C3F80C257047000073
:10B9D000034908B50844002101600068009008BDD3
:10B9E0000060004002494058012800D00020704704
:10B9F0000060004030B5154A01460020D2F81044DE
:10BA000023460AE0DB681D79854205D1401C0A28DF
:10BA1000F6DB4FF0FF3030BD1B68002BF2D1431C2A
:10BA2000F9D0CB681871D2F8103443B1DB68CC6818
:10BA30001B682360D2F81024D268116030BDC2F8B0
:10BA40001014C96800220A6030BD0000D031002007
:10BA5000F0B595B01C4615460F4608461A9E00F0F4
:10BA600025FB182109A8FAF71AFD0E96CDE909540D
:10BA70000023082203A9384600F02DFB0598069004
:10BA8000BDF81000ADF81C00BDF81200ADF81E00A6
:10BA900000208DF821000398082600F003000128FB
:10BAA00002D0022818D032E003983346850AC0F34A
:10BAB000C2008DF8200003980FA9C0F38314A200E0
:10BAC000384600F008FB09A8009006AB22460FA9F3
:10BAD000284600F047FA1AE00398840DC0F3C2002C
