:020000040002F8
:1060000040570020C1630200C9630200CB63020055
:10601000CD630200CF630200D163020000000000E4
:10602000000000000000000000000000D363020038
:10603000D563020000000000D7630200D9630200AC
:106040007D660200DB630200C56C02002D68020061
:10605000DB630200DB630200BD650200E56602004F
:10606000DB630200DB630200DB630200DB63020030
:10607000DB630200DB630200DB630200DB63020020
:10608000DB630200D5660200DB630200DB63020013
:10609000DB630200DB63020015690200DB630200C0
:1060A000DB630200DB630200DB630200DB630200F0
:1060B000DB630200DB630200000000000000000060
:1060C000DB630200DB630200DB630200DB630200D0
:1060D000DB630200DB630200DB6302000000000000
:1060E00000000000000000000000000000000000B0
:1060F00000000000000000000000000000000000A0
:10610000000000000000000000000000000000008F
:10611000000000000000000000000000000000007F
:10612000000000000000000000000000000000006F
:10613000000000000000000000000000000000005F
:10614000000000000000000000000000000000004F
:10615000000000000000000000000000000000003F
:10616000000000000000000000000000000000002F
:10617000000000000000000000000000000000001F
:10618000000000000000000000000000000000000F
:1061900000000000000000000000000000000000FF
:1061A00000000000000000000000000000000000EF
:1061B00000000000000000000000000000000000DF
:1061C00000000000000000000000000000000000CF
:1061D00000000000000000000000000000000000BF
:1061E00000000000000000000000000000000000AF
:1061F000000000000000000000000000000000009F
:10620000DFF80CD000F088F90048004791AE02009A
:106210004057002030B450E8012F93B2C489234482
:106220008489A34228BF1B1B0489A34202BFBFF37A
:106230002F8F002007E0C3EA020340E80134002C5E
:10624000E9D14FF001000A6030BC704750E8012FDF
:10625000C2EA024240E801210029F7D1704730B478
:1062600050E8022F1FFAA2F3C488A34202BFBFF373
:106270002F8F00200DE0C48923448489A34228BFC6
:106280001B1BC2EA034340E80234002CE8D14FF064
:1062900001000A6030BC704750E8022FC2EA224277
:1062A00040E802210029F7D17047034653E8022F46
:1062B000D988B2EB324F4FF0000017BF92B241EADB
:1062C000014142EA014104E05A68B2EB324F08BF93
:1062D000012043E80212002AE8D1704730B4044696
:1062E00054E8000F0D4644E80053002BF8D1156028
:1062F00030BC704730B4044654E8000F40EA010552
:1063000044E80053002BF7D1156030BC704730B41F
:10631000044654E8000F00EA010544E80053002B4E
:10632000F7D1156030BC704730B4044654E8000F14
:1063300080EA010544E80053002BF7D1156030BC1A
:10634000704730B4044654E8000F00EB010544E800
:106350000053002BF7D1156030BC704730B40446B1
:1063600054E8000FA0EB010544E80053002BF7D1DF
:10637000156030BC704770B404464FF0000054E81C
:10638000006F0D68AE4207BF44E80023012044E8D7
:1063900000630E60002B1CBF0020F0E770BC70474C
:1063A00030B4044654E8000F88422CBF451A054615
:1063B00044E80053002BF5D1156030BC7047000055
:1063C0000648804706480047FEE7FEE7FEE7FEE78F
:1063D000FEE7FEE7FEE7FEE7FEE7FEE72D690200C7
:1063E000016202002DE9F05F0546002092469B46BF
:1063F00088460646814640241BE0284641464746DB
:10640000224600F079F853465A46C01A914110D3FB
:1064100011461846224600F016F82D1A67EB0108BF
:106420004F4622460120002100F00DF817EB00092D
:106430004E41201EA4F10104DFDC484631462A46C5
:106440004346BDE8F09F202A04DB203A00FA02F11F
:10645000002070479140C2F1200320FA03F3194352
:106460009040704700487047B41C030010B5431AB1
:10647000934209D28318881803E010F8011D03F82D
:10648000011D521EF9D210BD40EA01039B0703D043
:1064900009E008C9121F08C0042AFAD203E011F863
:1064A000013B00F8013B521EF9D210BDD2B201E00F
:1064B00000F8012B491EFBD270470022F6E710B509
:1064C00013460A4604461946FFF7F0FF204610BD62
:1064D000421C10F8011B0029FBD1801A704730B50F
:1064E00004460020034600E05B1C934203D2E05CBC
:1064F000CD5C401BF8D030BD202A04DB203A21FAC5
:1065000002F00021704721FA02F3D040C2F12002CC
:106510009140084319467047064C074D06E0E06875
:1065200040F0010394E8070098471034AC42F6D3DA
:10653000FFF76AFE703203009032030070B58C18CA
:1065400010F8015B15F0070301D110F8013B2A1187
:1065500006D110F8012B03E010F8016B01F8016B74
:106560005B1EF9D12B0705D40023521E0DD401F870
:10657000013BFAE710F8013BCB1A921C03E013F839
:10658000015B01F8015B521EF9D5A142D8D300206E
:1065900070BD10B5142005F083FD0021BDE810404A
:1065A000142005F0D5BD0000024A0121024800F088
:1065B00097BD0000D10B0300FC1B03002DE9F8433D
:1065C0000025DFF8B0804FF4807601242F46009537
:1065D000304605F0D3FD38B1D8F80403204203D08B
:1065E000304605F0C1FD2543361D64007F1CB6B260
:1065F000082FEDD34FF4BE77384605F0BFFD48B104
:10660000384605F0B1FD45F000456A4601210020FD
:1066100005F060FD15F0FF0F16D0012600242E4274
:106620000ED008EB8401D1F81005D1F81015C0F395
:106630000420114AC1F3014152F8242002B19047CD
:106640007600641C082CEAD3002D02DA684608F0B4
:10665000D3FD384605F088FD4FF0A040D0F8100576
:10666000800B10F0010F03D003210E2005F020FD58
:10667000BDE8F88300600040FC2D002070B54FF4A9
:106680008076304605F072F8114CB50560B13046A1
:1066900005F073F80120C5F80803607920B90120DE
:1066A00060712168002088474FF48276304605F0FB
:1066B0005DF800280AD0304605F05FF80220C5F8E2
:1066C00008032168BDE870400120084770BD000044
:1066D0005423002002490248091F0968006808473E
:1066E000A82300202DE9FE434FF48278404606F0AF
:1066F00023F94C4F00254C4C012600B3404606F0D0
:1067000023F994F82E0010B194F82F10D1B18DF820
:106710000050616801912189ADF80810E26832B13A
:10672000218B618362602181E56010B102E02574F4
:1067300000E03E6021686846884784F82F5094F84E
:106740002E0060B34FF48077384606F0F5F830B38A
:10675000384606F0F9F8628B94F82D108A420AD96F
:10676000A2EB010080B260832289A2EB0000626884
:1067700002EB400005E007D1E06828B184F82F6003
:10678000658306F0D1F804E08A4202D184F82F60D4
:106790006583404606F0D8F82248001D06604FF495
:1067A0008877384606F0C8F848B1384606F0CCF885
:1067B000257402208DF800002168684688474FF450
:1067C0008A77384606F0B8F828B1384606F0BCF8A3
:1067D0002574BDE8FE834FF000484FF48C7967695B
:1067E0001DE000BFB7FA87F028FA00F109EB800539
:1067F0008F43284606F0A0F888B1284606F0A4F892
:10680000A5F58C75E8088DF8040045F38000401C60
:106810008DF800608DF80500216868468847002FD4
:10682000E0D1D6E700700040E42E0020F8B5124811
:10683000124E04464FF48C7106F0D9FA00281AD093
:106840000025C4F81851D4F818010090F07F3446A0
:10685000FF2806D0A17F11B105F052FC01E005F040
:1068600065FC65772572D4E9002101B004F10800C8
:10687000BDE8F0401047F8BD00300040A82E0020D1
:106880001FB5134A0023D2E90401D269CDE9000102
:1068900011208DF8020012208DF8010014200392BF
:1068A0008DF8000000208DF80C004FF08060029001
:1068B00004208DF80400074A6946054804F0A0FF4B
:1068C00008B100F0FBFB04490320C1F800071FBD1D
:1068D000001C03003D0803004C0000501FB50B4C8A
:1068E0000346002020700093CDE90121039208485F
:1068F0000022694606F000FD18B100F0DFFB00E061
:1069000020BF20780028FBD01FBD00006824002095
:10691000041C030006F0D6B9034800224FF40041DE
:10692000006800F017BC0000FC1B0300F0B5D34A60
:10693000D3494FF080541368D4F830010978D4F863
:106940003421451CC1F3031107D0844616460127A4
:106950000025BCF1060F04D013E003F0FF0C0E4637
:10696000F5E7032E05D0042E03D0052E01D0062E08
:1069700007D1B4F82463DFF80CC3C6F30426CCF8BF
:106980000060DEB2062E06D1032904D1DFF8FCC276
:10699000BD4ECCF87460461C06D084464FEA020611
:1069A000BCF1060F04D013E003F0FF0C0E46F7E72E
:1069B000032E05D0042E03D0052E01D0062E07D1BC
:1069C000D4F84462DFF8C8C2C6F34236CCF800609F
:1069D000DEB2062E08D1032906D1AE4ED6F800C08D
:1069E0002CF0807CC6F800C0461C05D084461646B4
:1069F000BCF1060F04D014E003F0FF0C0E46F7E7DD
:106A0000032E05D0042E03D0052E01D0062E08D16A
:106A10004FF08046C6F80C51C6F810519C4E361FF8
:106A20003560DEB2062E08D1032906D1DFF860C238
:106A300003260CF1640CCCF80060DEB2062E11D1F6
:106A400003290FD1DFF850C20526CCF80060924E22
:106A500078363760904E083635600CF1040C3F26CE
:106A6000CCF80060461C05D084461646BCF1060FE3
:106A700004D087E003F0FF0C0E46F7E7032E7CD02E
:106A8000042E7FD0052E01D0062E7BD1834E366892
:106A9000DFF80CC2CCF80060804E361D36680CF171
:106AA000040CCCF800607D4E083636680CF1040CFE
:106AB000CCF80060794E0C3636680CF1040CCCF83A
:106AC0000060764E103636680CF1040CCCF800608D
:106AD000724E143636680CF1040CCCF800606F4E20
:106AE00018363668DFF8B8C10CF1200CCCF800601D
:106AF0006A4E1C3636680CF1040CCCF80060674E08
:106B0000203636680CF1040CCCF80060634E243655
:106B100036680CF1040CCCF80060604E28363668FC
:106B20000CF1040CCCF800605C4E2C3636680CF18D
:106B3000040CCCF80060594E30363668DFF860C17E
:106B40000CF1400CCCF80060544E343636680CF131
:106B5000040CCCF80060514E383636680CF1040C49
:106B6000CCF800604D4E3C3636680CF1040CCCF885
:106B700000604A4E4036366800E003E00CF1040C39
:106B8000CCF80060461C05D084461646BCF1060FC2
:106B900004D011E003F0FF0C0E46F7E7032E05D0FA
:106BA000042E03D0052E01D0062E05D1D4F858426C
:106BB0003C4E04F04F043460441C04D0034611469C
:106BC000062B02D010E0DBB2FAE7032905D0042936
:106BD00003D0052901D0062906D133490B68DB070C
:106BE00002D06FF001030B6006280CD1032A0AD0F3
:106BF000042A08D0052A06D0062A04D12B480168A9
:106C000041F48061016023487438016841F47001E7
:106C10000160BFF34F8FBFF36F8F4FF01021D1F89A
:106C20000002002803DBD1F80402002822DA204AFF
:106C3000176020480368002BFCD01523C1F80032F0
:106C40000468002CFCD0C1F8043201680029FCD093
:106C5000156001680029FCD0BFF34F8F0D48F03854
:106C60000168154A01F4E06111430160BFF34F8FE1
:106C700000BFFDE7124911480860F0BDE00F00F0C9
:106C8000E80F00F0403501400DF0ADBA00C00740FC
:106C90003C050040FCED00E01056004004040010EC
:106CA00020C50040E40E0040000400403C170040B6
:106CB00004E5014000E401400400FA050090D0031F
:106CC000B824002001480068004700005C23002031
:106CD00002E008C8121F08C1002AFAD170477047A5
:106CE000002001E001C1121F002AFBD17047000003
:106CF0000121202803DA81400548014003E04028B3
:106D000002DA2038814009B1012070470020704725
:106D1000FC06FFBD2DE9F843804643F2020659B94F
:106D2000694607F059FCB04202D008B100F0C6F93C
:106D30009DF80000800744D40021404607F056FC2F
:106D400005003ED0112D3CD01F482049401AC708ED
:106D5000022000EB07440D2D0AD00B2D1DD0B542AB
:106D60001FD11B4920464246BDE8F84305F00CBC44
:106D700020464246174905F007FC1321404676DFBE
:106D800000281ED006F054F8024601B020464346C3
:106D9000BDE8F04310A105F0FEBB204642461C4969
:106DA000E2E7284606F044F80246012000EB0740DF
:106DB000434618A105F0EFFB2846BDE8F84300F074
:106DC0007DB9BDE8F8830000D8320300A03203008B
:106DD00038240300C423030073645F626C655F673B
:106DE00061705F646973636F6E6E656374282920D8
:106DF00072657475726E6564202573206F6E2063F2
:106E00006F6E6E5F68616E646C652025642E000095
:106E100084240300417373657274696E672E207059
:106E20006D5F636F6E6E5F73656375726528292091
:106E300072657475726E6564202573206F6E2063B1
:106E40006F6E6E5F68616E646C652025642E000055
:106E500010B560B159B102780B785208B2EB530FFC
:106E600005D10622401C491CFFF739FB08B1002060
:106E700010BD012010BD800701D000207047012007
:106E80007047C3688B4206D811440069491E81428D
:106E900001D8012070470020704790F82400012895
:106EA00001D01F207047EE20704710B5012202214B
:106EB000002001F08FFB08B1072810D10722022122
:106EC000012001F087FB08B1072808D100210A2220
:106ED000084601F07FFB08B1072800D1002010BD53
:106EE00010B560B10B480C49401AC008032101EBF2
:106EF00000400AA105F044FB08F0F4F803E0032188
:106F00000A4800F092FC002803D0BDE8104000F0D1
:106F1000D5B810BD58330300A03203004572617329
:106F20006520626F6E6473210000000080250020E0
:106F300070B58CB015460E4600236C46C3F10F01A8
:106F4000415CE1545B1C102BF8D30D2104F11000BF
:106F5000FFF7B3FA0020C0F10F02315C2244401C5D
:106F600011740328F7D3684646DF0020C0F10F01F3
:106F7000214491F820102954401C0328F6D30CB06A
:106F800070BD022001F0F2B90149C97800F010BECD
:106F90002823002070B50024064D06E06868012112
:106FA00010F8340005F0B8FF641C28788442F5D34B
:106FB000002070BD68230020F8B516460C46054633
:106FC0000A2A01D20720F8BD06F0A0F818B906F089
:106FD00063F80028F7D1134F102113487D603C70EF
:106FE000BE60FFF76AFA0020C7E904000F4E0DE00B
:106FF00005EBC4003168009181788DF801100078AC
:107000000B4A694605F0D8FF0028DCD1641EE4B2C3
:10701000EED2BDE8F84005480021064A001D00F008
:107020005FB8000068230020382F0020E418030018
:107030001DA10200D98F020072B605F04BFB00BF04
:1070400005F082F90028FBD111481249401AC40802
:10705000012000EB044010A105F092FA11480068ED
:10706000C00700D000BE022000EB04400EA105F0D6
:1070700087FABFF34F8F0B48E43801680E4A01F4DA
:10708000E06111430160BFF34F8F00BFFDE70000D7
:1070900058330300A0320300466174616C206572AE
:1070A000726F7200F0ED00E053797374656D2072B9
:1070B00065736574000000000400FA050EB5002138
:1070C0000091CDE901106A4644F20100FFF7B4FFD8
:1070D0000EBD0000014801F0E6BF0000882300203B
:1070E0003AB100680129426100D00021016100200D
:1070F000704707207047000038B511480823582210
:10710000416800910F49006804F0DBF8002815D1B0
:107110000D4A69460D4801F0CBFF04000ED1012154
:107120000A4802F040F80123094A1946074801F0CD
:1071300092FF0649012008390870204638BD00003A
:10714000EC180300582F0020D9F8020088230020F3
:10715000FFFF7F0070B50446007F0D4608B1002098
:1071600070BDA26102F0C0FF401941F10001C4E905
:107170000201206900B125612146BDE87040002070
:1071800009F0FEBC014600200877012009F0F8BC98
:1071900030B5EFF3108172B60D4A9468012324B123
:1071A0000370002900D162B630BD93604FF0E02338
:1071B000D3F88051074C25401560C3F88041D3F8BF
:1071C000844154605A17C3F8842100220270E8E712
:1071D000B02F0020FC06FFBD0B498A68002A11D0A1
:1071E00000280FD1EFF3108072B60B684FF0E02249
:1071F000C2F800314B68C2F8043100228A600028CE
:1072000000D162B670470000B02F00202DE9F04198
:10721000064608680C46411C4FF0A0474FF0010598
:1072200006D005FA00F1C7F80815206804F01AFF27
:107230006068411C02D0002104F002FF3168A0699F
:10724000C1F82405607D227D31681043C1F86C05CA
:10725000D4E900123068C0F81425C0F80C15207D60
:10726000012815D1A068411C02D0002104F0E8FEDD
:10727000E068411C05D08540C7F80855E06804F077
:10728000F1FED4E902123068C0F80825C0F81015E4
:10729000BDE8F0812DE9F041064608680C46411C26
:1072A0004FF0A0474FF0010506D005FA00F1C7F8EE
:1072B0000815206804F0E0FE6068411C02D000213F
:1072C00004F0C7FE3168A069C1F82405607D217D06
:1072D00032680843C2F86C05D4E900123068C0F87F
:1072E0000C15C0F81425207D012815D1A068411C7B
:1072F00002D0002104F0ADFEE068411C05D08540BD
:10730000C7F80855E06804F0B7FED4E90212306807
:10731000C0F80825C0F81015BDE8F08103F084BC62
:107320002DE9F047814605884A484FF000088AB0A9
:1073300001784246284600F053FC99F805004007C2
:1073400001D4002176E005F58077B8B205AB0122C3
:10735000072106F097FD04003F48404A4FF0010125
:10736000A0EB02004FEAD00001EB00460AD0204615
:1073700005F05EFD024630462B46394905F00BF913
:10738000214629E0284603F0E3F94FF6FF71044651
:1073900088422BD18A46069803F044F904465045AA
:1073A00010D00146284603F0B3F92846FFF7ECFD5C
:1073B000E0B9284608F046FD2846FFF7E5FD00281D
:1073C000BFD013E006F034FF0446504508D13046E4
:1073D00024A105F0D5F80421284608F061FDB0E7A6
:1073E0000146284603F094F94FF00108B8B222464E
:1073F000072106F0BFFD07001BD0862F1ED005F029
:1074000017FD024630462B462349009405F0CBF881
:107410003946284608F044FD0021484606F02AFC7B
:10742000B8F1000F02D0204603F07CF90AB0BDE8A5
:10743000F0870121484606F01DFCF7E714221749A2
:107440006846FFF713F8ADF80250684602F0CCF832
:10745000EFE7000028230020E0320300A032030001
:1074600080270300436F756C64206E6F7420616C1D
:107470006C6F63617465206E657720706565725FFF
:10748000696420666F7220696E636F6D696E672034
:10749000626F6E642E0000009C28030070180300C9
:1074A0002DE9FC47002517880646158090F82D0029
:1074B0001446894630B13A462146484600F0B6FBAC
:1074C000051E09D1B0784FF00C0A18B32088C846C1
:1074D000001DB84202D95046BDE8FC87684679DFF6
:1074E0000028F9D12088032108F8001020881921EC
:1074F000401C80B2208008F800102088401C80B218
:10750000208000EB0801BDF8000009F02CFD218867
:1075100008442080F0780222C8B1218896F903300F
:1075200001F1030C4846BC45D5D8425421884FF0A0
:10753000010C491C89B2218000F801C02188491C36
:1075400089B2218009F801302088401C20807068B1
:10755000B8B1218890F9003001F1030C4846BC45D0
:10756000B9D8425421880A22491C89B22180425448
:107570002188491C89B2218009F801302088401CEB
:107580002080308950B1CDE900474B4606220221C8
:1075900006F1080009F0D6FD051E9DD1308A50B1D4
:1075A000CDE900474B460722032106F1100009F000
:1075B000C9FD051E90D1308B50B1CDE900474B4637
:1075C0001522142106F1180009F0BCFD051E83D117
:1075D000306A30B13B462246494601F0B0FB051EF9
:1075E000DBD1706A30B13B462246494603F044FD88
:1075F000051ED2D196F82C0038B13B4622464946AA
:10760000304608F0D5FD051EC7D1307838B13B466D
:1076100022464946304603F0BDFD051EBDD1284631
:107620005AE718B504460020ADF8000013466A4634
:10763000204600F006F8002802D0BDF800002044E3
:1076400018BD70B5E0B1DAB1002402E0045D2C444D
:10765000A4B2651C8D4206D21688A642F6D8061939
:1076600076789E42F2D18C420AD2A31C005D9BB276
:1076700000B1401E0004000C02D01C188C4201D93D
:10768000002070BD138070BD80F8301070472DE968
:10769000F0410D00044606D02CB195F87A00002682
:1076A000012803D006E00E20BDE8F08195F898008F
:1076B000012829D0D5F8A000042825D0D5F89C00B1
:1076C000042821D04FF00108A6702C2205F1780182
:1076D000201DFEF7CBFE84F83060D5F8A40060636F
:1076E000D5F8A800A0634FF6FF70A4F8240404F5B1
:1076F0008260C4F82004C4F82664A4F82A6484F8DC
:107700002C64207810B104E00720CDE7FF2084F836
:10771000540004F155072046C4F81074FFF7BDFB70
:10772000A4F8140404F2144239462846FFF7B8FEC0
:107730000028B9D104F23120C4F818042046FFF71C
:10774000ACFBA4F81C0404F21C4205F13C00D4F884
:107750001814FFF7A5FE0028A6D184F85180208BCD
:10776000A4F8480084F83C80266484F8506060697E
:1077700000216064454604F13C02781E72DF002857
:1077800092D1257090E710B50288102A1BD0112ADB
:1077900020D0262A1DD1007A0C46012801D00228CB
:1077A00017D1A0780521401CB0FBF1F201FB1201BA
:1077B000204600F03AF800280BD0A16B002908D031
:1077C000BDE810400847C27B012A02D18088A1F899
:1077D000240410BD0C46002184F82E148088B4F8CF
:1077E00024148842F5D120790028F2D10121DFE765
:1077F00010B5044690F8540074DF012084F82E047C
:10780000002084F8300484F850000621204602F05D
:1078100024F9002808D1A178204600F006F810B11C
:10782000A16B01B18847002010BD2DE9F05F04462F
:1078300000780F4698B1A7700025C4F82654A4F824
:107840002A5484F82C54A079012608B1012F09D0BC
:10785000E07980B1012F05D0022F03D00BE0082082
:10786000BDE8F09F616B21B184F82D640820884742
:1078700001E084F82D5404F2274100200A5C0AB18B
:10788000304603E0401C0628F8D300204FF00208E1
:107890004FF0030B012F06D0022F0CD0032F0FD077
:1078A000042F15D110E0A17929B194F8241011B951
:1078B00008B130460DE0E17911B108B1404608E069
:1078C000207A08B1584604E0607A08B1042000E04C
:1078D0002846A070616B41B1032801D0042804D16F
:1078E000607910B194F82E0498B184F82F5404F103
:1078F0003C0018210746FEF7E0FD84F83C6004F1E7
:107900002C0006F0C7FD58B194F82C0084F8510003
:1079100008E084F8305484F82F6407208847E6E7AD
:1079200084F8516094F8240058B104F1280006F05E
:10793000B1FD20B194F8280084F8520001E084F8E9
:10794000526084F85050A27804F2264104F582690E
:107950004FF0060A052A64D2DFE802F07C030F220A
:10796000420084F83160C4F82054C4E9101584F84A
:107970003C808020A4F8480055E084F8318094F8D9
:107980002420384612B10722027001E080F800B0CE
:10799000228A8281C4F820544160E168B96042E0E3
:1079A0006069B860208BB88194F824003D460028B7
:1079B000204602D084F83CA001E084F83C6009F045
:1079C0008DFB50B185F814800421204602F045F863
:1079D00038BB052184F8311021E084F831B01EE075
:1079E000E069B860208CB88194F824003D460028F6
:1079F000204602D084F83CA001E084F83C6009F005
:107A00006DFB48B185F814800421204602F025F86A
:107A100038B984F831A002E0042084F83100C4F8B9
:107A20002094A07878B13A4604F15400D4F8201498
:107A300072DF00287FF414AF94F8301094F85400EB
:107A400073DF0028F6D1616B11B194F831008847DB
:107A5000002005E784F83150F5E7000070B5040018
:107A600012D001461C221448FEF700FD1248134DA7
:107A70000560206850B17ADF002806D120680168CF
:107A800029604068686005E00E2070BD0B487BDF10
:107A90000028FAD108484FF6FF711438084A20F838
:107AA000041B0549343901600021FFF719FB002848
:107AB000EBD0032070BD00006C2A00208022002043
:107AC0007510030010B5044600F0A6F8002805D094
:107AD0002146BDE81040024803F072BC10BD000012
:107AE000982A002070B515460E46044609F002FBA0
:107AF000002809D0054800EB8400C0692A463146B9
:107B0000BDE8704001F0D6BF70BD0000882A00209B
:107B100010B5044600F080F8002805D02146BDE8E5
:107B20001040024803F04CBC10BD0000A02A002009
:107B300010B5044600F070F8002805D02146BDE8D5
:107B40001040024803F03CBC10BD00009C2A0020FD
:107B500070B50546002400F05FF838B129460448A6
:107B600003F02EFC08B1022400E00124204670BD81
:107B7000942A002070B50546002400F04DF838B175
:107B80002946044803F01CFC08B1022400E001244B
:107B9000204670BD902A002010B51821034803F03C
:107BA000EAFB182800D0C0B210BD0000882A0020CF
:107BB00070B505460C46084609F09CFA60B12846A7
:107BC00000F02AF840B10548294600EB8400BDE8E2
:107BD00070401C3003F0F4BB002070BD882A0020E8
:107BE00070B5054616460C46084609F083FA00288B
:107BF0000ED0284600F010F8002809D0054832467B
:107C000000EB84002946BDE870401C3001F020BF25
:107C100070BD0000882A0020142801D3002070477E
:107C20000146014803F0CCBB8C2A00207CB50546F8
:107C300008880C460930904201D90C207CBD68466A
:107C40006DDF0028FAD121880820685420881B2184
:107C5000401C80B2208029542088401C80B22080A3
:107C60002844DDF801100160BDF8051081802088EE
:107C7000801D80B220809DF80010490800D00121AD
:107C800029542088401C208000207CBD1FB504465C
:107C900001208DF8060041F60A00ADF80400494ABB
:107CA00001A90120A8DF00287DD122885AB14548CA
:107CB000801C009094F83C3042F62920616800F066
:107CC000D9FE00287BD122895AB13E480A30009063
:107CD00094F83C3042F62420E16800F0CBFE002806
:107CE0006DD1228A5AB137481230009094F83C3056
:107CF00042F62520616900F0BDFE00285FD1228B8D
:107D00005AB130481A30009094F83C3042F627209F
:107D1000E16900F0AFFE002851D1228C5AB1294808
:107D20002230009094F83C3042F62620616A00F040
:107D3000A1FE002843D1228D5AB122482A3000905A
:107D400094F83C3042F62820E16A00F093FE0028C7
:107D500035D1216B79B102A808F088FE19480822B4
:107D60003230009094F83C3002A942F6232000F013
:107D700081FE002823D1606B60B112493A31009135
:107D80000279016894F83C3042F62A2000F072FE35
:107D9000002814D1A16B89B102A807F012FA094892
:107DA0004230009000E00AE094F83C30072202A93B
:107DB00042F6502000F05EFE002800D1002004B002
:107DC00010BD00006A24002038B50188044621292E
:107DD00030D012DC1E481F4A1029A0EB02004FEAE7
:107DE000D0004FF0030202EB00400ED011292AD13F
:107DF000BDE8384018A104F0C3BB3B2924D0562964
:107E000021D18088132176DF0EE017A104F0B8FBA2
:107E1000072000F0FDFB08B1FFF750F91548A188D5
:107E20004180154803F02AFC00280CD0BDE83840FA
:107E3000FFF744B900200090A08869468FDF002832
:107E400001D0FFF73BF938BD8088132176DFEBE7DF
:107E500058330300A0320300446973636F6E6E658C
:107E6000637465642E000000436F6E6E6563746515
:107E7000642E0000502200207425002010B51A4CFA
:107E80000188606810290ED011292BD1401E606036
:107E900028D1FFF70AF8002824D02168002921D032
:107EA000BDE810400847D0B900210122084600F083
:107EB00091FB08B107280FD107220221012000F011
:107EC00089FB08B1072807D104220221002000F015
:107ED00081FB20B1072802D0216801B18847606882
:107EE000401C606010BD0000782200202DE9F047A2
:107EF00001883B4E40F2F3194FF6FF7510291BD055
:107F000011293ED0122954D0502946D1C188F28976
:107F1000841D914241D1618902293ED18688304633
:107F200002F0C4FC050038D004F10C0000F0DAF9CE
:107F3000A8B3294630464EE0C17B87880446012914
:107F40002BD1A846284602F0B1FC050017D02F809F
:107F500000202872234843464A460168C5F80A10A3
:107F60004068C5F80E0004F1100105F10A0002F0A6
:107F700061FD6872F08900280FD129462AE00420AB
:107F800013E0808802F092FC040006D06068FFF7DE
:107F9000F9F808B107F068FF2580BDE8F087FFE732
:107FA0006868FFF7EFF80028F7D0BDE8F04707F062
:107FB0005BBF87880646384602F078FC0400ECD0A8
:107FC0002B464A4606F1080104F10A0002F032FD90
:107FD000607221463846BDE8F04700F0F7BE000069
:107FE0006C2A0020802200202DE9F04F044686886C
:107FF0000188424897B0834610290CD0112950D0EF
:10800000103019296AD01A2974D1217A0C09042C4C
:108010004DD301224CE0394D083DA868C0430B9078
:1080200069680BA803F0F0F90B990CA800F068FE42
:108030002C220CA96846FEF719FA0027E946A84643
:1080400010E000BF09EB47005FF00005B0F804A0A6
:1080500008EB85005146001D03F072F96D1C1E2DC2
:10806000F6D37F1C0098B842ECD8142E05D317B075
:108070000420BDE8F04FFFF721B83146584603F021
:10808000AAF9314608F1040003F0A5F9E07B0228C3
:1080900030D117B03146BDE8F04F1848001D03F04D
:1080A0009AB917B03146BDE8F04F03F049B9002244
:1080B000314601F0CDFC032C01D3012200E0002267
:1080C0000E4831460C3001F0C3FC022C01D30122D2
:1080D00000E0002209483146083006E0217A0029F4
:1080E00008D1617AC1F3C002314617B0BDE8F04F44
:1080F00001F0AEBC17B0BDE8F08F0000902A002060
:1081000010B504460748007800280AD0204602F03F
:10811000FBF9204608F0FCF82046BDE8104001F0CD
:108120001FBE10BDB822002010B5038C1522A3F588
:108130007F4488B0FF3C32D090F8223003B1172240
:108140008DF810208DF814208DF811108DF8152061
:108150008DF812208DF816208DF813208DF8172039
:108160008DF818200F4A1178491C11700921ADF8BB
:108170001C10002100910191029103910289ADF838
:10818000041007A90291ADF8002004A9012203916F
:108190008DF80220008C6946AEDF08B010BD0820C3
:1081A000FBE70000B4240020F0B504468FB0086857
:1081B0002060087960714FF6FF702084002084F8F9
:1081C0002200A4F84C001427012684F84E708DF884
:1081D000226041F60D000D46ADF82000A21D08A951
:1081E0003046A8DF002847D120216846FEF765F910
:1081F00042F63720ADF80000ADF8047009AA00215E
:10820000204602F0F5F8ADF8060009A802908DF8B6
:108210000C609DF80D0004F1080240F010008DF88C
:108220000D00287B8DF81300E088694600F052FCB1
:10823000002821D1A868F0B120216846FEF73DF959
:1082400042F63820ADF80460ADF80000ADF80660E5
:10825000A86802909DF80D0004F1100240F00200A1
:108260008DF80D00687B8DF81100E088694600F0FC
:1082700031FC002800D100200FB0F0BD38B50288D5
:10828000102A15D0112A15D0502A16D130F8062FF1
:108290008B899A4211D10C46418902290DD121685E
:1082A00000290AD00C3000F01DF838B1002006E09B
:1082B000808801E04FF6FF70088438BD01208DF8FA
:1082C0000000226869462046904738BD80F8221099
:1082D000704770B504460D460846FEF7F9F8208051
:1082E000656070BD007800F0010070470149085CCE
:1082F00070470000081703000649095C4FF0A040D2
:10830000D0F81005C84010F0010000D0012080F026
:1083100001007047081703002DE9FC410646C0071D
:108320004FF000050ED0104F00240122385D00955B
:1083300000231146019503F017FE641C042CF4D3AE
:1083400000F046F8B0070DD5074E0024361D002278
:10835000305D032300951146019503F005FE641C72
:10836000042CF4D3BDE8FC810417030007490B5C1F
:108370004FF0A041D1F804250120984020EA0203E3
:10838000C1F808351040C1F80C0570470417030008
:108390000249085C012103F0D0BE0000041703006D
:1083A0000249085C002103F0C8BE00000417030066
:1083B0000649095C4FF0A040D0F80405C84010F011
:1083C000010000D0012080F0010070470417030075
:1083D00010B500242046FFF7DBFF641C042CF9D302
:1083E00010BD10B500242046FFF7DAFF641C042CF2
:1083F000F9D310BD10B50246064B4FF0FF300021F7
:108400005C5C944201D1084610BD491C0429F7D395
:1084100010BD00000817030070B50C4E0C004FF0A3
:10842000000530600BD0012000F06AF808B102208E
:1084300004E0002000F064F800B10B2020707068A8
:1084400010B9FEF732FD0546284670BD782200209F
:1084500010B5002000F016FA08B1062806D1012058
:1084600000F010FA08B1062800D1002010BD00006D
:108470002DE9F0470D468146FFF7BCFF044604286E
:1084800036D2DFF874801B481C4EA8F10C0725B3C8
:10849000012D0ED0022D2BD104EB44003044457841
:1084A000002D25D0B968002922D02846BDE8F04724
:1084B000084704EB4401755C0E44717849B10E4ADB
:1084C0004FF48041093A8068FEF744FE08B987F806
:1084D0000390B17808F80410E2E78068FEF752FED6
:1084E00004EB4401314418F804008D78A842D7D039
:1084F000BDE8F0870C17030074220020082A002032
:10850000042801D2FFF7F8BE0020704701461B483F
:108510001B4A10B5801AC008032202EB00400F2945
:1085200015D00BDC17480429408814D007291BD02C
:108530000A2922D1BDE8104007F0D6BE102908D084
:1085400011291AD110A1BDE8104004F019B814A1E6
:10855000F9E719A1F7E7132176DF0CE000280CD02A
:10856000BDE81040FEF7AABDA0F57F41FF3904D158
:108570001748FFF73DF90828F0D110BD5833030024
:10858000A03203005022002054656D706C61746548
:10859000204750494F5F495251335F43502E0000EE
:1085A00054656D706C617465204750494F5F495246
:1085B00051315F43502E000054656D706C617465DD
:1085C000204750494F5F495251325F43502E0000BF
:1085D0008025002030B5002304280DD2012A02D1C5
:1085E00000F10E02D2B2094D00EB4004601951B106
:1085F000012904D0022904D00723184630BD2A558A
:10860000FBE74270F9E78270F7E70000082A0020D4
:10861000044A014600201279D20702D0084600F031
:108620004DB870476822002070B506461E480024E9
:10863000C0E90161B00720D5002501221146284676
:10864000FFF7C8FF6D1C0446042D02D2002CF4D0A5
:1086500013E094B940F2333204211448FEF7ACFC25
:1086600004000AD1FEF796FC040006D10F48104A18
:108670000021001FFEF734FD0446F00712D0012050
:10868000FFF74AFE74B909480A4A00210C38FEF780
:1086900027FD040006D10548074A01210838FEF7E6
:1086A0001FFD0446204670BD6822002018170300F5
:1086B00091890200C9AA0200836F02002DE9F05FD0
:1086C0006E4C054600266078B34618B184F801B0B8
:1086D00002F0E2F96A4F4FF47A694FF4C87A4FF02A
:1086E0000108182D69D2DFE805F00C131338475440
:1086F000696E727B727BC58484848484B3B6B9BC92
:10870000C5C502F0C9F93868FEF73CFD06465CE0D5
:108710000020FFF74DFE00284FF0000008D0FFF7C3
:1087200037FE022D02D14FF4E16008E0484606E032
:10873000FFF736FE022D01D1C82000E05046410C63
:10874000C0034FF47A72801841F100012570520085
:108750000023FDF747FE01462AE00020FFF728FE30
:1087600000284FF0000004D0FFF712FE4FF44870CD
:10877000E5E7FFF715FEDFE70020FFF719FE002809
:108780004FF0000002D0FFF703FECFE7FFF708FE2F
:10879000D4E70020FFF70CFE00284FF0000002D0C5
:1087A000FFF7F6FD01E0FFF7FBFD257040F6CD4138
:1087B00000223868FEF7CEFC064646E00020FFF7B0
:1087C000D5FD257008E0002051E025703DE084F8DB
:1087D00001800120FFF7CAFD002240F26661E8E750
:1087E00084F801800120FFF7C1FD00224FF4005101
:1087F000DFE77868FEF7C6FC0646D5F1110000D029
:108800002EB10220FFF7C4FD84F802B01DE001285C
:1088100016D980B2C8214843C117C90341EA504163
:10882000C0034FF47A72801841F100015200002316
:10883000FDF7D8FD014600227868FEF78BFC06465E
:108840000220FFF7ADFD84F802803046BDE8F09FBE
:1088500002F022F9B9E702F01FF9B4E702F01CF9BF
:1088600004E002F019F90020FFF79AFD0120FFF75C
:1088700097FDAAE7FFF7B5FDA7E7000068220020F3
:108880000C170300012108F0C4BC00002DE9F84FCB
:108890000546861C00208DF8000091460F464FF0DB
:1088A000010A6846FEF774FC1B4C04F21C48606821
:1088B0003860D4E90101194F401A3968081A0EE0EE
:1088C0000121404602F09AFD02F090FA014640462E
:1088D00002F094FDD4E90101401A3968081A401CDD
:1088E0008642EDD8B9F1000F03D0052065F3891059
:1088F00002E0062065F39F5061683A68114004EB7E
:108900008101C8606068304460609DF80000FEF737
:1089100063FC5046BDE8F88F00330020102400208F
:1089200070B50D4604460A2902D10D21FFF7F8FF64
:10893000A0682268411CA1601554D4E9010181425C
:1089400004D32046BDE8704002F0D3BF70BD0000E4
:10895000044881684068814201D1012070470020AD
:108960007047000000330020034630B5074800215F
:108970000478426806E000BF02EBC10005789D4222
:1089800003D0491CA142F7DB002030BD6823002042
:1089900000780221FFF76CBD1CB5044601F0D8FE3B
:1089A00000236A46092105F0AFFB052805D10348DD
:1089B000012241792046FFF713F91CBD88220020CF
:1089C0001CB504460020009042F6A620ADF8000039
:1089D00001208DF80200084801AA6946006801904C
:1089E0002046A0DF002805D10448012281792046D5
:1089F000FFF7F6F81CBD000038170300882200209E
:108A000005494FF0FF32082841F8202002D30844DE
:108A100080F8482070470000FC2D0020F0B54FF092
:108A2000FF3512B10023082601E008230C260C4C68
:108A300005E000BF54F823707F1C04D05B1CB342D8
:108A4000F8D32846F0BD26185DB286F8305044F8B9
:108A50002310002AF5D1E11881F84800F1E7000061
:108A6000FC2D00200249084490F9300070470000B6
:108A7000FC2D00202DE9F04188B01E46DDF838803D
:108A800014460D00074602D10020FEF717FB14B96B
:108A90000020FEF713FB20216846FDF70EFD9DF830
:108AA0000D00ADF8044040F002008DF80D000848BC
:108AB000ADF80070ADF8064002958DF811604246A1
:108AC0006946008800F006F808B0BDE8F0810000B3
:108AD0006A2400202DE9F0438146887891B09046C1
:108AE0000C4600B901208DF83E002088ADF83C000E
:108AF00000250095607C694607F0DEFB6E46A07C91
:108B0000711C07F0D9FBE07B00289DF8020002D021
:108B100040F0080001E020F008008DF80200217C00
:108B200011B140F0100001E020F010008DF80200BB
:108B3000217B11B140F0010001E020F001008DF82F
:108B40000200217D09B1022100E0012161F3420010
:108B50008DF802001C2102A8FDF7AFFC607BC10666
:108B600001D4800617D50E950EAFE07C791C07F076
:108B7000A3FB9DF83800079720F00F00401C20F061
:108B8000F00010308DF838009DF83A0020F0060013
:108B9000801C8DF83A00607B8DF80800A07B8DF872
:108BA0000900142109A8FDF788FC0FA8CDE90906E2
:108BB000A088ADF83000A06820B1E088ADF82C00A6
:108BC000A0680D90A06998B301950088ADF81000D9
:108BD000A06901AD01A94088ADF81200A069406804
:108BE00006950390A069007B07F066FBA069691CED
:108BF000407B07F061FBA069807A00289DF80600A1
:108C000002D040F0080001E020F008008DF80600D6
:108C1000A169C97A11B140F0100001E020F0100004
:108C20008DF80600A169097A19B140F0010002E04F
:108C30000DE020F001008DF80600A169897B09B1E3
:108C4000022100E0012161F342008DF80600E06995
:108C500000B10590434609AA02A94846AADF11B00F
:108C6000BDE8F08370B504464FF6FF750A46284606
:108C7000AC4209D14FF480742146104602F07BFBD0
:108C800080B2A0420BD070BDFF2CFCD8214610460C
:108C900002F061FB90F0010F01D0204670BD284624
:108CA00070BD000070B5084C050009D01034216873
:108CB000002907D008682060496828468847F6E7F9
:108CC0000834F4E770BD0000E82D0020054A0121BA
:108CD00020B1012805D19170FFF7E4BF5170002049
:108CE000FAE77047E82D002010B5D0E90234D1E949
:108CF0000220D11AA04101D3012010BD002010BDD7
:108D000073B58CB00646002000900D9880B1002409
:108D10006D4621460DA802F053FB30B1009805EBDB
:108D2000400084800098401C0090641C142CF0D3F8
:108D30002C2269463046FDF799FB0EB070BD2DE937
:108D4000F04117880646B81D14460D46984202D9D0
:108D50000C20BDE8F0813188072206290AD34FF4A0
:108D6000486C4FF6FF73614501D9994202D1708872
:108D7000062801D21046ECE7604501D99842F9D1A6
:108D8000994203D0984201D08142F3D80520E8559A
:108D900020881221401C80B2208029542088401C49
:108DA00080B220804119308808F0DDF8218808441D
:108DB00080B220804119708808F0D5F821880844D5
:108DC00020800020C5E7FEF779B9000038B54A7A5F
:108DD0000F4B62B100220A725969002906D00122A4
:108DE0008DF80020ADF802006846884738BD0A7A41
:108DF00062B19B684C68024619462046FEF7AAF904
:108E00000028F3D0BDE8384007F02EB85B68F1E7E2
:108E10006C2A0020F0B585B016460F4604461D4664
:108E200014220B496846FDF721FB0A488DF80870AB
:108E3000ADF80240ADF80A608DF80C5001780022C0
:108E40002046FEF7CDFE684600F0CEFB05B0F0BD33
:108E50008418030028230020FDF75CBF70B588B09C
:108E60000646002005900690ADF81410ADF81610D7
:108E70000190029001AA05A9304690DF050021D09B
:108E800003F0D6FF0346114811493246401AC10883
:108E9000012000EB014004460E4903F07CFBBDF8C5
:108EA000042012B9BDF8060028B1BDF806302046EE
:108EB00009A103F070FBBDF808201AB1204616493D
:108EC00003F062FB08B0284670BD0000B832030012
:108ED000A0320300F81F03005468652072657175A5
:108EE00065737465642054582F5258207061636B09
:108EF0006574206C656E67746820697320746F6F89
:108F0000206C6F6E672062792025752F2575206F84
:108F100063746574732E00004420030070B504462A
:108F20000948012102F085FABFF35F8F0025002870
:108F300008D1204601F0D4FE002803D1BFF35F8F93
:108F40000148056070BD0000942200202DE9FF411A
:108F50000C4620B14FF4064004B0BDE8F081207902
:108F6000002748F2096538B141F61D5601281BD08B
:108F7000022826D0681DEFE7022020710297039790
:108F8000E0680190694601A806F0BCFB50B1029868
:108F90008188E18000882081BDF80010029806F0E9
:108FA0002FFCD9E72846D7E70A4B6A460021A01DC7
:108FB00006F060FB38B1074918398F61CF61A842CC
:108FC000CAD13046C8E703488188019806F018FCEA
:108FD000F5E70000C823002070B500240F4D10E015
:108FE000686800EBC406307804F04CF87178012909
:108FF00001D0012100E000214140307800F048FA22
:10900000641C28788442EBDBD5E90401084303D0D3
:10901000BDE8704007F0D0BD70BD0000682300209F
:1090200010B50021024802F004FA80F3100010BDD0
:109030001C3700204FF480328A400168C1F8482371
:109040000068C0F8082370474FF4A07202EB81015A
:1090500089B200F08DBA2DE9F04105460E464FF475
:10906000A07000EB860081B228684FF48034B440D1
:10907000984622F07F47C0F808432868C0F8484364
:10908000286803F04BFC286800EB8600C0F84075A8
:109090002868C0F84443B8F1000F02D02868C0F82F
:1090A0000443BDE8F0810068D0F804057047000073
:1090B00070B54379234C44F823204279231D03EBF8
:1090C000C202224C1579204A121BD4082DB1082562
:1090D000022000EB04401EA130E005680A88C5F8B4
:1090E000082590F904208978002A4FEA411104DB11
:1090F00002F1E02282F8001405E002F00F0202F112
:10910000E02282F8141D90F904100122002909DBE5
:1091100001F01F0502FA05F54909890001F1E02176
:10912000C1F800514179002503EBC1010A71417971
:1091300043F83100032000EB04400EA103F020FAB5
:10914000284670BDA423002038330300A03203005A
:1091500052544320696E7374616E636520616C7252
:109160006561647920696E697469616C697A6564A6
:109170002E0000005254433A20696E697469616C94
:10918000697A65642E00000090F90400002809DB6C
:1091900000F01F02012191404009800000F1E02011
:1091A000C0F8001270470A46022100F067B94FF478
:1091B000827100F0DDB9006801210160704700682C
:1091C0000121416070472DE9F05F07460C464FF4DE
:1091D000A07000EB84001FFA80FA38684FF48036E4
:1091E000A6409B4622F07F45C0F848633868C0F827
:1091F00008633868D0F8048500EB8402D2F8409503
:10920000C2F840855146386803F088FBA9EB080096
:1092100020F07F40012806D1102003F075FE514652
:10922000386803F07BFB3868D0F80485C0F84463E5
:10923000A5EB080121F07F413868012900EB84008B
:1092400010D0C0F840553868D0F804156FF07F4C46
:109250006A1A521E22F07F42ACEB0B03934217D3E3
:1092600062B118E06D1CC0F84055102003F04CFEB0
:109270003868D0F8040540450AD10CE000EB8400C2
:109280006D1CC0F840553868D0F80405884202D0FB
:109290000D20BDE8F09F01223146384600F0EEF87F
:1092A0000020F6E713460A460021FFF7B3BD000091
:1092B0002DE9F843104D0F4680461E4691466946FB
:1092C000286802F011F8040014D01C21FDF7F5F80D
:1092D00001202071C4F81490380BC4F80080C4E950
:1092E00002606946286802F020F806F02DF9002097
:1092F000BDE8F8830420FBE79019030010B503785C
:109300000022072B06D2DFE803F00504061020290F
:1093100030000A7010BD01230B7003898B81838894
:10932000CB81C06888600A7410BD02220A7002896D
:109330008A818288CA81C2688A60807D062802D0BC
:109340000020087410BD0120FBE703220A70C288C8
:109350008A810289CA81C068886010BD04230B70AD
:10936000C0888881CA818A6010BD0520087010BD40
:1093700070B5064D0646002455F8241009B1304654
:109380008847641C042CF7D370BD0000D82F002040
:1093900030B50446006887B00D46806800281FD0AD
:1093A00018216846FDF789F80195A0680590207995
:1093B00010B1012810D107E001208DF800002069CC
:1093C0000290E068039005E002208DF80000E0685C
:1093D00000030290606904902068816868468847AD
:1093E00007B030BDF0B585B017460C0005463AD041
:1093F000112C38D0082C36D01C481D49401AC608FC
:109400000D2C11D0204603F013FD0246012000EB85
:1094100006402B46174903F0BEF82A460721684646
:1094200001F016FF02941BE0022000EB06402A46E2
:10943000114903F0A9F82A460321684601F008FF04
:1094400027B13878C00701D0012000E002208DF854
:10945000080000208DF80C0041F20110ADF80A0060
:10946000684600F0CFF805B0F0BD0000E832030018
:10947000A0320300682A0300582903000368C3F8D8
:109480004413002A02D00068C0F80413704700009B
:109490002DE9F84F0E463449804601EB5001C007D4
:1094A000097801D00F0901E001F00F074FF0000922
:1094B000424601204946FCF7C6FFDFF8B0A004464B
:1094C0000D46052F4ED2DFE807F003161B282C00AF
:1094D000002E47D00121404607F030FA8DF8009069
:1094E0006846FDF755FE5046D0E904120C4315437B
:1094F000CAE9044532E00EB1022114E0002112E075
:109500004EB10321404607F019FA4046BDE8F84F36
:10951000012107F007BE012105E0002E22D1042120
:1095200001E02EB103214046BDE8F84F07F006BA2E
:109530000021404607F002FA0021404607F0F2FD04
:109540008DF800906846FDF723FE5046E243D0E9CF
:1095500004341A4024EA0501CAE904219DF80000F8
:10956000FDF73AFEBDE8F88F382F00206823002071
:1095700010B5006842581AB103F0D0F9012010BDAF
:10958000002010BD10B50446408801F0E1F8A0802D
:10959000024801682046BDE810400847902200209C
:1095A00010B50446808801F01DF86080024801680B
:1095B0002046BDE810400847A02200202DE9F041D8
:1095C00007460024064E074D05E000BF56F824105C
:1095D00038468847641CE8788442F7DBBDE8F081B0
:1095E0009C2D0020B822002010B50446408801F0D0
:1095F000AFF8A080024801682046BDE81040084747
:10960000441803000149096808470000C018030016
:1096100070B586B0044614216846FCF74EFFA08959
:109620000125A0F54040ADF8040020782F4E062813
:1096300033D2DFE800F0320303032C4AA08900F0A4
:10964000EBF930B9E08943F6FE71A0F5404088425D
:1096500023D8A07B8DF80800207803280FD00020A5
:109660008DF80900A0680390606850B109208DF85A
:10967000000060680490684604F098FC0DE001204A
:10968000EEE708208DF800008DF81050F3E7A08970
:1096900000F0C2F908B1E08930B17078002801D03B
:1096A00004F0D8FD06B070BD606830B10B208DF8B5
:1096B0000000606802907570DDE70A208DF80000F8
:1096C000BDF8040004F06AFEF5E7606848B11420B4
:1096D0008DF80000606802904FF6FF70ADF804004E
:1096E000C9E713208DF80000F6E70000A42200204F
:1096F00038B504460F480078B0B1A4F57F40FF3874
:109700000FD0684605F050FE88B105210170012197
:109710000171C480684605F055FE05F007FF002082
:1097200038BD48F2036038BD48F2016038BD48F2E8
:10973000076038BDD02300200D4808B5007888B1F7
:10974000684605F031FE80B106210170684605F0DB
:1097500039FE0848017809B10121017305F0E6FEE0
:10976000002008BD48F2016008BD48F2076008BD4E
:10977000D02300209C300020F0B587B0142168462B
:10978000FCF79BFE304C207818B16846FFF7F0FDDF
:1097900057E0201D01F02FFE98BB40F6F8700168DD
:1097A000481C02D14FF0102041694FF080500269EF
:1097B00040694B1C01D100FB02F1244800220161E9
:1097C000A1F54051C160224902F028FA002823D1B6
:1097D00021481C238C221F49006801F072FD04F00F
:1097E00071F9050016D0022D14D000270126062D90
:1097F00014D005A805F0D8FD98B106700C2D1BD229
:1098000000E01EE0DFE805F0181018101817181710
:109810001812141248F20A6007B0F0BD2670676093
:10982000B3E748F20760F7E7077105E0032100E0BE
:109830000221017100E0067105A805F0C3FD05F0E5
:1098400075FE0020E8E70000D0230020BC240020A3
:10985000A0190300E82F00200819030038B5040000
:1098600014D0694605F04EFFB0B1BDF8000000EB22
:1098700080010B4800EB8100C16851B1A17A41B170
:10988000C168491EC1600020A07238BD48F2046062
:1098900038BD48F2056038BD48F2096038BD0000A7
:1098A000743000201FB501A9684605F0E3FE04B03E
:1098B00010BD07B513460A466946002005F0DAFEDA
:1098C0000EBD07B513460A460021684605F0D2FED4
:1098D0000EBD20B119B1006808600020704748F241
:1098E00004607047F8B50D46040018D0BDB1694654
:1098F00005F008FFB0B1BDF800000C4900EB800096
:1099000001EB800001210C30666801F077FD2E60CC
:1099100060680C3068600120A0720020F8BD48F239
:109920000460F8BD48F20960F8BD00007430002002
:1099300018B10323002207F0AFBD48F2046070475E
:109940000223002207F0A8BD094910B50A69042ABC
:109950000AD0084A096942F821000548012110305F
:1099600001F04CFD002010BD48F20B6010BD00005E
:10997000B0230020D82F00202DE9F84F04462448BA
:109980000078D8B1F4B112212046FCF796FD0320EF
:10999000DFF880902080002504F1100804F10E0A01
:1099A00005EB850109EB810630897189084487B28E
:1099B000706804F011F8032807D009E048F201604C
:1099C000BDE8F88F48F20460FAE72088401E208046
:1099D0006088F1680844608020897189084420818A
:1099E000608938446081C7F58060A18980B2814276
:1099F00000D2A0815346A21D211D2846CDF800802B
:109A000005F01CFF6D1CADB2022DC9D30020D7E7B5
:109A1000D02300207430002043F6FE71A0F54040B2
:109A2000884201D8012070470020704710B50446D5
:109A30000078182802D1FEF7AFF8207010BD10B5DD
:109A400004460078182802D1FEF7A6F8207010BD51
:109A50000AB101F0C0BC01F073BC70B50D460446FC
:109A6000B0F81414D0F810040122FDF7DAFD00B1AB
:109A7000057004F13C0204F5826104F1540072DFC8
:109A800070BD000070B5134600220546112900D1B3
:109A90000122074C33B12179FEF7A2F80022617848
:109AA000284600E06178BDE87040FEF799B80000F4
:109AB00030230020F7B517460E0011D0009800257E
:109AC00060B100242146684601F07AFC18B1A0B2CA
:109AD0003946B0476D1C641C142CF3D32846FEBDD8
:109AE0000020FEBD406805F07FBC00000EB516A149
:109AF0009DF8080020F00F00401C20F0F00010300E
:109B00008DF80800122202A87CDF08B1FDF7D6FA12
:109B100040F2413078DF08B1FDF7D0FA0020009024
:109B200001905021ADF80400ADF800104FF4C8705A
:109B3000A021ADF80600ADF8021068467ADF0028D3
:109B400001D0FDF7BBFA0EBD4E6F726469635F54BE
:109B5000656D706C6174655F4350000070B510B145
:109B60004FF4064070BD1C4C0025207B08B12573C6
:109B700001E000F0A5F8207808282AD2DFE800F0FC
:109B80002904080C10291422BDE8704000F026B802
:109B9000BDE8704000F082B8BDE8704000F064B8E5
:109BA000BDE8704000F040B80620207060880A4987
:109BB00000EB8000283901EB80004068BDE8704070
:109BC00003F060BF072020706560BDE8704003F0BF
:109BD00067BF48F20E6070BD9C3000201149F0B4A0
:109BE0008A1C00200346A1F128050C18A67A4EB164
:109BF000A37200EB800405EB8404E66816B9247CAC
:109C0000012C0AD0401C80B20228EED30B704B808E
:109C10004B60F0BC41F61D5070471080F0BC00F066
:109C20003DB800009C3000200C48418801EB8102C7
:109C3000A0F1280101EB8201CA6852B1052101702F
:109C4000074802218180016800230122054801F0B4
:109C500049BF042202704968F6E700009C300020EA
:109C6000D8230020BC24002038B50A490848032422
:109C70000B684268898803EB810153880470DB1C00
:109C800000201B0400909B0B034802F07FF838BDB6
:109C90009C300020D8230020BC240020074910B5A8
:109CA0004888091D05F07EFD18B1BDE81040FFF79A
:109CB000DBBFBDE81040FFF7B7BF00009C300020BD
:109CC00070B5194C0121207808281AD2DFE800F07D
:109CD0000419191C252929182089134A401C2081A0
:109CE000002060802073283A00EB800312F82330B4
:109CF00043B100232518401C80B2AB720228F3D375
:109D0000217070BD0123F5E76068084940888A88A2
:109D1000C01C10448880022004E000F009F80620EE
:109D200000E00720207070BD9C300020D823002068
:109D30000A4909484988026801EB81030749283923
:109D400001EB83014B6803604A6082880A8102222A
:109D50008280002008747047D82300209C300020A7
:109D60002DE9F043064680883288DFF85C8185B0B3
:109D70000746502A37D010DC5449554B06F10A05E6
:109D8000A1EB03014FEAD1014FF0020303EB0144C1
:109D9000352A3AD0362A07D168E0522A02D0542A0E
:109DA000F9D102E000F040FF82E014224949684600
:109DB000FCF75CFBADF80270384600F0C9FCADF86A
:109DC000040000F0C9F90022444698F8041038460F
:109DD000FDF706FF0022E1783846FDF701FF6846EF
:109DE000FFF7D0FB64E0307B012861D1B07A012815
:109DF0005ED13089A0F52451023959D1012138466C
:109E000000F066FF07F01EF952E098F80610FDF723
:109E1000CFFE00284CD0002298F806103846FDF7F7
:109E2000DFFEF288B2F5857F17D012B120462AA155
:109E30000BE02A88012A03D0204636A102F0A4FBB9
:109E40006A88012A04D0204641A102F09DFB04E06B
:109E5000A98800223846A1DF08B1002125E00122AF
:109E600098F807103846FDF7BBFE21E04FF00009D7
:109E700098F80710FDF79CFED0B1002298F8071063
:109E80003846FDF7ADFEF28812B1204612A104E07B
:109E9000AA88012A04D020462DA102F075FB03E018
:109EA000A87900B1012081464946384606F0A8FD50
:109EB0000022364998F80200FDF714FE05B0BDE80F
:109EC000F04306F06DB8000088220020A0320300A5
:109ED000A032030090170300556E657870656374B7
:109EE00065642047415454207374617475732077FE
:109EF00068696C652067657474696E6720434152B8
:109F000020636861722076616C75653A203078252F
:109F1000780000004D756C7469706C6520282564AC
:109F200029204341522063686172616374657269DC
:109F3000737469637320666F756E642C2075736922
:109F40006E67207468652066697273742E00000065
:109F5000556E657870656374656420434152206373
:109F60006861726163746572697374696320766194
:109F70006C7565206C656E67746820282564292CD3
:109F80002073746F726520302E0000001D73020074
:109F900070B504460078002814D1608800F044FEB3
:109FA0006588284600F09AF928B107480122C1784F
:109FB0002846FDF715FE6088FEF7EEFCBDE8704010
:109FC00007F040B870BD00008822002070B5204C1A
:109FD00000252570FDF7E0FD6070FDF7DDFDA07048
:109FE000FDF7DAFDE070FDF7D7FD2071FDF7D4FD38
:109FF0006071FDF7D1FDA071FDF7CEFDE0716278D3
:10A000000121182A18D0A278182A15D0E278182A27
:10A0100012D02279182A0FD06279182A0CD0A2798E
:10A02000182A09D0182807D004F10C000560BFF3E6
:10A030005F8F2170002070BD0648074A801AC00853
:10A0400001EB0040054902F09BFA032070BD0000BF
:10A0500088220020A0320300A0320300B81C0300B5
:10A060007CB504460078082837D1607A58BB207A3E
:10A070001C4E4FF6FF75012811D0072802D0082882
:10A080002BD121E0A08800F0ADFA0446A84224D0EC
:10A09000012100F01DFE2046FEF77EFC1DE0A08899
:10A0A0006A46012103F0A4FE68B90198007850B116
:10A0B000A08800F097FAA8420FD00122F178FDF7AE
:10A0C0008FFD05F06DFF08E0F068012805D1BFF3B2
:10A0D0005F8F044900200C310860BDE87C4006F029
:10A0E000B1BF00008822002010B50B48FEF7DBFF4F
:10A0F000094A083AD2E90434C018D2E9063244F1D8
:10A100000001C31A71EB020204D24FF08072801872
:10A1100041F1000110BD00008823002010B5C0B23D
:10A12000FEF722FC0446007802F0ACFF014660789E
:10A13000012801D0012000E0002090EA010F08D0A2
:10A140000449D1E90401084303D1BDE8104006F0F9
:10A1500033BD10BD682300201CB5054AD2E90212A8
:10A16000CDE900120022694604F008F81CBD000089
:10A17000A817030003484FF6FF7181800121017089
:10A1800000207047982200202DE9FC41804600F015
:10A19000DFFA002403250127A0F57F412646FF3979
:10A1A00008D06A46082103F023FE18B90198841DDF
:10A1B0008688056832462B4621464046B1DF042892
:10A1C00004D0082804D00B2808D002E0112000E0B9
:10A1D0000020002F00D10B20BDE8FC810027A8073C
:10A1E00001D50125E6E7344303D0002426460325A4
:10A1F000E0E7064806494246401AC008012101EB43
:10A200000040044902F0C0F9E5E70000A83203006D
:10A21000A0320300801F03002DE9FC41804600F0BE
:10A2200097FAA0F57F410646FF390ED001252A4650
:10A230006D1C0027ADB26B460821304603F022FEAC
:10A24000040006D0072C33D033E043F20200BDE80F
:10A25000FC81019903230A1D0B604046891DB2DF72
:10A26000040004D00C2C09D0052C09D009E032469A
:10A270000821104603F07EFE04461AE0012700E0A4
:10A2800000240821304603F06BFE70B102F0D0FDCF
:10A290000346094809493246401AC008012101EB2A
:10A2A0000040074902F077F90324002FBFD100E0F6
:10A2B0000C242046CBE70000A8320300A0320300A4
:10A2C000001F030004488088A0F57F41FF3901D0BA
:10A2D00005F070BE70470000982200200EB502A95C
:10A2E000019100F035FA6A46012103F081FD08B1C1
:10A2F00000200EBD019800780EBD00002DE9F04150
:10A3000007464FF6FF761048B3DF78B102F090FDB4
:10A3100002460E480E49401AC008012101EB0040D8
:10A320000C4902F031F90320BDE8F081064C43F2FC
:10A330000305A41E324661883846AFDFA842F3D138
:10A340006088401C6080F5E79A220020A832030054
:10A35000A0320300B41E0300428800EB82020C32DC
:10A360008A4201D9022070478188A1F57F42FF3AD5
:10A3700006D0018821B18068401C01D000207047C0
:10A3800001207047884204D20068401C01D001209F
:10A39000704700207047000010B51249124805F0C0
:10A3A000D1FD114C81B2103C6068401C60600F48C8
:10A3B000FDF7BAFE58B1082809D0132807D0112894
:10A3C00005D043F20141884201D0FCF777FE606876
:10A3D0000321B0FBF1F201FB120000B1012020705B
:10A3E00010BD0000B42900206022002010250020AC
:10A3F0002DE9F041044640799046002500B104253E
:10A4000094F8220008B145F00205CAB2FF2908D924
:10A41000090A88F8012045F0010588F80210032692
:10A4200002E088F801200226B4F84C0008B145F09B
:10A43000100500271BE000BF94F84E10B21C91429B
:10A440000BD2B4F84C0004EB4701C01B420004F1EE
:10A4500024002431FCF70AF80DE004EB470008EB78
:10A460000601808C0870000A4870D6B27F1CB4F8D0
:10A470004C00B842E0DC34F84C0FC01B208088F858
:10A4800000503046BDE8F0813EB5027802230C460C
:10A49000B3EB520F17D1B0F80110ADF80010C1782E
:10A4A0008DF802108188ADF8041080798DF80600CF
:10A4B00002AA01A92046FCF73BFD032202A9684637
:10A4C000FCF70DF808B100203EBD01203EBD0000A4
:10A4D00070B50D460446142810D2FDF79DFB68B1F7
:10A4E000084904EB840001EB4000D0F80210296019
:10A4F000C188A980007AA871002070BD43F20200D3
:10A5000070BD0000042B002070B5018890B01029A8
:10A5100061D1011D2C226846FBF7A8FF9DF80400BD
:10A520004FF6FF7603213446B1EB500F2BD003F0EA
:10A53000E3FD9DF804006D4640080ED001280CD0C4
:10A54000022820D118E00D99281D1131FCF780FC5C
:10A5500018B100BFBDF82C4015E00CAA0BA90720CC
:10A5600003F09EFD0028EED10DE00D99281D491C39
:10A57000FFF78AFF0028EDD10CAA0BA9072003F0F2
:10A580008FFD0028F1D1BDF80000B44200EB80013E
:10A59000124820F8114000EB41000199C0F8021068
:10A5A000BDF80810C1809DF80A10017213D0BDF8E3
:10A5B0000000ADF82E000020ADF83040084E8DF8B8
:10A5C0002C000BAD044600BF56F8241028468847DF
:10A5D000641C022CF8D310B070BD0000042B0020C6
:10A5E000BC1703002DE9F0414FF6FF760546B04257
:10A5F00013D00B4F002400BF04EB840037F8100089
:10A60000A84206D12046FDF707FB10B12046BDE861
:10A61000F081641CA4B2142CEED33046F7E700009E
:10A62000042B00203EB50C46054603F065FD0BE00B
:10A63000BDF80000A04207D02846029900F00EF8AD
:10A6400010B1BDF800003EBD01AA6946072003F025
:10A6500027FD0028ECD14FF6FF703EBD2DE9F041FB
:10A660000C46054600F1110701F111061022491CA4
:10A67000401CFBF734FF48B9681C00F0FDF928B115
:10A68000601C00F0F9F908B1012400E00024314613
:10A690003846FCF7DDFB3B780222B2EB530F0CD0BF
:10A6A0000321B1EB530F08D03378B2EB530F04D032
:10A6B000B1EB530F01D0012100E00021084201D18C
:10A6C0008C4302D00120BDE8F0810020FBE7018827
:10A6D00011B9421892780AB101207047491C082923
:10A6E000F7D30020704710B50C460346FFF7EFFF85
:10A6F00000280AD018882188884205D10822A11C88
:10A70000981CFBF7ECFE08B1002010BD012010BD25
:10A71000142804D2024A00EB800022F8101070477F
:10A72000042B002070B50546FFF75CFF0446284661
:10A7300003F062FB002808D1142C06D2034B04EB73
:10A7400084024FF6FF7123F8121070BD042B002015
:10A7500010B50446142808D2FDF75EFA28B1044962
:10A7600004EB840031F8100010BD4FF6FF7010BDEF
:10A77000042B00203EB5044603F0BEFC0EE0019918
:10A7800020464631FFF7AFFF28B9019920462A310C
:10A79000FFF7A9FF10B1BDF808003EBD6A4602A947
:10A7A000072003F07DFC0028E9D14FF6FF703EBD85
:10A7B00010B50A4941600A4800F01DFE58B902F080
:10A7C00093FA07491C238C22087404488C39001F13
:10A7D000006800F076FD002010BD00009419030011
:10A7E000483100202DE9F0412D4F002520B17D603A
:10A7F0004FF40640BDE8F0810879012258B1294E96
:10A8000001280CD0264C4FF002080834022820D032
:10A81000032841D127E00A7103F042F93AE0002011
:10A8200000EB800116F82110022908D0401C80B2EC
:10A830000228F5D33A707D6041F61D50DAE700EB4F
:10A84000800006F8205006EB8000406803F01AF9FB
:10A8500020E00D71A4F80480002301221248216831
:10A8600001F040F916E00D71206803F00BF90D4975
:10A8700023682831498801EB810206EB8201D1F877
:10A8800004C0C4F800C04B60A3880B81A4F8048006
:10A8900006F822500028ADD07D6048F20D60A9E78F
:10A8A000D023002074300020BC240020014603483F
:10A8B00002888A4200D0002070470000582A0020F9
:10A8C0002DE9FC5F0E008346DDE90C47C6F1000070
:10A8D00098469246814600D40846012503E000BF11
:10A8E00090FBFAF06D1C5045FADAA84500D94546B0
:10A8F00024B1002E01DB780700D5641EB80702D50D
:10A90000B8F1000F0AD0F80708D13CB1A54205D232
:10A9100020215846641EFEF703F8F6E7002E02DAFF
:10A920004E462D2102E0780703D52B215846FDF72E
:10A93000F7FF07F0030002280BD1B8F1000F08D190
:10A940003CB1A54205D230215846641EFDF7E8FF10
:10A95000F6E7CDE90047434652463146584606F0F1
:10A9600017FBBDE8FC9F000070B50D46044600686B
:10A970004FF4887102F07CFA4FF49071206802F075
:10A9800077FA4FF49271206802F072FA4FF4A271D4
:10A99000206802F06DFA4FF4AC71206802F068FA9A
:10A9A00020681249C0F804132068690740F3073093
:10A9B000090E002804DB00F1E02080F8001405E017
:10A9C00000F00F0000F1E02080F8141D206840F333
:10A9D0000730002809DB00F01F02012191404009E7
:10A9E000800000F1E020C0F8001170BD10034200AB
:10A9F000024600201268530713D502F00300012815
:10AA000002D002280CD105E0C2F383100B68801C31
:10AA1000184404E00223086803EB925210440860D3
:10AA2000012070470248007A002800D001207047BA
:10AA300048310020F0B58488A518944200D82246F9
:10AA4000A41AC288D6189A4200D81346D21A4B8844
:10AA50000788BB420CD34088834209D88888A0422B
:10AA600006D3A84204D8C888904201D3B04201D985
:10AA70000020F0BD0120F0BD0021425C0AB10120A0
:10AA80007047491C1029F8D300207047800701D077
:10AA900000207047012070470A4810B5807860B1E7
:10AAA000002401E0022C06D02046FDF771FC641C56
:10AAB000042CF7D310BD0324F6E7BDE81040FDF7E2
:10AAC00087BC00006822002003480179C90702D032
:10AAD0000078FDF7F3BD7047682200201721018040
:10AAE00041800021017141711B218171C171704749
:10AAF0002DE9FE4F2E4F984692460D00814601D01B
:10AB000000260DE0684600F099FB6A4600214846A1
:10AB100003F0CAF83878009E10B99DF8090098B182
:10AB200052463146484605F0A1FD04460146002242
:10AB30004846FEF7A7FF0D2C37D008DCA4B3082C3D
:10AB400033D00B2C09D130E00520BDE8FE8F112C4D
:10AB50001ED0A4F54050023827D0204602F068F9F4
:10AB60000246144814494B46401AC008012101EB23
:10AB70000040124901F00FFD5FF00305B8F1000F2E
:10AB800004D0324621464846FEF72CFC2846DCE736
:10AB90002A46F9784846FDF723F85246B9784846E0
:10ABA000FDF71EF80025E9E7FFE72546E6E7000088
:10ABB00030230020E8320300A0320300102A0300F3
:10ABC00070B50E460C49154604460978FCF7F0FFAF
:10ABD00000280FD0204603F00DF800282A46314601
:10ABE000204603D0BDE8704003F00AB8BDE87040CD
:10ABF000FEF758BB70BD00002823002070B5094D3A
:10AC00000646A978FCF7D4FF0446E9783046FCF7FD
:10AC1000CFFF014622463046BDE870400123FFF7D2
:10AC200067BF000030230020F0B585B0054600273F
:10AC300014216846FBF741FCA5F57F40ADF80250B2
:10AC4000FF3825D02846FFF79FFA040022D01B4882
:10AC50001B49401AC6080B2C22D0112C1ED0A4F57B
:10AC6000405002380ED0204602F0E2F802460120A1
:10AC700000EB06402B46134901F08DFC2146284687
:10AC800005F0FAF810483A4681782846FCF7A8FF04
:10AC900005B0F0BD0E208DF800000BE00127F1E7B4
:10ACA0000F208DF80000022000EB06402A460749DD
:10ACB00001F06AFC6846FEF765FCE3E7A03203009A
:10ACC000A0320300881D030088220020DC1D030041
:10ACD0000A4602494978FCF783BF00008822002019
:10ACE0002DE9F041002786B080463E46FFF794FAF2
:10ACF000040022D0112C22D01B481C49401AC50840
:10AD0000862C1ED0A4F5405002380ED0204602F00A
:10AD10008FF80246012000EB0540434614A101F0E4
:10AD20003AFC2146404605F0A7F839464046FFF771
:10AD3000CFFF06B03046BDE8F0810126F5E70127D8
:10AD4000F3E714221A496846FBF790FB0220ADF89E
:10AD5000028000EB0540424616A101F015FC684652
:10AD6000FEF710FCE1E70000A0320300A032030070
:10AD70006773636D5F6C6F63616C5F64625F636177
:10AD80006368655F757064617465282920726574F5
:10AD900075726E656420257320666F7220636F6E16
:10ADA0006E5F68616E646C653A2025640000000087
:10ADB00068170300466C6173682066756C6C2E2002
:10ADC000436F756C64206E6F742073746F726520AE
:10ADD0006461746120666F7220636F6E6E5F68617C
:10ADE0006E646C653A202564000000002DE9FF4187
:10ADF0000026244800F0FCFA2248001F074600F015
:10AE0000F7FA214C2149A06800900D6800E00098F5
:10AE10006946284004EB80000C30FFF7E9FD00286C
:10AE2000F5D101AA009901EA050304EB8303491C4B
:10AE3000DB6842F82030401C00910228F2D30198D0
:10AE400000F0030001280BD0022810D10198032143
:10AE500001EB90500099BDF80A6001EB900005E00D
:10AE60000198BDF80A60C0F383100844009038468A
:10AE700000F0BBFA08B10098A06004B03046BDE80D
:10AE8000F08100001837002000330020102400203B
:10AE90004FF48047ACB03946002001F0EFFB08B119
:10AEA000FCF70CF901F042FAFCF726F908B1FCF7BF
:10AEB00005F95F4A01215F48FCF712F95D485E4AD7
:10AEC0000121001FFCF70CF908B1FCF7F7F8FBF7BC
:10AED0006BFB5A490320FDF7A7FB08B1FCF7EEF81E
:10AEE00069460020FDF798FA08B1FCF7E7F89DF8ED
:10AEF000000002287ED00025FBF74BFBFBF7C0FCCF
:10AF000001F0C6FC08B1FCF7D9F801F0A1FE08B1C8
:10AF1000FCF7D4F8002469460120009401F028FDD4
:10AF200008B1FCF7CBF8684601F0A2FD08B1FCF7C8
:10AF3000C5F8FEF7DBFD0021414800F0E5FA08B155
:10AF4000FCF7BCF8AC216846FBF7B7FA02218DF894
:10AF5000001001208DF80200ADF810108DF87C0073
:10AF600006224FF496708DF8032036492290059101
:10AF700044F250602390344829903148694620308B
:10AF8000FCF785FB08B1FCF799F82D48012120302A
:10AF9000FCF77AFB05F050F91C216846FBF78DFAA7
:10AFA00020464FF4A0340326CDE900048DF80C6050
:10AFB000ADF80E008DF810002448059024484FF499
:10AFC000F021069002916846FCF748FD08B1FCF7B5
:10AFD00075F803F029FA1F481F49401AC00806EB0C
:10AFE00000401EA101F0CCFA124E0022361F394655
:10AFF000706800E019E0FCF7ADF808B1FCF75EF806
:10B00000002221463068FCF7A5F808B1FCF756F895
:10B01000FBF782FC2846FBF763FF00BF01F094F9C1
:10B020000028FBD101F048FCF8E7012564E70000A7
:10B0300099A3020000170300C9FE02000D8502005B
:10B04000602500205822002015D8020069D802008F
:10B05000C78D020058330300A032030054656D70A1
:10B060006C617465206578616D706C6520737461C6
:10B07000727465642E00000070B5144682880E4616
:10B0800005462088111D0144921C994201D8FE2AD0
:10B0900001D90C2070BD521C32542088FF21401C65
:10B0A00080B2208031542088401C80B220808119D9
:10B0B000288805F058FF2188084480B22080AA889B
:10B0C00042B1A96841B13044FBF7D0F92088A98882
:10B0D00008442080002070BD072070BD2DE9F04796
:10B0E000C5881E1DB6FBF5F78946B6FBF5F104468B
:10B0F00005FB176C407916686843DDF820A0F71847
:10B10000001F874200D9C61A166001E02468491E54
:10B110000029FBD1A5EB0C078846B74216D818E0EA
:10B1200004EB0C00001D09EB0803BAF1000F3A46CE
:10B1300002D00146184600E01946FBF797F924684B
:10B14000F61B4FF0000CB844B54201D9374600E079
:10B150002F46002EE4D1BDE8F087000030B502464E
:10B1600051B101F09FFA0021074C08E034F821307A
:10B170001568AB4202D11160002030BD491C8142EC
:10B18000F4D3052030BD000000000000BFF35F8F46
:10B1900000F016B9F8B50F460178144605460129A6
:10B1A00001D1687830B12088821C9A4232D80129B6
:10B1B00002D006E00720F8BD69780144891C994255
:10B1C00028D8181A801E86B2ADF800602188B81CF5
:10B1D000084469467DDF0028EDD12978022904D092
:10B1E0006878BDF80020904205D3BDF80000B04259
:10B1F00001D809200AE00820012905D16978B14267
:10B2000002D8ADF8001001E0ADF80060BDF8001004
:10B21000FE2901D90C20F8BD2288491CB954218887
:10B22000491C89B2218078542088401C2080BDF8B8
:10B230000010084420800020F8BD0000034A0021CF
:10B240009268C0E90021816070470000302300202F
:10B2500070B586B00D460646144614216846FBF7C5
:10B260002CF98DF80050ADF802402046FFF770FA37
:10B27000ADF80400142269463046FBF7F7F806B033
:10B2800070BD70B54FF6FF750E46A84201D1002083
:10B2900000E0401C84B208E02146304600F090F8FF
:10B2A00008B1204670BD641CA4B2FF2CF4D9284616
:10B2B00070BD10B5FAF7F9FF08B1002010BD1120DC
:10B2C00010BD10B531B1B2FBF3F403FB14241CB173
:10B2D000092010BD0E2010BD016000214160816079
:10B2E0008281C381084610BD70B50C460546FAF749
:10B2F00091FF002802D021882868084470BD10B54D
:10B300000A8849888A4203D1FAF7C6FF012010BD96
:10B31000002010BD70B50C460546FAF7A0FF0028C6
:10B3200002D061882868084470BD10B50A88498831
:10B330008A4203D1FAF78AFF012010BD002010BD18
:10B3400001F01F0301229A40D243490900EB81001A
:10B35000114600F059B80A4601F01F030121994037
:10B3600010B552090C4600EB820000F05DF8204059
:10B3700000D0012010BD2DE9F04180460D4600248B
:10B38000481E012101EB501716E058F82400C04375
:10B3900090FAA0F0B0FA80F020280CD200EB44160E
:10B3A000AE4208D231464046FFF7D5FF0028ECD127
:10B3B0003046BDE8F081641CA742E6D82846F8E78D
:10B3C0004A0950F8220001F01F0201219140084073
:10B3D00000D00120704701F01F0301229A40490963
:10B3E00000EB8100114600F029B8002100F017B8E9
:10B3F000012100F023B8012100F016B808B56A4613
:10B40000FAF79FFF009808BD08B56A46FAF77FFF74
:10B41000009808BD08B56A46FAF793FF08BD08B55D
:10B420006A46FAF774FF08BD08B56A46FAF762FF84
:10B4300008BD08B56A46FAF751FF08BD08B56A4667
:10B44000FAF758FF009808BD08B56A46FAF786FF74
:10B45000009808BD38B5044600258DF800506846B0
:10B46000FBF796FE21686268086890420ED9401E7C
:10B4700008600178238AE26801FB0325227A2168AB
:10B48000101AC0B20A79824200D208719DF80000F9
:10B49000FBF7A2FE284638BD38B5054600208DF8DA
:10B4A00000000C466846FBF773FEE868298A201AFC
:10B4B000B0FBF1F12A681068431C136001709DF81D
:10B4C0000000FBF789FE38BD10B530B1017A426843
:10B4D0000368891AC9B21A6006E00E2010BD03681D
:10B4E0001A68541C1C601170491EC9B2F7D200685A
:10B4F00000210171084610BDC20800F007030120B9
:10B50000895C98400840704710B560B1016117210F
:10B5100020F8021B20F8021B1B2100F8021BFFF77A
:10B52000DDFA002010BD0E2010BD0000F0B58588AA
:10B5300093B00C46002D39D1018800263F4F2429B5
:10B540003BD006DC102909D011290CD0232958D171
:10B550004FE03A290BD0552953D129E00146204626
:10B5600002F090F94DE0A01DFFF7B8FA49E022463D
:10B57000408934F8061F814200D8084660801728A9
:10B5800000D217206080106970B1607960B1D7E98E
:10B590000001CDE90301ADF80E506088ADF8100050
:10B5A000136903A9104698476671267113B0F0BD60
:10B5B0000146204602F0BAF923E0011D2C2206A81C
:10B5C000FAF754FFBDF81800BDF81C2004EBC001C9
:10B5D0004A732269AAB1D7E90423CDE90423ADF85F
:10B5E0001200487B8DF814002269204604A9904778
:10B5F00007E0017A207B884200D201462846FDF709
:10B600002DFCA07A0028D1D0E1882846A5DF0125AD
:10B6100080B11128CAD001F00BFC02460848094944
:10B6200013B0401AC00805EB0040BDE8F04006A189
:10B6300000F0AABFA672E572B8E70000C4170300C5
:10B64000B8320300A032030073645F626C655F6709
:10B65000617474635F65786368616E67655F6D745C
:10B66000755F7265717565737428292072657475CC
:10B67000726E65642025732E0000000020B10278F0
:10B68000DE2A03D0082070470E207047418000203A
:10B69000704760B159B10278DE2A0AD0096841606A
:10B6A000DE2101704FF6FF714180002070470E20AF
:10B6B0007047082070477FB5054600294DD0002D02
:10B6C0004BD008780C46DE2847D1A888618888428C
:10B6D00002D1204605F014FD2888012825D0022833
:10B6E0003BD011283AD0512837D135F8040F618862
:10B6F000884232D1A978A81C02292ED1017A0429C6
:10B7000003D0062901D0052927D10021009102226A
:10B710008DF8002001914FF4C07202910391ADF8B1
:10B720000420007A05280FD010E0297A204601294C
:10B7300013D1A988428891420FD10121017204B02E
:10B74000BDE8704005F0DCBCADF8041028886946FF
:10B75000B0DF002801D0616888477FBDA888618874
:10B760008842FAD14FF6FF7060807FBD00F18040C3
:10B770000068002800D00120704708B500F1804023
:10B78000002101600068009008BD000070B50D4CFC
:10B790000125207808B185260EE00020A0606060B9
:10B7A0002061E060084801F087FB064601F09CFA42
:10B7B00008B901F06BFB257001F060FB00B1A570CA
:10B7C000304670BDE82D0020CD8C020038B5002534
:10B7D0008DF800506846FBF7DBFC084CE068401E23
:10B7E000E060E06828B901F049FB10B901F074FB92
:10B7F000A5709DF80000FBF7EFFC38BDE82D002098
:10B800002DE9FF411C460378164D174E45F82320BD
:10B810000C3545F82340F0CE8DE8F0000C788DF81B
:10B8200000404C788DF801408C788DF80240CC783F
:10B830008DF803400C798DF805404C798DF8064061
:10B840008C6802940C7B8DF80C40497B8DF80D10B0
:10B8500002B1064A6946001D01F098FC04B0BDE83B
:10B86000F0810000CC2E0020D4180300490803000A
:10B87000F0B505460478154889B0164640F82420EE
:10B88000124A0869121DA2F1080742F82400487FF5
:10B89000385520226846FAF7E9FD04942878385C88
:10B8A00048B10EB10A4A00E000226946281D01F0A5
:10B8B00093FE09B0F0BD0EB1064A00E000226946D1
:10B8C00005F10C0001F052FDF3E700004C230020CD
:10B8D000250E03006D0C03000FB408B50399002971
:10B8E00004D004AA00926A4600F00FF801B05DF897
:10B8F00014FB10B582680446002A05D0D4E904037D
:10B90000216898470020A06010BD2DE9FC479146B2
:10B910000C00804676D014F8011B39B125290ED0D1
:10B920004046FCF7FDFF20780028F4D198F80C0081
:10B93000002867D04046BDE8FC47FFF7DABF00208B
:10B94000012221782B291BD02D2902D0302908D1A2
:10B9500002E040F0010001E040F00200641C002A17
:10B96000EFD100252A290ED02178A1F130020A2A30
:10B9700011D205EB850201EB4205641C303DF1E775
:10B9800040F00400EAE7D9F800100B1DC9F80030B8
:10B990000968641C0D44217800232E290BD114F86A
:10B9A000011FA1F130020A2A05D203EB830201EB49
:10B9B0004203303BF3E76C290DD068290BD069298D
:10B9C00021D00BDC252918D0582931D063290ED07D
:10B9D000642915D117E014F8011FECE7702969D02C
:10B9E000732932D075291BD0782909D120E0D9F8E4
:10B9F0000000011DC9F8001001784046FCF790FFD7
:10BA0000641C90E76CE0D9F800100A1DC9F800200A
:10BA10000968CDE900500A224046FEF751FFEFE7E2
:10BA2000D9F800100A1DC9F8002009680A2206E0AA
:10BA3000D9F800100A1DC9F8002009681022CDE9C4
:10BA40000050404605F0A4FADAE7D9F800100027C4
:10BA50000A1DC9F800200E68C00705D112E0404653
:10BA6000761C7F1CFCF75CFF31780029F7D104E0DD
:10BA7000202140466D1EFCF753FFBD42C0D9002D6A
:10BA8000F6D1BDE74EB13046FAF722FD074604E095
:10BA9000202140466D1EFCF743FFBD4206D9002D14
:10BAA000F6D103E04046761CFCF73AFF31780029D6
:10BAB000F8D1A5E7D9F80000011DC9F80010056804
:10BAC00030214046FCF72CFF78214046FCF728FF48
:10BAD00008200021CDE90001034610222946B0E7E5
